{
	"LdEduProgram.sol": {
		"LdEduProgram": {
			"abi": [
				{
					"inputs": [
						{
							"internalType": "address",
							"name": "initialOwner",
							"type": "address"
						}
					],
					"stateMutability": "nonpayable",
					"type": "constructor"
				},
				{
					"inputs": [
						{
							"internalType": "address",
							"name": "owner",
							"type": "address"
						}
					],
					"name": "OwnableInvalidOwner",
					"type": "error"
				},
				{
					"inputs": [
						{
							"internalType": "address",
							"name": "account",
							"type": "address"
						}
					],
					"name": "OwnableUnauthorizedAccount",
					"type": "error"
				},
				{
					"anonymous": false,
					"inputs": [
						{
							"indexed": false,
							"internalType": "uint256",
							"name": "newFee",
							"type": "uint256"
						}
					],
					"name": "FeeUpdated",
					"type": "event"
				},
				{
					"anonymous": false,
					"inputs": [
						{
							"indexed": true,
							"internalType": "uint256",
							"name": "id",
							"type": "uint256"
						},
						{
							"indexed": false,
							"internalType": "address",
							"name": "maker",
							"type": "address"
						},
						{
							"indexed": false,
							"internalType": "uint256",
							"name": "amount",
							"type": "uint256"
						}
					],
					"name": "FundsReclaimed",
					"type": "event"
				},
				{
					"anonymous": false,
					"inputs": [
						{
							"indexed": true,
							"internalType": "address",
							"name": "previousOwner",
							"type": "address"
						},
						{
							"indexed": true,
							"internalType": "address",
							"name": "newOwner",
							"type": "address"
						}
					],
					"name": "OwnershipTransferred",
					"type": "event"
				},
				{
					"anonymous": false,
					"inputs": [
						{
							"indexed": true,
							"internalType": "uint256",
							"name": "id",
							"type": "uint256"
						},
						{
							"indexed": false,
							"internalType": "address",
							"name": "builder",
							"type": "address"
						}
					],
					"name": "ProgramApproved",
					"type": "event"
				},
				{
					"anonymous": false,
					"inputs": [
						{
							"indexed": true,
							"internalType": "uint256",
							"name": "id",
							"type": "uint256"
						},
						{
							"indexed": false,
							"internalType": "address",
							"name": "builder",
							"type": "address"
						},
						{
							"indexed": false,
							"internalType": "uint256",
							"name": "amount",
							"type": "uint256"
						}
					],
					"name": "ProgramClaimed",
					"type": "event"
				},
				{
					"anonymous": false,
					"inputs": [
						{
							"indexed": true,
							"internalType": "uint256",
							"name": "id",
							"type": "uint256"
						},
						{
							"indexed": true,
							"internalType": "address",
							"name": "maker",
							"type": "address"
						},
						{
							"indexed": true,
							"internalType": "address",
							"name": "validator",
							"type": "address"
						},
						{
							"indexed": false,
							"internalType": "uint256",
							"name": "price",
							"type": "uint256"
						}
					],
					"name": "ProgramCreated",
					"type": "event"
				},
				{
					"anonymous": false,
					"inputs": [
						{
							"indexed": true,
							"internalType": "uint256",
							"name": "id",
							"type": "uint256"
						},
						{
							"indexed": false,
							"internalType": "address",
							"name": "newValidator",
							"type": "address"
						}
					],
					"name": "ValidatorUpdated",
					"type": "event"
				},
				{
					"inputs": [
						{
							"internalType": "uint256",
							"name": "programId",
							"type": "uint256"
						},
						{
							"internalType": "address",
							"name": "_builder",
							"type": "address"
						}
					],
					"name": "approveProgram",
					"outputs": [],
					"stateMutability": "nonpayable",
					"type": "function"
				},
				{
					"inputs": [
						{
							"internalType": "uint256",
							"name": "programId",
							"type": "uint256"
						}
					],
					"name": "claimGrants",
					"outputs": [],
					"stateMutability": "nonpayable",
					"type": "function"
				},
				{
					"inputs": [
						{
							"internalType": "string",
							"name": "_name",
							"type": "string"
						},
						{
							"internalType": "uint256",
							"name": "_price",
							"type": "uint256"
						},
						{
							"internalType": "uint256",
							"name": "_startTime",
							"type": "uint256"
						},
						{
							"internalType": "uint256",
							"name": "_endTime",
							"type": "uint256"
						},
						{
							"internalType": "address",
							"name": "_validator",
							"type": "address"
						}
					],
					"name": "createEduProgram",
					"outputs": [],
					"stateMutability": "payable",
					"type": "function"
				},
				{
					"inputs": [
						{
							"internalType": "uint256",
							"name": "",
							"type": "uint256"
						}
					],
					"name": "eduPrograms",
					"outputs": [
						{
							"internalType": "uint256",
							"name": "id",
							"type": "uint256"
						},
						{
							"internalType": "string",
							"name": "name",
							"type": "string"
						},
						{
							"internalType": "uint256",
							"name": "price",
							"type": "uint256"
						},
						{
							"internalType": "uint256",
							"name": "startTime",
							"type": "uint256"
						},
						{
							"internalType": "uint256",
							"name": "endTime",
							"type": "uint256"
						},
						{
							"internalType": "address",
							"name": "maker",
							"type": "address"
						},
						{
							"internalType": "address",
							"name": "validator",
							"type": "address"
						},
						{
							"internalType": "bool",
							"name": "approve",
							"type": "bool"
						},
						{
							"internalType": "bool",
							"name": "claimed",
							"type": "bool"
						},
						{
							"internalType": "address",
							"name": "builder",
							"type": "address"
						}
					],
					"stateMutability": "view",
					"type": "function"
				},
				{
					"inputs": [],
					"name": "getFee",
					"outputs": [
						{
							"internalType": "uint256",
							"name": "",
							"type": "uint256"
						}
					],
					"stateMutability": "view",
					"type": "function"
				},
				{
					"inputs": [],
					"name": "nextProgramId",
					"outputs": [
						{
							"internalType": "uint256",
							"name": "",
							"type": "uint256"
						}
					],
					"stateMutability": "view",
					"type": "function"
				},
				{
					"inputs": [],
					"name": "owner",
					"outputs": [
						{
							"internalType": "address",
							"name": "",
							"type": "address"
						}
					],
					"stateMutability": "view",
					"type": "function"
				},
				{
					"inputs": [
						{
							"internalType": "uint256",
							"name": "programId",
							"type": "uint256"
						}
					],
					"name": "reclaimFunds",
					"outputs": [],
					"stateMutability": "nonpayable",
					"type": "function"
				},
				{
					"inputs": [],
					"name": "renounceOwnership",
					"outputs": [],
					"stateMutability": "nonpayable",
					"type": "function"
				},
				{
					"inputs": [
						{
							"internalType": "uint256",
							"name": "_fee",
							"type": "uint256"
						}
					],
					"name": "setFee",
					"outputs": [],
					"stateMutability": "nonpayable",
					"type": "function"
				},
				{
					"inputs": [
						{
							"internalType": "address",
							"name": "newOwner",
							"type": "address"
						}
					],
					"name": "transferOwnership",
					"outputs": [],
					"stateMutability": "nonpayable",
					"type": "function"
				},
				{
					"inputs": [
						{
							"internalType": "uint256",
							"name": "programId",
							"type": "uint256"
						},
						{
							"internalType": "address",
							"name": "newValidator",
							"type": "address"
						}
					],
					"name": "updateValidator",
					"outputs": [],
					"stateMutability": "nonpayable",
					"type": "function"
				}
			],
			"devdoc": {
				"errors": {
					"OwnableInvalidOwner(address)": [
						{
							"details": "The owner is not a valid owner account. (eg. `address(0)`)"
						}
					],
					"OwnableUnauthorizedAccount(address)": [
						{
							"details": "The caller account is not authorized to perform an operation."
						}
					]
				},
				"kind": "dev",
				"methods": {
					"approveProgram(uint256,address)": {
						"params": {
							"_builder": "빌더 주소 (프로그램 수행 후 그랜츠를 청구할 사용자) 승인은 프로그램 종료 시간 전까지 가능하며, 승인 시 빌더 주소가 기록됩니다.",
							"programId": "프로그램 아이디"
						}
					},
					"claimGrants(uint256)": {
						"params": {
							"programId": "프로그램 아이디 청구는 프로그램 시작 시간 이후, 종료 시간 이전에만 가능하며, 수수료가 적용될 경우 수수료는 계약 소유자에게 전송됩니다."
						}
					},
					"createEduProgram(string,uint256,uint256,uint256,address)": {
						"params": {
							"_endTime": "프로그램 종료 시간 (unix time)",
							"_name": "프로그램 이름",
							"_price": "프로그램 금액 (wei 단위)",
							"_startTime": "프로그램 시작 시간 (unix time)",
							"_validator": "승인할 벨리데이터 주소 생성 시 msg.sender는 예치금(_price) 만큼 ETH를 전송해야 하며, 프로그램 정보가 저장되고 이후 벨리데이터가 승인할 수 있도록 설정됩니다."
						}
					},
					"owner()": {
						"details": "Returns the address of the current owner."
					},
					"reclaimFunds(uint256)": {
						"params": {
							"programId": "프로그램 아이디"
						}
					},
					"renounceOwnership()": {
						"details": "Leaves the contract without owner. It will not be possible to call `onlyOwner` functions. Can only be called by the current owner. NOTE: Renouncing ownership will leave the contract without an owner, thereby disabling any functionality that is only available to the owner."
					},
					"setFee(uint256)": {
						"params": {
							"_fee": "새로운 수수료 (예: 100 = 1%)"
						}
					},
					"transferOwnership(address)": {
						"details": "Transfers ownership of the contract to a new account (`newOwner`). Can only be called by the current owner."
					},
					"updateValidator(uint256,address)": {
						"params": {
							"newValidator": "새로운 벨리데이터 주소",
							"programId": "프로그램 아이디"
						}
					}
				},
				"version": 1
			},
			"evm": {
				"assembly": "    /* \"LdEduProgram.sol\":213:7176  contract LdEduProgram is Ownable, ReentrancyGuard {... */\n  mstore(0x40, 0x80)\n    /* \"LdEduProgram.sol\":1853:1916  constructor(address initialOwner) Ownable(initialOwner) {... */\n  callvalue\n  dup1\n  iszero\n  tag_1\n  jumpi\n  0x00\n  dup1\n  revert\ntag_1:\n  pop\n  mload(0x40)\n  sub(codesize, bytecodeSize)\n  dup1\n  bytecodeSize\n  dup4\n  codecopy\n  dup2\n  dup2\n  add\n  0x40\n  mstore\n  dup2\n  add\n  swap1\n  tag_2\n  swap2\n  swap1\n  tag_3\n  jump\t// in\ntag_2:\n    /* \"LdEduProgram.sol\":1895:1907  initialOwner */\n  dup1\n    /* \"@openzeppelin/contracts/access/Ownable.sol\":1297:1298  0 */\n  0x00\n    /* \"@openzeppelin/contracts/access/Ownable.sol\":1273:1299  initialOwner == address(0) */\n  0xffffffffffffffffffffffffffffffffffffffff\n  and\n    /* \"@openzeppelin/contracts/access/Ownable.sol\":1273:1285  initialOwner */\n  dup2\n    /* \"@openzeppelin/contracts/access/Ownable.sol\":1273:1299  initialOwner == address(0) */\n  0xffffffffffffffffffffffffffffffffffffffff\n  and\n  sub\n    /* \"@openzeppelin/contracts/access/Ownable.sol\":1269:1364  if (initialOwner == address(0)) {... */\n  tag_8\n  jumpi\n    /* \"@openzeppelin/contracts/access/Ownable.sol\":1350:1351  0 */\n  0x00\n    /* \"@openzeppelin/contracts/access/Ownable.sol\":1322:1353  OwnableInvalidOwner(address(0)) */\n  mload(0x40)\n  0x1e4fbdf700000000000000000000000000000000000000000000000000000000\n  dup2\n  mstore\n  0x04\n  add\n  tag_9\n  swap2\n  swap1\n  tag_10\n  jump\t// in\ntag_9:\n  mload(0x40)\n  dup1\n  swap2\n  sub\n  swap1\n  revert\n    /* \"@openzeppelin/contracts/access/Ownable.sol\":1269:1364  if (initialOwner == address(0)) {... */\ntag_8:\n    /* \"@openzeppelin/contracts/access/Ownable.sol\":1373:1405  _transferOwnership(initialOwner) */\n  tag_11\n    /* \"@openzeppelin/contracts/access/Ownable.sol\":1392:1404  initialOwner */\n  dup2\n    /* \"@openzeppelin/contracts/access/Ownable.sol\":1373:1391  _transferOwnership */\n  shl(0x20, tag_12)\n    /* \"@openzeppelin/contracts/access/Ownable.sol\":1373:1405  _transferOwnership(initialOwner) */\n  0x20\n  shr\n  jump\t// in\ntag_11:\n    /* \"@openzeppelin/contracts/access/Ownable.sol\":1225:1412  constructor(address initialOwner) {... */\n  pop\n    /* \"@openzeppelin/contracts/security/ReentrancyGuard.sol\":1716:1717  1 */\n  0x01\n    /* \"@openzeppelin/contracts/security/ReentrancyGuard.sol\":1821:1828  _status */\n  dup1\n    /* \"@openzeppelin/contracts/security/ReentrancyGuard.sol\":1821:1843  _status = _NOT_ENTERED */\n  dup2\n  swap1\n  sstore\n  pop\n    /* \"LdEduProgram.sol\":1853:1916  constructor(address initialOwner) Ownable(initialOwner) {... */\n  pop\n    /* \"LdEduProgram.sol\":213:7176  contract LdEduProgram is Ownable, ReentrancyGuard {... */\n  jump(tag_15)\n    /* \"@openzeppelin/contracts/access/Ownable.sol\":2912:3099  function _transferOwnership(address newOwner) internal virtual {... */\ntag_12:\n    /* \"@openzeppelin/contracts/access/Ownable.sol\":2985:3001  address oldOwner */\n  0x00\n    /* \"@openzeppelin/contracts/access/Ownable.sol\":3004:3010  _owner */\n  dup1\n  0x00\n  swap1\n  sload\n  swap1\n  0x0100\n  exp\n  swap1\n  div\n  0xffffffffffffffffffffffffffffffffffffffff\n  and\n    /* \"@openzeppelin/contracts/access/Ownable.sol\":2985:3010  address oldOwner = _owner */\n  swap1\n  pop\n    /* \"@openzeppelin/contracts/access/Ownable.sol\":3029:3037  newOwner */\n  dup2\n    /* \"@openzeppelin/contracts/access/Ownable.sol\":3020:3026  _owner */\n  0x00\n  dup1\n    /* \"@openzeppelin/contracts/access/Ownable.sol\":3020:3037  _owner = newOwner */\n  0x0100\n  exp\n  dup2\n  sload\n  dup2\n  0xffffffffffffffffffffffffffffffffffffffff\n  mul\n  not\n  and\n  swap1\n  dup4\n  0xffffffffffffffffffffffffffffffffffffffff\n  and\n  mul\n  or\n  swap1\n  sstore\n  pop\n    /* \"@openzeppelin/contracts/access/Ownable.sol\":3083:3091  newOwner */\n  dup2\n    /* \"@openzeppelin/contracts/access/Ownable.sol\":3052:3092  OwnershipTransferred(oldOwner, newOwner) */\n  0xffffffffffffffffffffffffffffffffffffffff\n  and\n    /* \"@openzeppelin/contracts/access/Ownable.sol\":3073:3081  oldOwner */\n  dup2\n    /* \"@openzeppelin/contracts/access/Ownable.sol\":3052:3092  OwnershipTransferred(oldOwner, newOwner) */\n  0xffffffffffffffffffffffffffffffffffffffff\n  and\n  0x8be0079c531659141344cd1fd0a4f28419497f9722a3daafe3b4186f6b6457e0\n  mload(0x40)\n  mload(0x40)\n  dup1\n  swap2\n  sub\n  swap1\n  log3\n    /* \"@openzeppelin/contracts/access/Ownable.sol\":2975:3099  {... */\n  pop\n    /* \"@openzeppelin/contracts/access/Ownable.sol\":2912:3099  function _transferOwnership(address newOwner) internal virtual {... */\n  pop\n  jump\t// out\n    /* \"#utility.yul\":88:205   */\ntag_18:\n    /* \"#utility.yul\":197:198   */\n  0x00\n    /* \"#utility.yul\":194:195   */\n  dup1\n    /* \"#utility.yul\":187:199   */\n  revert\n    /* \"#utility.yul\":334:460   */\ntag_20:\n    /* \"#utility.yul\":371:378   */\n  0x00\n    /* \"#utility.yul\":411:453   */\n  0xffffffffffffffffffffffffffffffffffffffff\n    /* \"#utility.yul\":404:409   */\n  dup3\n    /* \"#utility.yul\":400:454   */\n  and\n    /* \"#utility.yul\":389:454   */\n  swap1\n  pop\n    /* \"#utility.yul\":334:460   */\n  swap2\n  swap1\n  pop\n  jump\t// out\n    /* \"#utility.yul\":466:562   */\ntag_21:\n    /* \"#utility.yul\":503:510   */\n  0x00\n    /* \"#utility.yul\":532:556   */\n  tag_31\n    /* \"#utility.yul\":550:555   */\n  dup3\n    /* \"#utility.yul\":532:556   */\n  tag_20\n  jump\t// in\ntag_31:\n    /* \"#utility.yul\":521:556   */\n  swap1\n  pop\n    /* \"#utility.yul\":466:562   */\n  swap2\n  swap1\n  pop\n  jump\t// out\n    /* \"#utility.yul\":568:690   */\ntag_22:\n    /* \"#utility.yul\":641:665   */\n  tag_33\n    /* \"#utility.yul\":659:664   */\n  dup2\n    /* \"#utility.yul\":641:665   */\n  tag_21\n  jump\t// in\ntag_33:\n    /* \"#utility.yul\":634:639   */\n  dup2\n    /* \"#utility.yul\":631:666   */\n  eq\n    /* \"#utility.yul\":621:684   */\n  tag_34\n  jumpi\n    /* \"#utility.yul\":680:681   */\n  0x00\n    /* \"#utility.yul\":677:678   */\n  dup1\n    /* \"#utility.yul\":670:682   */\n  revert\n    /* \"#utility.yul\":621:684   */\ntag_34:\n    /* \"#utility.yul\":568:690   */\n  pop\n  jump\t// out\n    /* \"#utility.yul\":696:839   */\ntag_23:\n    /* \"#utility.yul\":753:758   */\n  0x00\n    /* \"#utility.yul\":784:790   */\n  dup2\n    /* \"#utility.yul\":778:791   */\n  mload\n    /* \"#utility.yul\":769:791   */\n  swap1\n  pop\n    /* \"#utility.yul\":800:833   */\n  tag_36\n    /* \"#utility.yul\":827:832   */\n  dup2\n    /* \"#utility.yul\":800:833   */\n  tag_22\n  jump\t// in\ntag_36:\n    /* \"#utility.yul\":696:839   */\n  swap3\n  swap2\n  pop\n  pop\n  jump\t// out\n    /* \"#utility.yul\":845:1196   */\ntag_3:\n    /* \"#utility.yul\":915:921   */\n  0x00\n    /* \"#utility.yul\":964:966   */\n  0x20\n    /* \"#utility.yul\":952:961   */\n  dup3\n    /* \"#utility.yul\":943:950   */\n  dup5\n    /* \"#utility.yul\":939:962   */\n  sub\n    /* \"#utility.yul\":935:967   */\n  slt\n    /* \"#utility.yul\":932:1051   */\n  iszero\n  tag_38\n  jumpi\n    /* \"#utility.yul\":970:1049   */\n  tag_39\n  tag_18\n  jump\t// in\ntag_39:\n    /* \"#utility.yul\":932:1051   */\ntag_38:\n    /* \"#utility.yul\":1090:1091   */\n  0x00\n    /* \"#utility.yul\":1115:1179   */\n  tag_40\n    /* \"#utility.yul\":1171:1178   */\n  dup5\n    /* \"#utility.yul\":1162:1168   */\n  dup3\n    /* \"#utility.yul\":1151:1160   */\n  dup6\n    /* \"#utility.yul\":1147:1169   */\n  add\n    /* \"#utility.yul\":1115:1179   */\n  tag_23\n  jump\t// in\ntag_40:\n    /* \"#utility.yul\":1105:1179   */\n  swap2\n  pop\n    /* \"#utility.yul\":1061:1189   */\n  pop\n    /* \"#utility.yul\":845:1196   */\n  swap3\n  swap2\n  pop\n  pop\n  jump\t// out\n    /* \"#utility.yul\":1202:1320   */\ntag_24:\n    /* \"#utility.yul\":1289:1313   */\n  tag_42\n    /* \"#utility.yul\":1307:1312   */\n  dup2\n    /* \"#utility.yul\":1289:1313   */\n  tag_21\n  jump\t// in\ntag_42:\n    /* \"#utility.yul\":1284:1287   */\n  dup3\n    /* \"#utility.yul\":1277:1314   */\n  mstore\n    /* \"#utility.yul\":1202:1320   */\n  pop\n  pop\n  jump\t// out\n    /* \"#utility.yul\":1326:1548   */\ntag_10:\n    /* \"#utility.yul\":1419:1423   */\n  0x00\n    /* \"#utility.yul\":1457:1459   */\n  0x20\n    /* \"#utility.yul\":1446:1455   */\n  dup3\n    /* \"#utility.yul\":1442:1460   */\n  add\n    /* \"#utility.yul\":1434:1460   */\n  swap1\n  pop\n    /* \"#utility.yul\":1470:1541   */\n  tag_44\n    /* \"#utility.yul\":1538:1539   */\n  0x00\n    /* \"#utility.yul\":1527:1536   */\n  dup4\n    /* \"#utility.yul\":1523:1540   */\n  add\n    /* \"#utility.yul\":1514:1520   */\n  dup5\n    /* \"#utility.yul\":1470:1541   */\n  tag_24\n  jump\t// in\ntag_44:\n    /* \"#utility.yul\":1326:1548   */\n  swap3\n  swap2\n  pop\n  pop\n  jump\t// out\n    /* \"LdEduProgram.sol\":213:7176  contract LdEduProgram is Ownable, ReentrancyGuard {... */\ntag_15:\n  dataSize(sub_0)\n  dup1\n  dataOffset(sub_0)\n  0x00\n  codecopy\n  0x00\n  return\nstop\n\nsub_0: assembly {\n        /* \"LdEduProgram.sol\":213:7176  contract LdEduProgram is Ownable, ReentrancyGuard {... */\n      mstore(0x40, 0x80)\n      jumpi(tag_1, lt(calldatasize, 0x04))\n      shr(0xe0, calldataload(0x00))\n      dup1\n      0xba71b330\n      gt\n      tag_14\n      jumpi\n      dup1\n      0xba71b330\n      eq\n      tag_8\n      jumpi\n      dup1\n      0xbf9d6337\n      eq\n      tag_9\n      jumpi\n      dup1\n      0xced72f87\n      eq\n      tag_10\n      jumpi\n      dup1\n      0xd613fd24\n      eq\n      tag_11\n      jumpi\n      dup1\n      0xf2fde38b\n      eq\n      tag_12\n      jumpi\n      dup1\n      0xf9f161a8\n      eq\n      tag_13\n      jumpi\n      jump(tag_1)\n    tag_14:\n      dup1\n      0x3db3ca89\n      eq\n      tag_2\n      jumpi\n      dup1\n      0x5a27cbcb\n      eq\n      tag_3\n      jumpi\n      dup1\n      0x69fe0e2d\n      eq\n      tag_4\n      jumpi\n      dup1\n      0x715018a6\n      eq\n      tag_5\n      jumpi\n      dup1\n      0x86e0d85a\n      eq\n      tag_6\n      jumpi\n      dup1\n      0x8da5cb5b\n      eq\n      tag_7\n      jumpi\n    tag_1:\n      0x00\n      dup1\n      revert\n        /* \"LdEduProgram.sol\":3686:4178  function approveProgram(uint256 programId, address _builder) external {... */\n    tag_2:\n      callvalue\n      dup1\n      iszero\n      tag_15\n      jumpi\n      0x00\n      dup1\n      revert\n    tag_15:\n      pop\n      tag_16\n      0x04\n      dup1\n      calldatasize\n      sub\n      dup2\n      add\n      swap1\n      tag_17\n      swap2\n      swap1\n      tag_18\n      jump\t// in\n    tag_17:\n      tag_19\n      jump\t// in\n    tag_16:\n      stop\n        /* \"LdEduProgram.sol\":6410:6737  function updateValidator(uint256 programId, address newValidator) external {... */\n    tag_3:\n      callvalue\n      dup1\n      iszero\n      tag_20\n      jumpi\n      0x00\n      dup1\n      revert\n    tag_20:\n      pop\n      tag_21\n      0x04\n      dup1\n      calldatasize\n      sub\n      dup2\n      add\n      swap1\n      tag_22\n      swap2\n      swap1\n      tag_18\n      jump\t// in\n    tag_22:\n      tag_23\n      jump\t// in\n    tag_21:\n      stop\n        /* \"LdEduProgram.sol\":6903:7010  function setFee(uint256 _fee) external onlyOwner {... */\n    tag_4:\n      callvalue\n      dup1\n      iszero\n      tag_24\n      jumpi\n      0x00\n      dup1\n      revert\n    tag_24:\n      pop\n      tag_25\n      0x04\n      dup1\n      calldatasize\n      sub\n      dup2\n      add\n      swap1\n      tag_26\n      swap2\n      swap1\n      tag_27\n      jump\t// in\n    tag_26:\n      tag_28\n      jump\t// in\n    tag_25:\n      stop\n        /* \"@openzeppelin/contracts/access/Ownable.sol\":2293:2394  function renounceOwnership() public virtual onlyOwner {... */\n    tag_5:\n      callvalue\n      dup1\n      iszero\n      tag_29\n      jumpi\n      0x00\n      dup1\n      revert\n    tag_29:\n      pop\n      tag_30\n      tag_31\n      jump\t// in\n    tag_30:\n      stop\n        /* \"LdEduProgram.sol\":4505:5401  function claimGrants(uint256 programId) external nonReentrant {... */\n    tag_6:\n      callvalue\n      dup1\n      iszero\n      tag_32\n      jumpi\n      0x00\n      dup1\n      revert\n    tag_32:\n      pop\n      tag_33\n      0x04\n      dup1\n      calldatasize\n      sub\n      dup2\n      add\n      swap1\n      tag_34\n      swap2\n      swap1\n      tag_27\n      jump\t// in\n    tag_34:\n      tag_35\n      jump\t// in\n    tag_33:\n      stop\n        /* \"@openzeppelin/contracts/access/Ownable.sol\":1638:1723  function owner() public view virtual returns (address) {... */\n    tag_7:\n      callvalue\n      dup1\n      iszero\n      tag_36\n      jumpi\n      0x00\n      dup1\n      revert\n    tag_36:\n      pop\n      tag_37\n      tag_38\n      jump\t// in\n    tag_37:\n      mload(0x40)\n      tag_39\n      swap2\n      swap1\n      tag_40\n      jump\t// in\n    tag_39:\n      mload(0x40)\n      dup1\n      swap2\n      sub\n      swap1\n      return\n        /* \"LdEduProgram.sol\":1722:1750  uint256 public nextProgramId */\n    tag_8:\n      callvalue\n      dup1\n      iszero\n      tag_41\n      jumpi\n      0x00\n      dup1\n      revert\n    tag_41:\n      pop\n      tag_42\n      tag_43\n      jump\t// in\n    tag_42:\n      mload(0x40)\n      tag_44\n      swap2\n      swap1\n      tag_45\n      jump\t// in\n    tag_44:\n      mload(0x40)\n      dup1\n      swap2\n      sub\n      swap1\n      return\n        /* \"LdEduProgram.sol\":2460:3331  function createEduProgram(... */\n    tag_9:\n      tag_46\n      0x04\n      dup1\n      calldatasize\n      sub\n      dup2\n      add\n      swap1\n      tag_47\n      swap2\n      swap1\n      tag_48\n      jump\t// in\n    tag_47:\n      tag_49\n      jump\t// in\n    tag_46:\n      stop\n        /* \"LdEduProgram.sol\":7097:7174  function getFee() external view returns (uint256) {... */\n    tag_10:\n      callvalue\n      dup1\n      iszero\n      tag_50\n      jumpi\n      0x00\n      dup1\n      revert\n    tag_50:\n      pop\n      tag_51\n      tag_52\n      jump\t// in\n    tag_51:\n      mload(0x40)\n      tag_53\n      swap2\n      swap1\n      tag_45\n      jump\t// in\n    tag_53:\n      mload(0x40)\n      dup1\n      swap2\n      sub\n      swap1\n      return\n        /* \"LdEduProgram.sol\":1667:1716  mapping(uint256 => EduProgram) public eduPrograms */\n    tag_11:\n      callvalue\n      dup1\n      iszero\n      tag_54\n      jumpi\n      0x00\n      dup1\n      revert\n    tag_54:\n      pop\n      tag_55\n      0x04\n      dup1\n      calldatasize\n      sub\n      dup2\n      add\n      swap1\n      tag_56\n      swap2\n      swap1\n      tag_27\n      jump\t// in\n    tag_56:\n      tag_57\n      jump\t// in\n    tag_55:\n      mload(0x40)\n      tag_58\n      swap11\n      swap10\n      swap9\n      swap8\n      swap7\n      swap6\n      swap5\n      swap4\n      swap3\n      swap2\n      swap1\n      tag_59\n      jump\t// in\n    tag_58:\n      mload(0x40)\n      dup1\n      swap2\n      sub\n      swap1\n      return\n        /* \"@openzeppelin/contracts/access/Ownable.sol\":2543:2758  function transferOwnership(address newOwner) public virtual onlyOwner {... */\n    tag_12:\n      callvalue\n      dup1\n      iszero\n      tag_60\n      jumpi\n      0x00\n      dup1\n      revert\n    tag_60:\n      pop\n      tag_61\n      0x04\n      dup1\n      calldatasize\n      sub\n      dup2\n      add\n      swap1\n      tag_62\n      swap2\n      swap1\n      tag_63\n      jump\t// in\n    tag_62:\n      tag_64\n      jump\t// in\n    tag_61:\n      stop\n        /* \"LdEduProgram.sol\":5597:6207  function reclaimFunds(uint256 programId) external nonReentrant {... */\n    tag_13:\n      callvalue\n      dup1\n      iszero\n      tag_65\n      jumpi\n      0x00\n      dup1\n      revert\n    tag_65:\n      pop\n      tag_66\n      0x04\n      dup1\n      calldatasize\n      sub\n      dup2\n      add\n      swap1\n      tag_67\n      swap2\n      swap1\n      tag_27\n      jump\t// in\n    tag_67:\n      tag_68\n      jump\t// in\n    tag_66:\n      stop\n        /* \"LdEduProgram.sol\":3686:4178  function approveProgram(uint256 programId, address _builder) external {... */\n    tag_19:\n        /* \"LdEduProgram.sol\":3766:3792  EduProgram storage program */\n      0x00\n        /* \"LdEduProgram.sol\":3795:3806  eduPrograms */\n      0x02\n        /* \"LdEduProgram.sol\":3795:3817  eduPrograms[programId] */\n      0x00\n        /* \"LdEduProgram.sol\":3807:3816  programId */\n      dup5\n        /* \"LdEduProgram.sol\":3795:3817  eduPrograms[programId] */\n      dup2\n      mstore\n      0x20\n      add\n      swap1\n      dup2\n      mstore\n      0x20\n      add\n      0x00\n      keccak256\n        /* \"LdEduProgram.sol\":3766:3817  EduProgram storage program = eduPrograms[programId] */\n      swap1\n      pop\n        /* \"LdEduProgram.sol\":3849:3856  program */\n      dup1\n        /* \"LdEduProgram.sol\":3849:3866  program.validator */\n      0x06\n      add\n      0x00\n      swap1\n      sload\n      swap1\n      0x0100\n      exp\n      swap1\n      div\n      0xffffffffffffffffffffffffffffffffffffffff\n      and\n        /* \"LdEduProgram.sol\":3835:3866  msg.sender == program.validator */\n      0xffffffffffffffffffffffffffffffffffffffff\n      and\n        /* \"LdEduProgram.sol\":3835:3845  msg.sender */\n      caller\n        /* \"LdEduProgram.sol\":3835:3866  msg.sender == program.validator */\n      0xffffffffffffffffffffffffffffffffffffffff\n      and\n      eq\n        /* \"LdEduProgram.sol\":3827:3907  require(msg.sender == program.validator, \"You don't have approval permissions.\") */\n      tag_70\n      jumpi\n      mload(0x40)\n      0x08c379a000000000000000000000000000000000000000000000000000000000\n      dup2\n      mstore\n      0x04\n      add\n      tag_71\n      swap1\n      tag_72\n      jump\t// in\n    tag_71:\n      mload(0x40)\n      dup1\n      swap2\n      sub\n      swap1\n      revert\n    tag_70:\n        /* \"LdEduProgram.sol\":3944:3951  program */\n      dup1\n        /* \"LdEduProgram.sol\":3944:3959  program.endTime */\n      0x04\n      add\n      sload\n        /* \"LdEduProgram.sol\":3925:3940  block.timestamp */\n      timestamp\n        /* \"LdEduProgram.sol\":3925:3959  block.timestamp <= program.endTime */\n      gt\n      iszero\n        /* \"LdEduProgram.sol\":3917:3995  require(block.timestamp <= program.endTime, \"The program has already ended. \") */\n      tag_73\n      jumpi\n      mload(0x40)\n      0x08c379a000000000000000000000000000000000000000000000000000000000\n      dup2\n      mstore\n      0x04\n      add\n      tag_74\n      swap1\n      tag_75\n      jump\t// in\n    tag_74:\n      mload(0x40)\n      dup1\n      swap2\n      sub\n      swap1\n      revert\n    tag_73:\n        /* \"LdEduProgram.sol\":4014:4021  program */\n      dup1\n        /* \"LdEduProgram.sol\":4014:4029  program.approve */\n      0x06\n      add\n      0x14\n      swap1\n      sload\n      swap1\n      0x0100\n      exp\n      swap1\n      div\n      0xff\n      and\n        /* \"LdEduProgram.sol\":4013:4029  !program.approve */\n      iszero\n        /* \"LdEduProgram.sol\":4005:4051  require(!program.approve, \"Already approved.\") */\n      tag_76\n      jumpi\n      mload(0x40)\n      0x08c379a000000000000000000000000000000000000000000000000000000000\n      dup2\n      mstore\n      0x04\n      add\n      tag_77\n      swap1\n      tag_78\n      jump\t// in\n    tag_77:\n      mload(0x40)\n      dup1\n      swap2\n      sub\n      swap1\n      revert\n    tag_76:\n        /* \"LdEduProgram.sol\":4079:4083  true */\n      0x01\n        /* \"LdEduProgram.sol\":4061:4068  program */\n      dup2\n        /* \"LdEduProgram.sol\":4061:4076  program.approve */\n      0x06\n      add\n      0x14\n        /* \"LdEduProgram.sol\":4061:4083  program.approve = true */\n      0x0100\n      exp\n      dup2\n      sload\n      dup2\n      0xff\n      mul\n      not\n      and\n      swap1\n      dup4\n      iszero\n      iszero\n      mul\n      or\n      swap1\n      sstore\n      pop\n        /* \"LdEduProgram.sol\":4111:4119  _builder */\n      dup2\n        /* \"LdEduProgram.sol\":4093:4100  program */\n      dup2\n        /* \"LdEduProgram.sol\":4093:4108  program.builder */\n      0x07\n      add\n      0x00\n        /* \"LdEduProgram.sol\":4093:4119  program.builder = _builder */\n      0x0100\n      exp\n      dup2\n      sload\n      dup2\n      0xffffffffffffffffffffffffffffffffffffffff\n      mul\n      not\n      and\n      swap1\n      dup4\n      0xffffffffffffffffffffffffffffffffffffffff\n      and\n      mul\n      or\n      swap1\n      sstore\n      pop\n        /* \"LdEduProgram.sol\":4151:4160  programId */\n      dup3\n        /* \"LdEduProgram.sol\":4135:4171  ProgramApproved(programId, _builder) */\n      0x16bb9e8931574f3f4aa3b7bef9f5b8221823f5f803167e8ac21f9f7c8f931510\n        /* \"LdEduProgram.sol\":4162:4170  _builder */\n      dup4\n        /* \"LdEduProgram.sol\":4135:4171  ProgramApproved(programId, _builder) */\n      mload(0x40)\n      tag_79\n      swap2\n      swap1\n      tag_40\n      jump\t// in\n    tag_79:\n      mload(0x40)\n      dup1\n      swap2\n      sub\n      swap1\n      log2\n        /* \"LdEduProgram.sol\":3756:4178  {... */\n      pop\n        /* \"LdEduProgram.sol\":3686:4178  function approveProgram(uint256 programId, address _builder) external {... */\n      pop\n      pop\n      jump\t// out\n        /* \"LdEduProgram.sol\":6410:6737  function updateValidator(uint256 programId, address newValidator) external {... */\n    tag_23:\n        /* \"LdEduProgram.sol\":6495:6521  EduProgram storage program */\n      0x00\n        /* \"LdEduProgram.sol\":6524:6535  eduPrograms */\n      0x02\n        /* \"LdEduProgram.sol\":6524:6546  eduPrograms[programId] */\n      0x00\n        /* \"LdEduProgram.sol\":6536:6545  programId */\n      dup5\n        /* \"LdEduProgram.sol\":6524:6546  eduPrograms[programId] */\n      dup2\n      mstore\n      0x20\n      add\n      swap1\n      dup2\n      mstore\n      0x20\n      add\n      0x00\n      keccak256\n        /* \"LdEduProgram.sol\":6495:6546  EduProgram storage program = eduPrograms[programId] */\n      swap1\n      pop\n        /* \"LdEduProgram.sol\":6578:6585  program */\n      dup1\n        /* \"LdEduProgram.sol\":6578:6591  program.maker */\n      0x05\n      add\n      0x00\n      swap1\n      sload\n      swap1\n      0x0100\n      exp\n      swap1\n      div\n      0xffffffffffffffffffffffffffffffffffffffff\n      and\n        /* \"LdEduProgram.sol\":6564:6591  msg.sender == program.maker */\n      0xffffffffffffffffffffffffffffffffffffffff\n      and\n        /* \"LdEduProgram.sol\":6564:6574  msg.sender */\n      caller\n        /* \"LdEduProgram.sol\":6564:6591  msg.sender == program.maker */\n      0xffffffffffffffffffffffffffffffffffffffff\n      and\n      eq\n        /* \"LdEduProgram.sol\":6556:6631  require(msg.sender == program.maker, \"Only creators can change approvers.\") */\n      tag_81\n      jumpi\n      mload(0x40)\n      0x08c379a000000000000000000000000000000000000000000000000000000000\n      dup2\n      mstore\n      0x04\n      add\n      tag_82\n      swap1\n      tag_83\n      jump\t// in\n    tag_82:\n      mload(0x40)\n      dup1\n      swap2\n      sub\n      swap1\n      revert\n    tag_81:\n        /* \"LdEduProgram.sol\":6661:6673  newValidator */\n      dup2\n        /* \"LdEduProgram.sol\":6641:6648  program */\n      dup2\n        /* \"LdEduProgram.sol\":6641:6658  program.validator */\n      0x06\n      add\n      0x00\n        /* \"LdEduProgram.sol\":6641:6673  program.validator = newValidator */\n      0x0100\n      exp\n      dup2\n      sload\n      dup2\n      0xffffffffffffffffffffffffffffffffffffffff\n      mul\n      not\n      and\n      swap1\n      dup4\n      0xffffffffffffffffffffffffffffffffffffffff\n      and\n      mul\n      or\n      swap1\n      sstore\n      pop\n        /* \"LdEduProgram.sol\":6706:6715  programId */\n      dup3\n        /* \"LdEduProgram.sol\":6689:6730  ValidatorUpdated(programId, newValidator) */\n      0x10ad6d1a971b78bb9a3a6d20d7d6e9afe165f4d8b812ffb74200382052343db1\n        /* \"LdEduProgram.sol\":6717:6729  newValidator */\n      dup4\n        /* \"LdEduProgram.sol\":6689:6730  ValidatorUpdated(programId, newValidator) */\n      mload(0x40)\n      tag_84\n      swap2\n      swap1\n      tag_40\n      jump\t// in\n    tag_84:\n      mload(0x40)\n      dup1\n      swap2\n      sub\n      swap1\n      log2\n        /* \"LdEduProgram.sol\":6485:6737  {... */\n      pop\n        /* \"LdEduProgram.sol\":6410:6737  function updateValidator(uint256 programId, address newValidator) external {... */\n      pop\n      pop\n      jump\t// out\n        /* \"LdEduProgram.sol\":6903:7010  function setFee(uint256 _fee) external onlyOwner {... */\n    tag_28:\n        /* \"@openzeppelin/contracts/access/Ownable.sol\":1531:1544  _checkOwner() */\n      tag_86\n        /* \"@openzeppelin/contracts/access/Ownable.sol\":1531:1542  _checkOwner */\n      tag_87\n        /* \"@openzeppelin/contracts/access/Ownable.sol\":1531:1544  _checkOwner() */\n      jump\t// in\n    tag_86:\n        /* \"LdEduProgram.sol\":6968:6972  _fee */\n      dup1\n        /* \"LdEduProgram.sol\":6962:6965  fee */\n      0x04\n        /* \"LdEduProgram.sol\":6962:6972  fee = _fee */\n      dup2\n      swap1\n      sstore\n      pop\n        /* \"LdEduProgram.sol\":6987:7003  FeeUpdated(_fee) */\n      0x8c4d35e54a3f2ef1134138fd8ea3daee6a3c89e10d2665996babdf70261e2c76\n        /* \"LdEduProgram.sol\":6998:7002  _fee */\n      dup2\n        /* \"LdEduProgram.sol\":6987:7003  FeeUpdated(_fee) */\n      mload(0x40)\n      tag_89\n      swap2\n      swap1\n      tag_45\n      jump\t// in\n    tag_89:\n      mload(0x40)\n      dup1\n      swap2\n      sub\n      swap1\n      log1\n        /* \"LdEduProgram.sol\":6903:7010  function setFee(uint256 _fee) external onlyOwner {... */\n      pop\n      jump\t// out\n        /* \"@openzeppelin/contracts/access/Ownable.sol\":2293:2394  function renounceOwnership() public virtual onlyOwner {... */\n    tag_31:\n        /* \"@openzeppelin/contracts/access/Ownable.sol\":1531:1544  _checkOwner() */\n      tag_91\n        /* \"@openzeppelin/contracts/access/Ownable.sol\":1531:1542  _checkOwner */\n      tag_87\n        /* \"@openzeppelin/contracts/access/Ownable.sol\":1531:1544  _checkOwner() */\n      jump\t// in\n    tag_91:\n        /* \"@openzeppelin/contracts/access/Ownable.sol\":2357:2387  _transferOwnership(address(0)) */\n      tag_93\n        /* \"@openzeppelin/contracts/access/Ownable.sol\":2384:2385  0 */\n      0x00\n        /* \"@openzeppelin/contracts/access/Ownable.sol\":2357:2375  _transferOwnership */\n      tag_94\n        /* \"@openzeppelin/contracts/access/Ownable.sol\":2357:2387  _transferOwnership(address(0)) */\n      jump\t// in\n    tag_93:\n        /* \"@openzeppelin/contracts/access/Ownable.sol\":2293:2394  function renounceOwnership() public virtual onlyOwner {... */\n      jump\t// out\n        /* \"LdEduProgram.sol\":4505:5401  function claimGrants(uint256 programId) external nonReentrant {... */\n    tag_35:\n        /* \"@openzeppelin/contracts/security/ReentrancyGuard.sol\":2261:2282  _nonReentrantBefore() */\n      tag_96\n        /* \"@openzeppelin/contracts/security/ReentrancyGuard.sol\":2261:2280  _nonReentrantBefore */\n      tag_97\n        /* \"@openzeppelin/contracts/security/ReentrancyGuard.sol\":2261:2282  _nonReentrantBefore() */\n      jump\t// in\n    tag_96:\n        /* \"LdEduProgram.sol\":4577:4603  EduProgram storage program */\n      0x00\n        /* \"LdEduProgram.sol\":4606:4617  eduPrograms */\n      0x02\n        /* \"LdEduProgram.sol\":4606:4628  eduPrograms[programId] */\n      0x00\n        /* \"LdEduProgram.sol\":4618:4627  programId */\n      dup4\n        /* \"LdEduProgram.sol\":4606:4628  eduPrograms[programId] */\n      dup2\n      mstore\n      0x20\n      add\n      swap1\n      dup2\n      mstore\n      0x20\n      add\n      0x00\n      keccak256\n        /* \"LdEduProgram.sol\":4577:4628  EduProgram storage program = eduPrograms[programId] */\n      swap1\n      pop\n        /* \"LdEduProgram.sol\":4646:4653  program */\n      dup1\n        /* \"LdEduProgram.sol\":4646:4661  program.approve */\n      0x06\n      add\n      0x14\n      swap1\n      sload\n      swap1\n      0x0100\n      exp\n      swap1\n      div\n      0xff\n      and\n        /* \"LdEduProgram.sol\":4638:4694  require(program.approve, \"The program is not approved.\") */\n      tag_99\n      jumpi\n      mload(0x40)\n      0x08c379a000000000000000000000000000000000000000000000000000000000\n      dup2\n      mstore\n      0x04\n      add\n      tag_100\n      swap1\n      tag_101\n      jump\t// in\n    tag_100:\n      mload(0x40)\n      dup1\n      swap2\n      sub\n      swap1\n      revert\n    tag_99:\n        /* \"LdEduProgram.sol\":4713:4720  program */\n      dup1\n        /* \"LdEduProgram.sol\":4713:4728  program.claimed */\n      0x06\n      add\n      0x15\n      swap1\n      sload\n      swap1\n      0x0100\n      exp\n      swap1\n      div\n      0xff\n      and\n        /* \"LdEduProgram.sol\":4712:4728  !program.claimed */\n      iszero\n        /* \"LdEduProgram.sol\":4704:4749  require(!program.claimed, \"Already claimed.\") */\n      tag_102\n      jumpi\n      mload(0x40)\n      0x08c379a000000000000000000000000000000000000000000000000000000000\n      dup2\n      mstore\n      0x04\n      add\n      tag_103\n      swap1\n      tag_104\n      jump\t// in\n    tag_103:\n      mload(0x40)\n      dup1\n      swap2\n      sub\n      swap1\n      revert\n    tag_102:\n        /* \"LdEduProgram.sol\":4781:4788  program */\n      dup1\n        /* \"LdEduProgram.sol\":4781:4796  program.builder */\n      0x07\n      add\n      0x00\n      swap1\n      sload\n      swap1\n      0x0100\n      exp\n      swap1\n      div\n      0xffffffffffffffffffffffffffffffffffffffff\n      and\n        /* \"LdEduProgram.sol\":4767:4796  msg.sender == program.builder */\n      0xffffffffffffffffffffffffffffffffffffffff\n      and\n        /* \"LdEduProgram.sol\":4767:4777  msg.sender */\n      caller\n        /* \"LdEduProgram.sol\":4767:4796  msg.sender == program.builder */\n      0xffffffffffffffffffffffffffffffffffffffff\n      and\n      eq\n        /* \"LdEduProgram.sol\":4759:4837  require(msg.sender == program.builder, \"You do not have permission to claim.\") */\n      tag_105\n      jumpi\n      mload(0x40)\n      0x08c379a000000000000000000000000000000000000000000000000000000000\n      dup2\n      mstore\n      0x04\n      add\n      tag_106\n      swap1\n      tag_107\n      jump\t// in\n    tag_106:\n      mload(0x40)\n      dup1\n      swap2\n      sub\n      swap1\n      revert\n    tag_105:\n        /* \"LdEduProgram.sol\":4874:4881  program */\n      dup1\n        /* \"LdEduProgram.sol\":4874:4891  program.startTime */\n      0x03\n      add\n      sload\n        /* \"LdEduProgram.sol\":4855:4870  block.timestamp */\n      timestamp\n        /* \"LdEduProgram.sol\":4855:4891  block.timestamp >= program.startTime */\n      lt\n      iszero\n        /* \"LdEduProgram.sol\":4847:4928  require(block.timestamp >= program.startTime, \"The program has not started yet.\") */\n      tag_108\n      jumpi\n      mload(0x40)\n      0x08c379a000000000000000000000000000000000000000000000000000000000\n      dup2\n      mstore\n      0x04\n      add\n      tag_109\n      swap1\n      tag_110\n      jump\t// in\n    tag_109:\n      mload(0x40)\n      dup1\n      swap2\n      sub\n      swap1\n      revert\n    tag_108:\n        /* \"LdEduProgram.sol\":4965:4972  program */\n      dup1\n        /* \"LdEduProgram.sol\":4965:4980  program.endTime */\n      0x04\n      add\n      sload\n        /* \"LdEduProgram.sol\":4946:4961  block.timestamp */\n      timestamp\n        /* \"LdEduProgram.sol\":4946:4980  block.timestamp <= program.endTime */\n      gt\n      iszero\n        /* \"LdEduProgram.sol\":4938:5023  require(block.timestamp <= program.endTime, \"The program billing period has passed.\") */\n      tag_111\n      jumpi\n      mload(0x40)\n      0x08c379a000000000000000000000000000000000000000000000000000000000\n      dup2\n      mstore\n      0x04\n      add\n      tag_112\n      swap1\n      tag_113\n      jump\t// in\n    tag_112:\n      mload(0x40)\n      dup1\n      swap2\n      sub\n      swap1\n      revert\n    tag_111:\n        /* \"LdEduProgram.sol\":5052:5056  true */\n      0x01\n        /* \"LdEduProgram.sol\":5034:5041  program */\n      dup2\n        /* \"LdEduProgram.sol\":5034:5049  program.claimed */\n      0x06\n      add\n      0x15\n        /* \"LdEduProgram.sol\":5034:5056  program.claimed = true */\n      0x0100\n      exp\n      dup2\n      sload\n      dup2\n      0xff\n      mul\n      not\n      and\n      swap1\n      dup4\n      iszero\n      iszero\n      mul\n      or\n      swap1\n      sstore\n      pop\n        /* \"LdEduProgram.sol\":5067:5081  uint256 payout */\n      0x00\n        /* \"LdEduProgram.sol\":5084:5091  program */\n      dup2\n        /* \"LdEduProgram.sol\":5084:5097  program.price */\n      0x02\n      add\n      sload\n        /* \"LdEduProgram.sol\":5067:5097  uint256 payout = program.price */\n      swap1\n      pop\n        /* \"LdEduProgram.sol\":5117:5118  0 */\n      0x00\n        /* \"LdEduProgram.sol\":5111:5114  fee */\n      sload(0x04)\n        /* \"LdEduProgram.sol\":5111:5118  fee > 0 */\n      gt\n        /* \"LdEduProgram.sol\":5107:5278  if (fee > 0) {... */\n      iszero\n      tag_114\n      jumpi\n        /* \"LdEduProgram.sol\":5134:5151  uint256 feeAmount */\n      0x00\n        /* \"LdEduProgram.sol\":5171:5176  10000 */\n      0x2710\n        /* \"LdEduProgram.sol\":5164:5167  fee */\n      sload(0x04)\n        /* \"LdEduProgram.sol\":5155:5161  payout */\n      dup4\n        /* \"LdEduProgram.sol\":5155:5167  payout * fee */\n      tag_115\n      swap2\n      swap1\n      tag_116\n      jump\t// in\n    tag_115:\n        /* \"LdEduProgram.sol\":5154:5176  (payout * fee) / 10000 */\n      tag_117\n      swap2\n      swap1\n      tag_118\n      jump\t// in\n    tag_117:\n        /* \"LdEduProgram.sol\":5134:5176  uint256 feeAmount = (payout * fee) / 10000 */\n      swap1\n      pop\n        /* \"LdEduProgram.sol\":5208:5217  feeAmount */\n      dup1\n        /* \"LdEduProgram.sol\":5199:5205  payout */\n      dup3\n        /* \"LdEduProgram.sol\":5199:5217  payout - feeAmount */\n      tag_119\n      swap2\n      swap1\n      tag_120\n      jump\t// in\n    tag_119:\n        /* \"LdEduProgram.sol\":5190:5217  payout = payout - feeAmount */\n      swap2\n      pop\n        /* \"LdEduProgram.sol\":5239:5246  owner() */\n      tag_121\n        /* \"LdEduProgram.sol\":5239:5244  owner */\n      tag_38\n        /* \"LdEduProgram.sol\":5239:5246  owner() */\n      jump\t// in\n    tag_121:\n        /* \"LdEduProgram.sol\":5231:5256  payable(owner()).transfer */\n      0xffffffffffffffffffffffffffffffffffffffff\n      and\n        /* \"LdEduProgram.sol\":5231:5267  payable(owner()).transfer(feeAmount) */\n      0x08fc\n        /* \"LdEduProgram.sol\":5257:5266  feeAmount */\n      dup3\n        /* \"LdEduProgram.sol\":5231:5267  payable(owner()).transfer(feeAmount) */\n      swap1\n      dup2\n      iszero\n      mul\n      swap1\n      mload(0x40)\n      0x00\n      mload(0x40)\n      dup1\n      dup4\n      sub\n      dup2\n      dup6\n      dup9\n      dup9\n      call\n      swap4\n      pop\n      pop\n      pop\n      pop\n      iszero\n      dup1\n      iszero\n      tag_123\n      jumpi\n      returndatasize\n      0x00\n      dup1\n      returndatacopy\n      revert(0x00, returndatasize)\n    tag_123:\n      pop\n        /* \"LdEduProgram.sol\":5120:5278  {... */\n      pop\n        /* \"LdEduProgram.sol\":5107:5278  if (fee > 0) {... */\n    tag_114:\n        /* \"LdEduProgram.sol\":5295:5302  program */\n      dup2\n        /* \"LdEduProgram.sol\":5295:5310  program.builder */\n      0x07\n      add\n      0x00\n      swap1\n      sload\n      swap1\n      0x0100\n      exp\n      swap1\n      div\n      0xffffffffffffffffffffffffffffffffffffffff\n      and\n        /* \"LdEduProgram.sol\":5287:5320  payable(program.builder).transfer */\n      0xffffffffffffffffffffffffffffffffffffffff\n      and\n        /* \"LdEduProgram.sol\":5287:5328  payable(program.builder).transfer(payout) */\n      0x08fc\n        /* \"LdEduProgram.sol\":5321:5327  payout */\n      dup3\n        /* \"LdEduProgram.sol\":5287:5328  payable(program.builder).transfer(payout) */\n      swap1\n      dup2\n      iszero\n      mul\n      swap1\n      mload(0x40)\n      0x00\n      mload(0x40)\n      dup1\n      dup4\n      sub\n      dup2\n      dup6\n      dup9\n      dup9\n      call\n      swap4\n      pop\n      pop\n      pop\n      pop\n      iszero\n      dup1\n      iszero\n      tag_125\n      jumpi\n      returndatasize\n      0x00\n      dup1\n      returndatacopy\n      revert(0x00, returndatasize)\n    tag_125:\n      pop\n        /* \"LdEduProgram.sol\":5359:5368  programId */\n      dup3\n        /* \"LdEduProgram.sol\":5344:5394  ProgramClaimed(programId, program.builder, payout) */\n      0x7099040ff4abf6b015bd1004cbf11ec796c3d4abcaec3514db1c93599297d39f\n        /* \"LdEduProgram.sol\":5370:5377  program */\n      dup4\n        /* \"LdEduProgram.sol\":5370:5385  program.builder */\n      0x07\n      add\n      0x00\n      swap1\n      sload\n      swap1\n      0x0100\n      exp\n      swap1\n      div\n      0xffffffffffffffffffffffffffffffffffffffff\n      and\n        /* \"LdEduProgram.sol\":5387:5393  payout */\n      dup4\n        /* \"LdEduProgram.sol\":5344:5394  ProgramClaimed(programId, program.builder, payout) */\n      mload(0x40)\n      tag_126\n      swap3\n      swap2\n      swap1\n      tag_127\n      jump\t// in\n    tag_126:\n      mload(0x40)\n      dup1\n      swap2\n      sub\n      swap1\n      log2\n        /* \"LdEduProgram.sol\":4567:5401  {... */\n      pop\n      pop\n        /* \"@openzeppelin/contracts/security/ReentrancyGuard.sol\":2303:2323  _nonReentrantAfter() */\n      tag_128\n        /* \"@openzeppelin/contracts/security/ReentrancyGuard.sol\":2303:2321  _nonReentrantAfter */\n      tag_129\n        /* \"@openzeppelin/contracts/security/ReentrancyGuard.sol\":2303:2323  _nonReentrantAfter() */\n      jump\t// in\n    tag_128:\n        /* \"LdEduProgram.sol\":4505:5401  function claimGrants(uint256 programId) external nonReentrant {... */\n      pop\n      jump\t// out\n        /* \"@openzeppelin/contracts/access/Ownable.sol\":1638:1723  function owner() public view virtual returns (address) {... */\n    tag_38:\n        /* \"@openzeppelin/contracts/access/Ownable.sol\":1684:1691  address */\n      0x00\n        /* \"@openzeppelin/contracts/access/Ownable.sol\":1710:1716  _owner */\n      dup1\n      0x00\n      swap1\n      sload\n      swap1\n      0x0100\n      exp\n      swap1\n      div\n      0xffffffffffffffffffffffffffffffffffffffff\n      and\n        /* \"@openzeppelin/contracts/access/Ownable.sol\":1703:1716  return _owner */\n      swap1\n      pop\n        /* \"@openzeppelin/contracts/access/Ownable.sol\":1638:1723  function owner() public view virtual returns (address) {... */\n      swap1\n      jump\t// out\n        /* \"LdEduProgram.sol\":1722:1750  uint256 public nextProgramId */\n    tag_43:\n      sload(0x03)\n      dup2\n      jump\t// out\n        /* \"LdEduProgram.sol\":2460:3331  function createEduProgram(... */\n    tag_49:\n        /* \"LdEduProgram.sol\":2675:2681  _price */\n      dup4\n        /* \"LdEduProgram.sol\":2662:2671  msg.value */\n      callvalue\n        /* \"LdEduProgram.sol\":2662:2681  msg.value == _price */\n      eq\n        /* \"LdEduProgram.sol\":2654:2731  require(msg.value == _price, \"The ETH sent does not match the program price\") */\n      tag_132\n      jumpi\n      mload(0x40)\n      0x08c379a000000000000000000000000000000000000000000000000000000000\n      dup2\n      mstore\n      0x04\n      add\n      tag_133\n      swap1\n      tag_134\n      jump\t// in\n    tag_133:\n      mload(0x40)\n      dup1\n      swap2\n      sub\n      swap1\n      revert\n    tag_132:\n        /* \"LdEduProgram.sol\":2762:2770  _endTime */\n      dup2\n        /* \"LdEduProgram.sol\":2749:2759  _startTime */\n      dup4\n        /* \"LdEduProgram.sol\":2749:2770  _startTime < _endTime */\n      lt\n        /* \"LdEduProgram.sol\":2741:2824  require(_startTime < _endTime, \"The Start time must be earlier than the end time.\") */\n      tag_135\n      jumpi\n      mload(0x40)\n      0x08c379a000000000000000000000000000000000000000000000000000000000\n      dup2\n      mstore\n      0x04\n      add\n      tag_136\n      swap1\n      tag_137\n      jump\t// in\n    tag_136:\n      mload(0x40)\n      dup1\n      swap2\n      sub\n      swap1\n      revert\n    tag_135:\n        /* \"LdEduProgram.sol\":2834:2851  uint256 programId */\n      0x00\n        /* \"LdEduProgram.sol\":2854:2867  nextProgramId */\n      sload(0x03)\n        /* \"LdEduProgram.sol\":2834:2867  uint256 programId = nextProgramId */\n      swap1\n      pop\n        /* \"LdEduProgram.sol\":2905:3227  EduProgram({... */\n      mload(0x40)\n      dup1\n      0x0140\n      add\n      0x40\n      mstore\n      dup1\n        /* \"LdEduProgram.sol\":2934:2943  programId */\n      dup3\n        /* \"LdEduProgram.sol\":2905:3227  EduProgram({... */\n      dup2\n      mstore\n      0x20\n      add\n        /* \"LdEduProgram.sol\":2963:2968  _name */\n      dup8\n        /* \"LdEduProgram.sol\":2905:3227  EduProgram({... */\n      dup2\n      mstore\n      0x20\n      add\n        /* \"LdEduProgram.sol\":2989:2995  _price */\n      dup7\n        /* \"LdEduProgram.sol\":2905:3227  EduProgram({... */\n      dup2\n      mstore\n      0x20\n      add\n        /* \"LdEduProgram.sol\":3020:3030  _startTime */\n      dup6\n        /* \"LdEduProgram.sol\":2905:3227  EduProgram({... */\n      dup2\n      mstore\n      0x20\n      add\n        /* \"LdEduProgram.sol\":3053:3061  _endTime */\n      dup5\n        /* \"LdEduProgram.sol\":2905:3227  EduProgram({... */\n      dup2\n      mstore\n      0x20\n      add\n        /* \"LdEduProgram.sol\":3082:3092  msg.sender */\n      caller\n        /* \"LdEduProgram.sol\":2905:3227  EduProgram({... */\n      0xffffffffffffffffffffffffffffffffffffffff\n      and\n      dup2\n      mstore\n      0x20\n      add\n        /* \"LdEduProgram.sol\":3117:3127  _validator */\n      dup4\n        /* \"LdEduProgram.sol\":2905:3227  EduProgram({... */\n      0xffffffffffffffffffffffffffffffffffffffff\n      and\n      dup2\n      mstore\n      0x20\n      add\n        /* \"LdEduProgram.sol\":3150:3155  false */\n      0x00\n        /* \"LdEduProgram.sol\":2905:3227  EduProgram({... */\n      iszero\n      iszero\n      dup2\n      mstore\n      0x20\n      add\n        /* \"LdEduProgram.sol\":3178:3183  false */\n      0x00\n        /* \"LdEduProgram.sol\":2905:3227  EduProgram({... */\n      iszero\n      iszero\n      dup2\n      mstore\n      0x20\n      add\n        /* \"LdEduProgram.sol\":3214:3215  0 */\n      0x00\n        /* \"LdEduProgram.sol\":2905:3227  EduProgram({... */\n      0xffffffffffffffffffffffffffffffffffffffff\n      and\n      dup2\n      mstore\n      pop\n        /* \"LdEduProgram.sol\":2880:2891  eduPrograms */\n      0x02\n        /* \"LdEduProgram.sol\":2880:2902  eduPrograms[programId] */\n      0x00\n        /* \"LdEduProgram.sol\":2892:2901  programId */\n      dup4\n        /* \"LdEduProgram.sol\":2880:2902  eduPrograms[programId] */\n      dup2\n      mstore\n      0x20\n      add\n      swap1\n      dup2\n      mstore\n      0x20\n      add\n      0x00\n      keccak256\n        /* \"LdEduProgram.sol\":2880:3227  eduPrograms[programId] = EduProgram({... */\n      0x00\n      dup3\n      add\n      mload\n      dup2\n      0x00\n      add\n      sstore\n      0x20\n      dup3\n      add\n      mload\n      dup2\n      0x01\n      add\n      swap1\n      dup2\n      tag_138\n      swap2\n      swap1\n      tag_139\n      jump\t// in\n    tag_138:\n      pop\n      0x40\n      dup3\n      add\n      mload\n      dup2\n      0x02\n      add\n      sstore\n      0x60\n      dup3\n      add\n      mload\n      dup2\n      0x03\n      add\n      sstore\n      0x80\n      dup3\n      add\n      mload\n      dup2\n      0x04\n      add\n      sstore\n      0xa0\n      dup3\n      add\n      mload\n      dup2\n      0x05\n      add\n      exp(0x0100, 0x00)\n      dup2\n      sload\n      dup2\n      0xffffffffffffffffffffffffffffffffffffffff\n      mul\n      not\n      and\n      swap1\n      dup4\n      0xffffffffffffffffffffffffffffffffffffffff\n      and\n      mul\n      or\n      swap1\n      sstore\n      pop\n      0xc0\n      dup3\n      add\n      mload\n      dup2\n      0x06\n      add\n      exp(0x0100, 0x00)\n      dup2\n      sload\n      dup2\n      0xffffffffffffffffffffffffffffffffffffffff\n      mul\n      not\n      and\n      swap1\n      dup4\n      0xffffffffffffffffffffffffffffffffffffffff\n      and\n      mul\n      or\n      swap1\n      sstore\n      pop\n      0xe0\n      dup3\n      add\n      mload\n      dup2\n      0x06\n      add\n      exp(0x0100, 0x14)\n      dup2\n      sload\n      dup2\n      0xff\n      mul\n      not\n      and\n      swap1\n      dup4\n      iszero\n      iszero\n      mul\n      or\n      swap1\n      sstore\n      pop\n      0x0100\n      dup3\n      add\n      mload\n      dup2\n      0x06\n      add\n      exp(0x0100, 0x15)\n      dup2\n      sload\n      dup2\n      0xff\n      mul\n      not\n      and\n      swap1\n      dup4\n      iszero\n      iszero\n      mul\n      or\n      swap1\n      sstore\n      pop\n      0x0120\n      dup3\n      add\n      mload\n      dup2\n      0x07\n      add\n      exp(0x0100, 0x00)\n      dup2\n      sload\n      dup2\n      0xffffffffffffffffffffffffffffffffffffffff\n      mul\n      not\n      and\n      swap1\n      dup4\n      0xffffffffffffffffffffffffffffffffffffffff\n      and\n      mul\n      or\n      swap1\n      sstore\n      pop\n      swap1\n      pop\n      pop\n        /* \"LdEduProgram.sol\":3237:3250  nextProgramId */\n      0x03\n      0x00\n        /* \"LdEduProgram.sol\":3237:3252  nextProgramId++ */\n      dup2\n      sload\n      dup1\n      swap3\n      swap2\n      swap1\n      tag_140\n      swap1\n      tag_141\n      jump\t// in\n    tag_140:\n      swap2\n      swap1\n      pop\n      sstore\n      pop\n        /* \"LdEduProgram.sol\":3305:3315  _validator */\n      dup2\n        /* \"LdEduProgram.sol\":3267:3324  ProgramCreated(programId, msg.sender, _validator, _price) */\n      0xffffffffffffffffffffffffffffffffffffffff\n      and\n        /* \"LdEduProgram.sol\":3293:3303  msg.sender */\n      caller\n        /* \"LdEduProgram.sol\":3267:3324  ProgramCreated(programId, msg.sender, _validator, _price) */\n      0xffffffffffffffffffffffffffffffffffffffff\n      and\n        /* \"LdEduProgram.sol\":3282:3291  programId */\n      dup3\n        /* \"LdEduProgram.sol\":3267:3324  ProgramCreated(programId, msg.sender, _validator, _price) */\n      0x808c887919683a350ed55b3499f97ed7f4093ecc5e131fadb8b075a85457af3a\n        /* \"LdEduProgram.sol\":3317:3323  _price */\n      dup9\n        /* \"LdEduProgram.sol\":3267:3324  ProgramCreated(programId, msg.sender, _validator, _price) */\n      mload(0x40)\n      tag_142\n      swap2\n      swap1\n      tag_45\n      jump\t// in\n    tag_142:\n      mload(0x40)\n      dup1\n      swap2\n      sub\n      swap1\n      log4\n        /* \"LdEduProgram.sol\":2644:3331  {... */\n      pop\n        /* \"LdEduProgram.sol\":2460:3331  function createEduProgram(... */\n      pop\n      pop\n      pop\n      pop\n      pop\n      jump\t// out\n        /* \"LdEduProgram.sol\":7097:7174  function getFee() external view returns (uint256) {... */\n    tag_52:\n        /* \"LdEduProgram.sol\":7138:7145  uint256 */\n      0x00\n        /* \"LdEduProgram.sol\":7164:7167  fee */\n      sload(0x04)\n        /* \"LdEduProgram.sol\":7157:7167  return fee */\n      swap1\n      pop\n        /* \"LdEduProgram.sol\":7097:7174  function getFee() external view returns (uint256) {... */\n      swap1\n      jump\t// out\n        /* \"LdEduProgram.sol\":1667:1716  mapping(uint256 => EduProgram) public eduPrograms */\n    tag_57:\n      mstore(0x20, 0x02)\n      dup1\n      0x00\n      mstore\n      keccak256(0x00, 0x40)\n      0x00\n      swap2\n      pop\n      swap1\n      pop\n      dup1\n      0x00\n      add\n      sload\n      swap1\n      dup1\n      0x01\n      add\n      dup1\n      sload\n      tag_144\n      swap1\n      tag_145\n      jump\t// in\n    tag_144:\n      dup1\n      0x1f\n      add\n      0x20\n      dup1\n      swap2\n      div\n      mul\n      0x20\n      add\n      mload(0x40)\n      swap1\n      dup2\n      add\n      0x40\n      mstore\n      dup1\n      swap3\n      swap2\n      swap1\n      dup2\n      dup2\n      mstore\n      0x20\n      add\n      dup3\n      dup1\n      sload\n      tag_146\n      swap1\n      tag_145\n      jump\t// in\n    tag_146:\n      dup1\n      iszero\n      tag_147\n      jumpi\n      dup1\n      0x1f\n      lt\n      tag_148\n      jumpi\n      0x0100\n      dup1\n      dup4\n      sload\n      div\n      mul\n      dup4\n      mstore\n      swap2\n      0x20\n      add\n      swap2\n      jump(tag_147)\n    tag_148:\n      dup3\n      add\n      swap2\n      swap1\n      0x00\n      mstore\n      keccak256(0x00, 0x20)\n      swap1\n    tag_149:\n      dup2\n      sload\n      dup2\n      mstore\n      swap1\n      0x01\n      add\n      swap1\n      0x20\n      add\n      dup1\n      dup4\n      gt\n      tag_149\n      jumpi\n      dup3\n      swap1\n      sub\n      0x1f\n      and\n      dup3\n      add\n      swap2\n    tag_147:\n      pop\n      pop\n      pop\n      pop\n      pop\n      swap1\n      dup1\n      0x02\n      add\n      sload\n      swap1\n      dup1\n      0x03\n      add\n      sload\n      swap1\n      dup1\n      0x04\n      add\n      sload\n      swap1\n      dup1\n      0x05\n      add\n      0x00\n      swap1\n      sload\n      swap1\n      0x0100\n      exp\n      swap1\n      div\n      0xffffffffffffffffffffffffffffffffffffffff\n      and\n      swap1\n      dup1\n      0x06\n      add\n      0x00\n      swap1\n      sload\n      swap1\n      0x0100\n      exp\n      swap1\n      div\n      0xffffffffffffffffffffffffffffffffffffffff\n      and\n      swap1\n      dup1\n      0x06\n      add\n      0x14\n      swap1\n      sload\n      swap1\n      0x0100\n      exp\n      swap1\n      div\n      0xff\n      and\n      swap1\n      dup1\n      0x06\n      add\n      0x15\n      swap1\n      sload\n      swap1\n      0x0100\n      exp\n      swap1\n      div\n      0xff\n      and\n      swap1\n      dup1\n      0x07\n      add\n      0x00\n      swap1\n      sload\n      swap1\n      0x0100\n      exp\n      swap1\n      div\n      0xffffffffffffffffffffffffffffffffffffffff\n      and\n      swap1\n      pop\n      dup11\n      jump\t// out\n        /* \"@openzeppelin/contracts/access/Ownable.sol\":2543:2758  function transferOwnership(address newOwner) public virtual onlyOwner {... */\n    tag_64:\n        /* \"@openzeppelin/contracts/access/Ownable.sol\":1531:1544  _checkOwner() */\n      tag_151\n        /* \"@openzeppelin/contracts/access/Ownable.sol\":1531:1542  _checkOwner */\n      tag_87\n        /* \"@openzeppelin/contracts/access/Ownable.sol\":1531:1544  _checkOwner() */\n      jump\t// in\n    tag_151:\n        /* \"@openzeppelin/contracts/access/Ownable.sol\":2647:2648  0 */\n      0x00\n        /* \"@openzeppelin/contracts/access/Ownable.sol\":2627:2649  newOwner == address(0) */\n      0xffffffffffffffffffffffffffffffffffffffff\n      and\n        /* \"@openzeppelin/contracts/access/Ownable.sol\":2627:2635  newOwner */\n      dup2\n        /* \"@openzeppelin/contracts/access/Ownable.sol\":2627:2649  newOwner == address(0) */\n      0xffffffffffffffffffffffffffffffffffffffff\n      and\n      sub\n        /* \"@openzeppelin/contracts/access/Ownable.sol\":2623:2714  if (newOwner == address(0)) {... */\n      tag_153\n      jumpi\n        /* \"@openzeppelin/contracts/access/Ownable.sol\":2700:2701  0 */\n      0x00\n        /* \"@openzeppelin/contracts/access/Ownable.sol\":2672:2703  OwnableInvalidOwner(address(0)) */\n      mload(0x40)\n      0x1e4fbdf700000000000000000000000000000000000000000000000000000000\n      dup2\n      mstore\n      0x04\n      add\n      tag_154\n      swap2\n      swap1\n      tag_40\n      jump\t// in\n    tag_154:\n      mload(0x40)\n      dup1\n      swap2\n      sub\n      swap1\n      revert\n        /* \"@openzeppelin/contracts/access/Ownable.sol\":2623:2714  if (newOwner == address(0)) {... */\n    tag_153:\n        /* \"@openzeppelin/contracts/access/Ownable.sol\":2723:2751  _transferOwnership(newOwner) */\n      tag_155\n        /* \"@openzeppelin/contracts/access/Ownable.sol\":2742:2750  newOwner */\n      dup2\n        /* \"@openzeppelin/contracts/access/Ownable.sol\":2723:2741  _transferOwnership */\n      tag_94\n        /* \"@openzeppelin/contracts/access/Ownable.sol\":2723:2751  _transferOwnership(newOwner) */\n      jump\t// in\n    tag_155:\n        /* \"@openzeppelin/contracts/access/Ownable.sol\":2543:2758  function transferOwnership(address newOwner) public virtual onlyOwner {... */\n      pop\n      jump\t// out\n        /* \"LdEduProgram.sol\":5597:6207  function reclaimFunds(uint256 programId) external nonReentrant {... */\n    tag_68:\n        /* \"@openzeppelin/contracts/security/ReentrancyGuard.sol\":2261:2282  _nonReentrantBefore() */\n      tag_157\n        /* \"@openzeppelin/contracts/security/ReentrancyGuard.sol\":2261:2280  _nonReentrantBefore */\n      tag_97\n        /* \"@openzeppelin/contracts/security/ReentrancyGuard.sol\":2261:2282  _nonReentrantBefore() */\n      jump\t// in\n    tag_157:\n        /* \"LdEduProgram.sol\":5670:5696  EduProgram storage program */\n      0x00\n        /* \"LdEduProgram.sol\":5699:5710  eduPrograms */\n      0x02\n        /* \"LdEduProgram.sol\":5699:5721  eduPrograms[programId] */\n      0x00\n        /* \"LdEduProgram.sol\":5711:5720  programId */\n      dup4\n        /* \"LdEduProgram.sol\":5699:5721  eduPrograms[programId] */\n      dup2\n      mstore\n      0x20\n      add\n      swap1\n      dup2\n      mstore\n      0x20\n      add\n      0x00\n      keccak256\n        /* \"LdEduProgram.sol\":5670:5721  EduProgram storage program = eduPrograms[programId] */\n      swap1\n      pop\n        /* \"LdEduProgram.sol\":5740:5747  program */\n      dup1\n        /* \"LdEduProgram.sol\":5740:5755  program.approve */\n      0x06\n      add\n      0x14\n      swap1\n      sload\n      swap1\n      0x0100\n      exp\n      swap1\n      div\n      0xff\n      and\n        /* \"LdEduProgram.sol\":5739:5755  !program.approve */\n      iszero\n        /* \"LdEduProgram.sol\":5731:5810  require(!program.approve, \"It's already been approved and can't be reclaimed.\") */\n      tag_159\n      jumpi\n      mload(0x40)\n      0x08c379a000000000000000000000000000000000000000000000000000000000\n      dup2\n      mstore\n      0x04\n      add\n      tag_160\n      swap1\n      tag_161\n      jump\t// in\n    tag_160:\n      mload(0x40)\n      dup1\n      swap2\n      sub\n      swap1\n      revert\n    tag_159:\n        /* \"LdEduProgram.sol\":5829:5836  program */\n      dup1\n        /* \"LdEduProgram.sol\":5829:5844  program.claimed */\n      0x06\n      add\n      0x15\n      swap1\n      sload\n      swap1\n      0x0100\n      exp\n      swap1\n      div\n      0xff\n      and\n        /* \"LdEduProgram.sol\":5828:5844  !program.claimed */\n      iszero\n        /* \"LdEduProgram.sol\":5820:5871  require(!program.claimed, \"Already taken care of.\") */\n      tag_162\n      jumpi\n      mload(0x40)\n      0x08c379a000000000000000000000000000000000000000000000000000000000\n      dup2\n      mstore\n      0x04\n      add\n      tag_163\n      swap1\n      tag_164\n      jump\t// in\n    tag_163:\n      mload(0x40)\n      dup1\n      swap2\n      sub\n      swap1\n      revert\n    tag_162:\n        /* \"LdEduProgram.sol\":5907:5914  program */\n      dup1\n        /* \"LdEduProgram.sol\":5907:5922  program.endTime */\n      0x04\n      add\n      sload\n        /* \"LdEduProgram.sol\":5889:5904  block.timestamp */\n      timestamp\n        /* \"LdEduProgram.sol\":5889:5922  block.timestamp > program.endTime */\n      gt\n        /* \"LdEduProgram.sol\":5881:5956  require(block.timestamp > program.endTime, \"The program hasn't ended yet.\") */\n      tag_165\n      jumpi\n      mload(0x40)\n      0x08c379a000000000000000000000000000000000000000000000000000000000\n      dup2\n      mstore\n      0x04\n      add\n      tag_166\n      swap1\n      tag_167\n      jump\t// in\n    tag_166:\n      mload(0x40)\n      dup1\n      swap2\n      sub\n      swap1\n      revert\n    tag_165:\n        /* \"LdEduProgram.sol\":5988:5995  program */\n      dup1\n        /* \"LdEduProgram.sol\":5988:6001  program.maker */\n      0x05\n      add\n      0x00\n      swap1\n      sload\n      swap1\n      0x0100\n      exp\n      swap1\n      div\n      0xffffffffffffffffffffffffffffffffffffffff\n      and\n        /* \"LdEduProgram.sol\":5974:6001  msg.sender == program.maker */\n      0xffffffffffffffffffffffffffffffffffffffff\n      and\n        /* \"LdEduProgram.sol\":5974:5984  msg.sender */\n      caller\n        /* \"LdEduProgram.sol\":5974:6001  msg.sender == program.maker */\n      0xffffffffffffffffffffffffffffffffffffffff\n      and\n      eq\n        /* \"LdEduProgram.sol\":5966:6040  require(msg.sender == program.maker, \"You don't have reclamation rights.\") */\n      tag_168\n      jumpi\n      mload(0x40)\n      0x08c379a000000000000000000000000000000000000000000000000000000000\n      dup2\n      mstore\n      0x04\n      add\n      tag_169\n      swap1\n      tag_170\n      jump\t// in\n    tag_169:\n      mload(0x40)\n      dup1\n      swap2\n      sub\n      swap1\n      revert\n    tag_168:\n        /* \"LdEduProgram.sol\":6069:6073  true */\n      0x01\n        /* \"LdEduProgram.sol\":6051:6058  program */\n      dup2\n        /* \"LdEduProgram.sol\":6051:6066  program.claimed */\n      0x06\n      add\n      0x15\n        /* \"LdEduProgram.sol\":6051:6073  program.claimed = true */\n      0x0100\n      exp\n      dup2\n      sload\n      dup2\n      0xff\n      mul\n      not\n      and\n      swap1\n      dup4\n      iszero\n      iszero\n      mul\n      or\n      swap1\n      sstore\n      pop\n        /* \"LdEduProgram.sol\":6091:6098  program */\n      dup1\n        /* \"LdEduProgram.sol\":6091:6104  program.maker */\n      0x05\n      add\n      0x00\n      swap1\n      sload\n      swap1\n      0x0100\n      exp\n      swap1\n      div\n      0xffffffffffffffffffffffffffffffffffffffff\n      and\n        /* \"LdEduProgram.sol\":6083:6114  payable(program.maker).transfer */\n      0xffffffffffffffffffffffffffffffffffffffff\n      and\n        /* \"LdEduProgram.sol\":6083:6129  payable(program.maker).transfer(program.price) */\n      0x08fc\n        /* \"LdEduProgram.sol\":6115:6122  program */\n      dup3\n        /* \"LdEduProgram.sol\":6115:6128  program.price */\n      0x02\n      add\n      sload\n        /* \"LdEduProgram.sol\":6083:6129  payable(program.maker).transfer(program.price) */\n      swap1\n      dup2\n      iszero\n      mul\n      swap1\n      mload(0x40)\n      0x00\n      mload(0x40)\n      dup1\n      dup4\n      sub\n      dup2\n      dup6\n      dup9\n      dup9\n      call\n      swap4\n      pop\n      pop\n      pop\n      pop\n      iszero\n      dup1\n      iszero\n      tag_172\n      jumpi\n      returndatasize\n      0x00\n      dup1\n      returndatacopy\n      revert(0x00, returndatasize)\n    tag_172:\n      pop\n        /* \"LdEduProgram.sol\":6160:6169  programId */\n      dup2\n        /* \"LdEduProgram.sol\":6145:6200  FundsReclaimed(programId, program.maker, program.price) */\n      0xd37c0b9c7560299a7c963d03165111d712663805228e5ffca03d540c5d6e410e\n        /* \"LdEduProgram.sol\":6171:6178  program */\n      dup3\n        /* \"LdEduProgram.sol\":6171:6184  program.maker */\n      0x05\n      add\n      0x00\n      swap1\n      sload\n      swap1\n      0x0100\n      exp\n      swap1\n      div\n      0xffffffffffffffffffffffffffffffffffffffff\n      and\n        /* \"LdEduProgram.sol\":6186:6193  program */\n      dup4\n        /* \"LdEduProgram.sol\":6186:6199  program.price */\n      0x02\n      add\n      sload\n        /* \"LdEduProgram.sol\":6145:6200  FundsReclaimed(programId, program.maker, program.price) */\n      mload(0x40)\n      tag_173\n      swap3\n      swap2\n      swap1\n      tag_127\n      jump\t// in\n    tag_173:\n      mload(0x40)\n      dup1\n      swap2\n      sub\n      swap1\n      log2\n        /* \"LdEduProgram.sol\":5660:6207  {... */\n      pop\n        /* \"@openzeppelin/contracts/security/ReentrancyGuard.sol\":2303:2323  _nonReentrantAfter() */\n      tag_174\n        /* \"@openzeppelin/contracts/security/ReentrancyGuard.sol\":2303:2321  _nonReentrantAfter */\n      tag_129\n        /* \"@openzeppelin/contracts/security/ReentrancyGuard.sol\":2303:2323  _nonReentrantAfter() */\n      jump\t// in\n    tag_174:\n        /* \"LdEduProgram.sol\":5597:6207  function reclaimFunds(uint256 programId) external nonReentrant {... */\n      pop\n      jump\t// out\n        /* \"@openzeppelin/contracts/access/Ownable.sol\":1796:1958  function _checkOwner() internal view virtual {... */\n    tag_87:\n        /* \"@openzeppelin/contracts/access/Ownable.sol\":1866:1878  _msgSender() */\n      tag_176\n        /* \"@openzeppelin/contracts/access/Ownable.sol\":1866:1876  _msgSender */\n      tag_177\n        /* \"@openzeppelin/contracts/access/Ownable.sol\":1866:1878  _msgSender() */\n      jump\t// in\n    tag_176:\n        /* \"@openzeppelin/contracts/access/Ownable.sol\":1855:1878  owner() != _msgSender() */\n      0xffffffffffffffffffffffffffffffffffffffff\n      and\n        /* \"@openzeppelin/contracts/access/Ownable.sol\":1855:1862  owner() */\n      tag_178\n        /* \"@openzeppelin/contracts/access/Ownable.sol\":1855:1860  owner */\n      tag_38\n        /* \"@openzeppelin/contracts/access/Ownable.sol\":1855:1862  owner() */\n      jump\t// in\n    tag_178:\n        /* \"@openzeppelin/contracts/access/Ownable.sol\":1855:1878  owner() != _msgSender() */\n      0xffffffffffffffffffffffffffffffffffffffff\n      and\n      eq\n        /* \"@openzeppelin/contracts/access/Ownable.sol\":1851:1952  if (owner() != _msgSender()) {... */\n      tag_179\n      jumpi\n        /* \"@openzeppelin/contracts/access/Ownable.sol\":1928:1940  _msgSender() */\n      tag_180\n        /* \"@openzeppelin/contracts/access/Ownable.sol\":1928:1938  _msgSender */\n      tag_177\n        /* \"@openzeppelin/contracts/access/Ownable.sol\":1928:1940  _msgSender() */\n      jump\t// in\n    tag_180:\n        /* \"@openzeppelin/contracts/access/Ownable.sol\":1901:1941  OwnableUnauthorizedAccount(_msgSender()) */\n      mload(0x40)\n      0x118cdaa700000000000000000000000000000000000000000000000000000000\n      dup2\n      mstore\n      0x04\n      add\n      tag_181\n      swap2\n      swap1\n      tag_40\n      jump\t// in\n    tag_181:\n      mload(0x40)\n      dup1\n      swap2\n      sub\n      swap1\n      revert\n        /* \"@openzeppelin/contracts/access/Ownable.sol\":1851:1952  if (owner() != _msgSender()) {... */\n    tag_179:\n        /* \"@openzeppelin/contracts/access/Ownable.sol\":1796:1958  function _checkOwner() internal view virtual {... */\n      jump\t// out\n        /* \"@openzeppelin/contracts/access/Ownable.sol\":2912:3099  function _transferOwnership(address newOwner) internal virtual {... */\n    tag_94:\n        /* \"@openzeppelin/contracts/access/Ownable.sol\":2985:3001  address oldOwner */\n      0x00\n        /* \"@openzeppelin/contracts/access/Ownable.sol\":3004:3010  _owner */\n      dup1\n      0x00\n      swap1\n      sload\n      swap1\n      0x0100\n      exp\n      swap1\n      div\n      0xffffffffffffffffffffffffffffffffffffffff\n      and\n        /* \"@openzeppelin/contracts/access/Ownable.sol\":2985:3010  address oldOwner = _owner */\n      swap1\n      pop\n        /* \"@openzeppelin/contracts/access/Ownable.sol\":3029:3037  newOwner */\n      dup2\n        /* \"@openzeppelin/contracts/access/Ownable.sol\":3020:3026  _owner */\n      0x00\n      dup1\n        /* \"@openzeppelin/contracts/access/Ownable.sol\":3020:3037  _owner = newOwner */\n      0x0100\n      exp\n      dup2\n      sload\n      dup2\n      0xffffffffffffffffffffffffffffffffffffffff\n      mul\n      not\n      and\n      swap1\n      dup4\n      0xffffffffffffffffffffffffffffffffffffffff\n      and\n      mul\n      or\n      swap1\n      sstore\n      pop\n        /* \"@openzeppelin/contracts/access/Ownable.sol\":3083:3091  newOwner */\n      dup2\n        /* \"@openzeppelin/contracts/access/Ownable.sol\":3052:3092  OwnershipTransferred(oldOwner, newOwner) */\n      0xffffffffffffffffffffffffffffffffffffffff\n      and\n        /* \"@openzeppelin/contracts/access/Ownable.sol\":3073:3081  oldOwner */\n      dup2\n        /* \"@openzeppelin/contracts/access/Ownable.sol\":3052:3092  OwnershipTransferred(oldOwner, newOwner) */\n      0xffffffffffffffffffffffffffffffffffffffff\n      and\n      0x8be0079c531659141344cd1fd0a4f28419497f9722a3daafe3b4186f6b6457e0\n      mload(0x40)\n      mload(0x40)\n      dup1\n      swap2\n      sub\n      swap1\n      log3\n        /* \"@openzeppelin/contracts/access/Ownable.sol\":2975:3099  {... */\n      pop\n        /* \"@openzeppelin/contracts/access/Ownable.sol\":2912:3099  function _transferOwnership(address newOwner) internal virtual {... */\n      pop\n      jump\t// out\n        /* \"@openzeppelin/contracts/security/ReentrancyGuard.sol\":2336:2623  function _nonReentrantBefore() private {... */\n    tag_97:\n        /* \"@openzeppelin/contracts/security/ReentrancyGuard.sol\":1759:1760  2 */\n      0x02\n        /* \"@openzeppelin/contracts/security/ReentrancyGuard.sol\":2468:2475  _status */\n      sload(0x01)\n        /* \"@openzeppelin/contracts/security/ReentrancyGuard.sol\":2468:2487  _status != _ENTERED */\n      sub\n        /* \"@openzeppelin/contracts/security/ReentrancyGuard.sol\":2460:2523  require(_status != _ENTERED, \"ReentrancyGuard: reentrant call\") */\n      tag_184\n      jumpi\n      mload(0x40)\n      0x08c379a000000000000000000000000000000000000000000000000000000000\n      dup2\n      mstore\n      0x04\n      add\n      tag_185\n      swap1\n      tag_186\n      jump\t// in\n    tag_185:\n      mload(0x40)\n      dup1\n      swap2\n      sub\n      swap1\n      revert\n    tag_184:\n        /* \"@openzeppelin/contracts/security/ReentrancyGuard.sol\":1759:1760  2 */\n      0x02\n        /* \"@openzeppelin/contracts/security/ReentrancyGuard.sol\":2598:2605  _status */\n      0x01\n        /* \"@openzeppelin/contracts/security/ReentrancyGuard.sol\":2598:2616  _status = _ENTERED */\n      dup2\n      swap1\n      sstore\n      pop\n        /* \"@openzeppelin/contracts/security/ReentrancyGuard.sol\":2336:2623  function _nonReentrantBefore() private {... */\n      jump\t// out\n        /* \"@openzeppelin/contracts/security/ReentrancyGuard.sol\":2629:2838  function _nonReentrantAfter() private {... */\n    tag_129:\n        /* \"@openzeppelin/contracts/security/ReentrancyGuard.sol\":1716:1717  1 */\n      0x01\n        /* \"@openzeppelin/contracts/security/ReentrancyGuard.sol\":2809:2816  _status */\n      dup1\n        /* \"@openzeppelin/contracts/security/ReentrancyGuard.sol\":2809:2831  _status = _NOT_ENTERED */\n      dup2\n      swap1\n      sstore\n      pop\n        /* \"@openzeppelin/contracts/security/ReentrancyGuard.sol\":2629:2838  function _nonReentrantAfter() private {... */\n      jump\t// out\n        /* \"@openzeppelin/contracts/utils/Context.sol\":656:752  function _msgSender() internal view virtual returns (address) {... */\n    tag_177:\n        /* \"@openzeppelin/contracts/utils/Context.sol\":709:716  address */\n      0x00\n        /* \"@openzeppelin/contracts/utils/Context.sol\":735:745  msg.sender */\n      caller\n        /* \"@openzeppelin/contracts/utils/Context.sol\":728:745  return msg.sender */\n      swap1\n      pop\n        /* \"@openzeppelin/contracts/utils/Context.sol\":656:752  function _msgSender() internal view virtual returns (address) {... */\n      swap1\n      jump\t// out\n        /* \"#utility.yul\":7:82   */\n    tag_189:\n        /* \"#utility.yul\":40:46   */\n      0x00\n        /* \"#utility.yul\":73:75   */\n      0x40\n        /* \"#utility.yul\":67:76   */\n      mload\n        /* \"#utility.yul\":57:76   */\n      swap1\n      pop\n        /* \"#utility.yul\":7:82   */\n      swap1\n      jump\t// out\n        /* \"#utility.yul\":88:205   */\n    tag_190:\n        /* \"#utility.yul\":197:198   */\n      0x00\n        /* \"#utility.yul\":194:195   */\n      dup1\n        /* \"#utility.yul\":187:199   */\n      revert\n        /* \"#utility.yul\":211:328   */\n    tag_191:\n        /* \"#utility.yul\":320:321   */\n      0x00\n        /* \"#utility.yul\":317:318   */\n      dup1\n        /* \"#utility.yul\":310:322   */\n      revert\n        /* \"#utility.yul\":334:411   */\n    tag_192:\n        /* \"#utility.yul\":371:378   */\n      0x00\n        /* \"#utility.yul\":400:405   */\n      dup2\n        /* \"#utility.yul\":389:405   */\n      swap1\n      pop\n        /* \"#utility.yul\":334:411   */\n      swap2\n      swap1\n      pop\n      jump\t// out\n        /* \"#utility.yul\":417:539   */\n    tag_193:\n        /* \"#utility.yul\":490:514   */\n      tag_273\n        /* \"#utility.yul\":508:513   */\n      dup2\n        /* \"#utility.yul\":490:514   */\n      tag_192\n      jump\t// in\n    tag_273:\n        /* \"#utility.yul\":483:488   */\n      dup2\n        /* \"#utility.yul\":480:515   */\n      eq\n        /* \"#utility.yul\":470:533   */\n      tag_274\n      jumpi\n        /* \"#utility.yul\":529:530   */\n      0x00\n        /* \"#utility.yul\":526:527   */\n      dup1\n        /* \"#utility.yul\":519:531   */\n      revert\n        /* \"#utility.yul\":470:533   */\n    tag_274:\n        /* \"#utility.yul\":417:539   */\n      pop\n      jump\t// out\n        /* \"#utility.yul\":545:684   */\n    tag_194:\n        /* \"#utility.yul\":591:596   */\n      0x00\n        /* \"#utility.yul\":629:635   */\n      dup2\n        /* \"#utility.yul\":616:636   */\n      calldataload\n        /* \"#utility.yul\":607:636   */\n      swap1\n      pop\n        /* \"#utility.yul\":645:678   */\n      tag_276\n        /* \"#utility.yul\":672:677   */\n      dup2\n        /* \"#utility.yul\":645:678   */\n      tag_193\n      jump\t// in\n    tag_276:\n        /* \"#utility.yul\":545:684   */\n      swap3\n      swap2\n      pop\n      pop\n      jump\t// out\n        /* \"#utility.yul\":690:816   */\n    tag_195:\n        /* \"#utility.yul\":727:734   */\n      0x00\n        /* \"#utility.yul\":767:809   */\n      0xffffffffffffffffffffffffffffffffffffffff\n        /* \"#utility.yul\":760:765   */\n      dup3\n        /* \"#utility.yul\":756:810   */\n      and\n        /* \"#utility.yul\":745:810   */\n      swap1\n      pop\n        /* \"#utility.yul\":690:816   */\n      swap2\n      swap1\n      pop\n      jump\t// out\n        /* \"#utility.yul\":822:918   */\n    tag_196:\n        /* \"#utility.yul\":859:866   */\n      0x00\n        /* \"#utility.yul\":888:912   */\n      tag_279\n        /* \"#utility.yul\":906:911   */\n      dup3\n        /* \"#utility.yul\":888:912   */\n      tag_195\n      jump\t// in\n    tag_279:\n        /* \"#utility.yul\":877:912   */\n      swap1\n      pop\n        /* \"#utility.yul\":822:918   */\n      swap2\n      swap1\n      pop\n      jump\t// out\n        /* \"#utility.yul\":924:1046   */\n    tag_197:\n        /* \"#utility.yul\":997:1021   */\n      tag_281\n        /* \"#utility.yul\":1015:1020   */\n      dup2\n        /* \"#utility.yul\":997:1021   */\n      tag_196\n      jump\t// in\n    tag_281:\n        /* \"#utility.yul\":990:995   */\n      dup2\n        /* \"#utility.yul\":987:1022   */\n      eq\n        /* \"#utility.yul\":977:1040   */\n      tag_282\n      jumpi\n        /* \"#utility.yul\":1036:1037   */\n      0x00\n        /* \"#utility.yul\":1033:1034   */\n      dup1\n        /* \"#utility.yul\":1026:1038   */\n      revert\n        /* \"#utility.yul\":977:1040   */\n    tag_282:\n        /* \"#utility.yul\":924:1046   */\n      pop\n      jump\t// out\n        /* \"#utility.yul\":1052:1191   */\n    tag_198:\n        /* \"#utility.yul\":1098:1103   */\n      0x00\n        /* \"#utility.yul\":1136:1142   */\n      dup2\n        /* \"#utility.yul\":1123:1143   */\n      calldataload\n        /* \"#utility.yul\":1114:1143   */\n      swap1\n      pop\n        /* \"#utility.yul\":1152:1185   */\n      tag_284\n        /* \"#utility.yul\":1179:1184   */\n      dup2\n        /* \"#utility.yul\":1152:1185   */\n      tag_197\n      jump\t// in\n    tag_284:\n        /* \"#utility.yul\":1052:1191   */\n      swap3\n      swap2\n      pop\n      pop\n      jump\t// out\n        /* \"#utility.yul\":1197:1671   */\n    tag_18:\n        /* \"#utility.yul\":1265:1271   */\n      0x00\n        /* \"#utility.yul\":1273:1279   */\n      dup1\n        /* \"#utility.yul\":1322:1324   */\n      0x40\n        /* \"#utility.yul\":1310:1319   */\n      dup4\n        /* \"#utility.yul\":1301:1308   */\n      dup6\n        /* \"#utility.yul\":1297:1320   */\n      sub\n        /* \"#utility.yul\":1293:1325   */\n      slt\n        /* \"#utility.yul\":1290:1409   */\n      iszero\n      tag_286\n      jumpi\n        /* \"#utility.yul\":1328:1407   */\n      tag_287\n      tag_190\n      jump\t// in\n    tag_287:\n        /* \"#utility.yul\":1290:1409   */\n    tag_286:\n        /* \"#utility.yul\":1448:1449   */\n      0x00\n        /* \"#utility.yul\":1473:1526   */\n      tag_288\n        /* \"#utility.yul\":1518:1525   */\n      dup6\n        /* \"#utility.yul\":1509:1515   */\n      dup3\n        /* \"#utility.yul\":1498:1507   */\n      dup7\n        /* \"#utility.yul\":1494:1516   */\n      add\n        /* \"#utility.yul\":1473:1526   */\n      tag_194\n      jump\t// in\n    tag_288:\n        /* \"#utility.yul\":1463:1526   */\n      swap3\n      pop\n        /* \"#utility.yul\":1419:1536   */\n      pop\n        /* \"#utility.yul\":1575:1577   */\n      0x20\n        /* \"#utility.yul\":1601:1654   */\n      tag_289\n        /* \"#utility.yul\":1646:1653   */\n      dup6\n        /* \"#utility.yul\":1637:1643   */\n      dup3\n        /* \"#utility.yul\":1626:1635   */\n      dup7\n        /* \"#utility.yul\":1622:1644   */\n      add\n        /* \"#utility.yul\":1601:1654   */\n      tag_198\n      jump\t// in\n    tag_289:\n        /* \"#utility.yul\":1591:1654   */\n      swap2\n      pop\n        /* \"#utility.yul\":1546:1664   */\n      pop\n        /* \"#utility.yul\":1197:1671   */\n      swap3\n      pop\n      swap3\n      swap1\n      pop\n      jump\t// out\n        /* \"#utility.yul\":1677:2006   */\n    tag_27:\n        /* \"#utility.yul\":1736:1742   */\n      0x00\n        /* \"#utility.yul\":1785:1787   */\n      0x20\n        /* \"#utility.yul\":1773:1782   */\n      dup3\n        /* \"#utility.yul\":1764:1771   */\n      dup5\n        /* \"#utility.yul\":1760:1783   */\n      sub\n        /* \"#utility.yul\":1756:1788   */\n      slt\n        /* \"#utility.yul\":1753:1872   */\n      iszero\n      tag_291\n      jumpi\n        /* \"#utility.yul\":1791:1870   */\n      tag_292\n      tag_190\n      jump\t// in\n    tag_292:\n        /* \"#utility.yul\":1753:1872   */\n    tag_291:\n        /* \"#utility.yul\":1911:1912   */\n      0x00\n        /* \"#utility.yul\":1936:1989   */\n      tag_293\n        /* \"#utility.yul\":1981:1988   */\n      dup5\n        /* \"#utility.yul\":1972:1978   */\n      dup3\n        /* \"#utility.yul\":1961:1970   */\n      dup6\n        /* \"#utility.yul\":1957:1979   */\n      add\n        /* \"#utility.yul\":1936:1989   */\n      tag_194\n      jump\t// in\n    tag_293:\n        /* \"#utility.yul\":1926:1989   */\n      swap2\n      pop\n        /* \"#utility.yul\":1882:1999   */\n      pop\n        /* \"#utility.yul\":1677:2006   */\n      swap3\n      swap2\n      pop\n      pop\n      jump\t// out\n        /* \"#utility.yul\":2012:2130   */\n    tag_199:\n        /* \"#utility.yul\":2099:2123   */\n      tag_295\n        /* \"#utility.yul\":2117:2122   */\n      dup2\n        /* \"#utility.yul\":2099:2123   */\n      tag_196\n      jump\t// in\n    tag_295:\n        /* \"#utility.yul\":2094:2097   */\n      dup3\n        /* \"#utility.yul\":2087:2124   */\n      mstore\n        /* \"#utility.yul\":2012:2130   */\n      pop\n      pop\n      jump\t// out\n        /* \"#utility.yul\":2136:2358   */\n    tag_40:\n        /* \"#utility.yul\":2229:2233   */\n      0x00\n        /* \"#utility.yul\":2267:2269   */\n      0x20\n        /* \"#utility.yul\":2256:2265   */\n      dup3\n        /* \"#utility.yul\":2252:2270   */\n      add\n        /* \"#utility.yul\":2244:2270   */\n      swap1\n      pop\n        /* \"#utility.yul\":2280:2351   */\n      tag_297\n        /* \"#utility.yul\":2348:2349   */\n      0x00\n        /* \"#utility.yul\":2337:2346   */\n      dup4\n        /* \"#utility.yul\":2333:2350   */\n      add\n        /* \"#utility.yul\":2324:2330   */\n      dup5\n        /* \"#utility.yul\":2280:2351   */\n      tag_199\n      jump\t// in\n    tag_297:\n        /* \"#utility.yul\":2136:2358   */\n      swap3\n      swap2\n      pop\n      pop\n      jump\t// out\n        /* \"#utility.yul\":2364:2482   */\n    tag_200:\n        /* \"#utility.yul\":2451:2475   */\n      tag_299\n        /* \"#utility.yul\":2469:2474   */\n      dup2\n        /* \"#utility.yul\":2451:2475   */\n      tag_192\n      jump\t// in\n    tag_299:\n        /* \"#utility.yul\":2446:2449   */\n      dup3\n        /* \"#utility.yul\":2439:2476   */\n      mstore\n        /* \"#utility.yul\":2364:2482   */\n      pop\n      pop\n      jump\t// out\n        /* \"#utility.yul\":2488:2710   */\n    tag_45:\n        /* \"#utility.yul\":2581:2585   */\n      0x00\n        /* \"#utility.yul\":2619:2621   */\n      0x20\n        /* \"#utility.yul\":2608:2617   */\n      dup3\n        /* \"#utility.yul\":2604:2622   */\n      add\n        /* \"#utility.yul\":2596:2622   */\n      swap1\n      pop\n        /* \"#utility.yul\":2632:2703   */\n      tag_301\n        /* \"#utility.yul\":2700:2701   */\n      0x00\n        /* \"#utility.yul\":2689:2698   */\n      dup4\n        /* \"#utility.yul\":2685:2702   */\n      add\n        /* \"#utility.yul\":2676:2682   */\n      dup5\n        /* \"#utility.yul\":2632:2703   */\n      tag_200\n      jump\t// in\n    tag_301:\n        /* \"#utility.yul\":2488:2710   */\n      swap3\n      swap2\n      pop\n      pop\n      jump\t// out\n        /* \"#utility.yul\":2716:2833   */\n    tag_201:\n        /* \"#utility.yul\":2825:2826   */\n      0x00\n        /* \"#utility.yul\":2822:2823   */\n      dup1\n        /* \"#utility.yul\":2815:2827   */\n      revert\n        /* \"#utility.yul\":2839:2956   */\n    tag_202:\n        /* \"#utility.yul\":2948:2949   */\n      0x00\n        /* \"#utility.yul\":2945:2946   */\n      dup1\n        /* \"#utility.yul\":2938:2950   */\n      revert\n        /* \"#utility.yul\":2962:3064   */\n    tag_203:\n        /* \"#utility.yul\":3003:3009   */\n      0x00\n        /* \"#utility.yul\":3054:3056   */\n      0x1f\n        /* \"#utility.yul\":3050:3057   */\n      not\n        /* \"#utility.yul\":3045:3047   */\n      0x1f\n        /* \"#utility.yul\":3038:3043   */\n      dup4\n        /* \"#utility.yul\":3034:3048   */\n      add\n        /* \"#utility.yul\":3030:3058   */\n      and\n        /* \"#utility.yul\":3020:3058   */\n      swap1\n      pop\n        /* \"#utility.yul\":2962:3064   */\n      swap2\n      swap1\n      pop\n      jump\t// out\n        /* \"#utility.yul\":3070:3250   */\n    tag_204:\n        /* \"#utility.yul\":3118:3195   */\n      0x4e487b7100000000000000000000000000000000000000000000000000000000\n        /* \"#utility.yul\":3115:3116   */\n      0x00\n        /* \"#utility.yul\":3108:3196   */\n      mstore\n        /* \"#utility.yul\":3215:3219   */\n      0x41\n        /* \"#utility.yul\":3212:3213   */\n      0x04\n        /* \"#utility.yul\":3205:3220   */\n      mstore\n        /* \"#utility.yul\":3239:3243   */\n      0x24\n        /* \"#utility.yul\":3236:3237   */\n      0x00\n        /* \"#utility.yul\":3229:3244   */\n      revert\n        /* \"#utility.yul\":3256:3537   */\n    tag_205:\n        /* \"#utility.yul\":3339:3366   */\n      tag_307\n        /* \"#utility.yul\":3361:3365   */\n      dup3\n        /* \"#utility.yul\":3339:3366   */\n      tag_203\n      jump\t// in\n    tag_307:\n        /* \"#utility.yul\":3331:3337   */\n      dup2\n        /* \"#utility.yul\":3327:3367   */\n      add\n        /* \"#utility.yul\":3469:3475   */\n      dup2\n        /* \"#utility.yul\":3457:3467   */\n      dup2\n        /* \"#utility.yul\":3454:3476   */\n      lt\n        /* \"#utility.yul\":3433:3451   */\n      0xffffffffffffffff\n        /* \"#utility.yul\":3421:3431   */\n      dup3\n        /* \"#utility.yul\":3418:3452   */\n      gt\n        /* \"#utility.yul\":3415:3477   */\n      or\n        /* \"#utility.yul\":3412:3500   */\n      iszero\n      tag_308\n      jumpi\n        /* \"#utility.yul\":3480:3498   */\n      tag_309\n      tag_204\n      jump\t// in\n    tag_309:\n        /* \"#utility.yul\":3412:3500   */\n    tag_308:\n        /* \"#utility.yul\":3520:3530   */\n      dup1\n        /* \"#utility.yul\":3516:3518   */\n      0x40\n        /* \"#utility.yul\":3509:3531   */\n      mstore\n        /* \"#utility.yul\":3299:3537   */\n      pop\n        /* \"#utility.yul\":3256:3537   */\n      pop\n      pop\n      jump\t// out\n        /* \"#utility.yul\":3543:3672   */\n    tag_206:\n        /* \"#utility.yul\":3577:3583   */\n      0x00\n        /* \"#utility.yul\":3604:3624   */\n      tag_311\n      tag_189\n      jump\t// in\n    tag_311:\n        /* \"#utility.yul\":3594:3624   */\n      swap1\n      pop\n        /* \"#utility.yul\":3633:3666   */\n      tag_312\n        /* \"#utility.yul\":3661:3665   */\n      dup3\n        /* \"#utility.yul\":3653:3659   */\n      dup3\n        /* \"#utility.yul\":3633:3666   */\n      tag_205\n      jump\t// in\n    tag_312:\n        /* \"#utility.yul\":3543:3672   */\n      swap2\n      swap1\n      pop\n      jump\t// out\n        /* \"#utility.yul\":3678:3986   */\n    tag_207:\n        /* \"#utility.yul\":3740:3744   */\n      0x00\n        /* \"#utility.yul\":3830:3848   */\n      0xffffffffffffffff\n        /* \"#utility.yul\":3822:3828   */\n      dup3\n        /* \"#utility.yul\":3819:3849   */\n      gt\n        /* \"#utility.yul\":3816:3872   */\n      iszero\n      tag_314\n      jumpi\n        /* \"#utility.yul\":3852:3870   */\n      tag_315\n      tag_204\n      jump\t// in\n    tag_315:\n        /* \"#utility.yul\":3816:3872   */\n    tag_314:\n        /* \"#utility.yul\":3890:3919   */\n      tag_316\n        /* \"#utility.yul\":3912:3918   */\n      dup3\n        /* \"#utility.yul\":3890:3919   */\n      tag_203\n      jump\t// in\n    tag_316:\n        /* \"#utility.yul\":3882:3919   */\n      swap1\n      pop\n        /* \"#utility.yul\":3974:3978   */\n      0x20\n        /* \"#utility.yul\":3968:3972   */\n      dup2\n        /* \"#utility.yul\":3964:3979   */\n      add\n        /* \"#utility.yul\":3956:3979   */\n      swap1\n      pop\n        /* \"#utility.yul\":3678:3986   */\n      swap2\n      swap1\n      pop\n      jump\t// out\n        /* \"#utility.yul\":3992:4140   */\n    tag_208:\n        /* \"#utility.yul\":4090:4096   */\n      dup3\n        /* \"#utility.yul\":4085:4088   */\n      dup2\n        /* \"#utility.yul\":4080:4083   */\n      dup4\n        /* \"#utility.yul\":4067:4097   */\n      calldatacopy\n        /* \"#utility.yul\":4131:4132   */\n      0x00\n        /* \"#utility.yul\":4122:4128   */\n      dup4\n        /* \"#utility.yul\":4117:4120   */\n      dup4\n        /* \"#utility.yul\":4113:4129   */\n      add\n        /* \"#utility.yul\":4106:4133   */\n      mstore\n        /* \"#utility.yul\":3992:4140   */\n      pop\n      pop\n      pop\n      jump\t// out\n        /* \"#utility.yul\":4146:4571   */\n    tag_209:\n        /* \"#utility.yul\":4224:4229   */\n      0x00\n        /* \"#utility.yul\":4249:4315   */\n      tag_319\n        /* \"#utility.yul\":4265:4314   */\n      tag_320\n        /* \"#utility.yul\":4307:4313   */\n      dup5\n        /* \"#utility.yul\":4265:4314   */\n      tag_207\n      jump\t// in\n    tag_320:\n        /* \"#utility.yul\":4249:4315   */\n      tag_206\n      jump\t// in\n    tag_319:\n        /* \"#utility.yul\":4240:4315   */\n      swap1\n      pop\n        /* \"#utility.yul\":4338:4344   */\n      dup3\n        /* \"#utility.yul\":4331:4336   */\n      dup2\n        /* \"#utility.yul\":4324:4345   */\n      mstore\n        /* \"#utility.yul\":4376:4380   */\n      0x20\n        /* \"#utility.yul\":4369:4374   */\n      dup2\n        /* \"#utility.yul\":4365:4381   */\n      add\n        /* \"#utility.yul\":4414:4417   */\n      dup5\n        /* \"#utility.yul\":4405:4411   */\n      dup5\n        /* \"#utility.yul\":4400:4403   */\n      dup5\n        /* \"#utility.yul\":4396:4412   */\n      add\n        /* \"#utility.yul\":4393:4418   */\n      gt\n        /* \"#utility.yul\":4390:4502   */\n      iszero\n      tag_321\n      jumpi\n        /* \"#utility.yul\":4421:4500   */\n      tag_322\n      tag_202\n      jump\t// in\n    tag_322:\n        /* \"#utility.yul\":4390:4502   */\n    tag_321:\n        /* \"#utility.yul\":4511:4565   */\n      tag_323\n        /* \"#utility.yul\":4558:4564   */\n      dup5\n        /* \"#utility.yul\":4553:4556   */\n      dup3\n        /* \"#utility.yul\":4548:4551   */\n      dup6\n        /* \"#utility.yul\":4511:4565   */\n      tag_208\n      jump\t// in\n    tag_323:\n        /* \"#utility.yul\":4230:4571   */\n      pop\n        /* \"#utility.yul\":4146:4571   */\n      swap4\n      swap3\n      pop\n      pop\n      pop\n      jump\t// out\n        /* \"#utility.yul\":4591:4931   */\n    tag_210:\n        /* \"#utility.yul\":4647:4652   */\n      0x00\n        /* \"#utility.yul\":4696:4699   */\n      dup3\n        /* \"#utility.yul\":4689:4693   */\n      0x1f\n        /* \"#utility.yul\":4681:4687   */\n      dup4\n        /* \"#utility.yul\":4677:4694   */\n      add\n        /* \"#utility.yul\":4673:4700   */\n      slt\n        /* \"#utility.yul\":4663:4785   */\n      tag_325\n      jumpi\n        /* \"#utility.yul\":4704:4783   */\n      tag_326\n      tag_201\n      jump\t// in\n    tag_326:\n        /* \"#utility.yul\":4663:4785   */\n    tag_325:\n        /* \"#utility.yul\":4821:4827   */\n      dup2\n        /* \"#utility.yul\":4808:4828   */\n      calldataload\n        /* \"#utility.yul\":4846:4925   */\n      tag_327\n        /* \"#utility.yul\":4921:4924   */\n      dup5\n        /* \"#utility.yul\":4913:4919   */\n      dup3\n        /* \"#utility.yul\":4906:4910   */\n      0x20\n        /* \"#utility.yul\":4898:4904   */\n      dup7\n        /* \"#utility.yul\":4894:4911   */\n      add\n        /* \"#utility.yul\":4846:4925   */\n      tag_209\n      jump\t// in\n    tag_327:\n        /* \"#utility.yul\":4837:4925   */\n      swap2\n      pop\n        /* \"#utility.yul\":4653:4931   */\n      pop\n        /* \"#utility.yul\":4591:4931   */\n      swap3\n      swap2\n      pop\n      pop\n      jump\t// out\n        /* \"#utility.yul\":4937:6028   */\n    tag_48:\n        /* \"#utility.yul\":5042:5048   */\n      0x00\n        /* \"#utility.yul\":5050:5056   */\n      dup1\n        /* \"#utility.yul\":5058:5064   */\n      0x00\n        /* \"#utility.yul\":5066:5072   */\n      dup1\n        /* \"#utility.yul\":5074:5080   */\n      0x00\n        /* \"#utility.yul\":5123:5126   */\n      0xa0\n        /* \"#utility.yul\":5111:5120   */\n      dup7\n        /* \"#utility.yul\":5102:5109   */\n      dup9\n        /* \"#utility.yul\":5098:5121   */\n      sub\n        /* \"#utility.yul\":5094:5127   */\n      slt\n        /* \"#utility.yul\":5091:5211   */\n      iszero\n      tag_329\n      jumpi\n        /* \"#utility.yul\":5130:5209   */\n      tag_330\n      tag_190\n      jump\t// in\n    tag_330:\n        /* \"#utility.yul\":5091:5211   */\n    tag_329:\n        /* \"#utility.yul\":5278:5279   */\n      0x00\n        /* \"#utility.yul\":5267:5276   */\n      dup7\n        /* \"#utility.yul\":5263:5280   */\n      add\n        /* \"#utility.yul\":5250:5281   */\n      calldataload\n        /* \"#utility.yul\":5308:5326   */\n      0xffffffffffffffff\n        /* \"#utility.yul\":5300:5306   */\n      dup2\n        /* \"#utility.yul\":5297:5327   */\n      gt\n        /* \"#utility.yul\":5294:5411   */\n      iszero\n      tag_331\n      jumpi\n        /* \"#utility.yul\":5330:5409   */\n      tag_332\n      tag_191\n      jump\t// in\n    tag_332:\n        /* \"#utility.yul\":5294:5411   */\n    tag_331:\n        /* \"#utility.yul\":5435:5498   */\n      tag_333\n        /* \"#utility.yul\":5490:5497   */\n      dup9\n        /* \"#utility.yul\":5481:5487   */\n      dup3\n        /* \"#utility.yul\":5470:5479   */\n      dup10\n        /* \"#utility.yul\":5466:5488   */\n      add\n        /* \"#utility.yul\":5435:5498   */\n      tag_210\n      jump\t// in\n    tag_333:\n        /* \"#utility.yul\":5425:5498   */\n      swap6\n      pop\n        /* \"#utility.yul\":5221:5508   */\n      pop\n        /* \"#utility.yul\":5547:5549   */\n      0x20\n        /* \"#utility.yul\":5573:5626   */\n      tag_334\n        /* \"#utility.yul\":5618:5625   */\n      dup9\n        /* \"#utility.yul\":5609:5615   */\n      dup3\n        /* \"#utility.yul\":5598:5607   */\n      dup10\n        /* \"#utility.yul\":5594:5616   */\n      add\n        /* \"#utility.yul\":5573:5626   */\n      tag_194\n      jump\t// in\n    tag_334:\n        /* \"#utility.yul\":5563:5626   */\n      swap5\n      pop\n        /* \"#utility.yul\":5518:5636   */\n      pop\n        /* \"#utility.yul\":5675:5677   */\n      0x40\n        /* \"#utility.yul\":5701:5754   */\n      tag_335\n        /* \"#utility.yul\":5746:5753   */\n      dup9\n        /* \"#utility.yul\":5737:5743   */\n      dup3\n        /* \"#utility.yul\":5726:5735   */\n      dup10\n        /* \"#utility.yul\":5722:5744   */\n      add\n        /* \"#utility.yul\":5701:5754   */\n      tag_194\n      jump\t// in\n    tag_335:\n        /* \"#utility.yul\":5691:5754   */\n      swap4\n      pop\n        /* \"#utility.yul\":5646:5764   */\n      pop\n        /* \"#utility.yul\":5803:5805   */\n      0x60\n        /* \"#utility.yul\":5829:5882   */\n      tag_336\n        /* \"#utility.yul\":5874:5881   */\n      dup9\n        /* \"#utility.yul\":5865:5871   */\n      dup3\n        /* \"#utility.yul\":5854:5863   */\n      dup10\n        /* \"#utility.yul\":5850:5872   */\n      add\n        /* \"#utility.yul\":5829:5882   */\n      tag_194\n      jump\t// in\n    tag_336:\n        /* \"#utility.yul\":5819:5882   */\n      swap3\n      pop\n        /* \"#utility.yul\":5774:5892   */\n      pop\n        /* \"#utility.yul\":5931:5934   */\n      0x80\n        /* \"#utility.yul\":5958:6011   */\n      tag_337\n        /* \"#utility.yul\":6003:6010   */\n      dup9\n        /* \"#utility.yul\":5994:6000   */\n      dup3\n        /* \"#utility.yul\":5983:5992   */\n      dup10\n        /* \"#utility.yul\":5979:6001   */\n      add\n        /* \"#utility.yul\":5958:6011   */\n      tag_198\n      jump\t// in\n    tag_337:\n        /* \"#utility.yul\":5948:6011   */\n      swap2\n      pop\n        /* \"#utility.yul\":5902:6021   */\n      pop\n        /* \"#utility.yul\":4937:6028   */\n      swap3\n      swap6\n      pop\n      swap3\n      swap6\n      swap1\n      swap4\n      pop\n      jump\t// out\n        /* \"#utility.yul\":6034:6133   */\n    tag_211:\n        /* \"#utility.yul\":6086:6092   */\n      0x00\n        /* \"#utility.yul\":6120:6125   */\n      dup2\n        /* \"#utility.yul\":6114:6126   */\n      mload\n        /* \"#utility.yul\":6104:6126   */\n      swap1\n      pop\n        /* \"#utility.yul\":6034:6133   */\n      swap2\n      swap1\n      pop\n      jump\t// out\n        /* \"#utility.yul\":6139:6308   */\n    tag_212:\n        /* \"#utility.yul\":6223:6234   */\n      0x00\n        /* \"#utility.yul\":6257:6263   */\n      dup3\n        /* \"#utility.yul\":6252:6255   */\n      dup3\n        /* \"#utility.yul\":6245:6264   */\n      mstore\n        /* \"#utility.yul\":6297:6301   */\n      0x20\n        /* \"#utility.yul\":6292:6295   */\n      dup3\n        /* \"#utility.yul\":6288:6302   */\n      add\n        /* \"#utility.yul\":6273:6302   */\n      swap1\n      pop\n        /* \"#utility.yul\":6139:6308   */\n      swap3\n      swap2\n      pop\n      pop\n      jump\t// out\n        /* \"#utility.yul\":6314:6453   */\n    tag_213:\n        /* \"#utility.yul\":6403:6409   */\n      dup3\n        /* \"#utility.yul\":6398:6401   */\n      dup2\n        /* \"#utility.yul\":6393:6396   */\n      dup4\n        /* \"#utility.yul\":6387:6410   */\n      mcopy\n        /* \"#utility.yul\":6444:6445   */\n      0x00\n        /* \"#utility.yul\":6435:6441   */\n      dup4\n        /* \"#utility.yul\":6430:6433   */\n      dup4\n        /* \"#utility.yul\":6426:6442   */\n      add\n        /* \"#utility.yul\":6419:6446   */\n      mstore\n        /* \"#utility.yul\":6314:6453   */\n      pop\n      pop\n      pop\n      jump\t// out\n        /* \"#utility.yul\":6459:6836   */\n    tag_214:\n        /* \"#utility.yul\":6547:6550   */\n      0x00\n        /* \"#utility.yul\":6575:6614   */\n      tag_342\n        /* \"#utility.yul\":6608:6613   */\n      dup3\n        /* \"#utility.yul\":6575:6614   */\n      tag_211\n      jump\t// in\n    tag_342:\n        /* \"#utility.yul\":6630:6701   */\n      tag_343\n        /* \"#utility.yul\":6694:6700   */\n      dup2\n        /* \"#utility.yul\":6689:6692   */\n      dup6\n        /* \"#utility.yul\":6630:6701   */\n      tag_212\n      jump\t// in\n    tag_343:\n        /* \"#utility.yul\":6623:6701   */\n      swap4\n      pop\n        /* \"#utility.yul\":6710:6775   */\n      tag_344\n        /* \"#utility.yul\":6768:6774   */\n      dup2\n        /* \"#utility.yul\":6763:6766   */\n      dup6\n        /* \"#utility.yul\":6756:6760   */\n      0x20\n        /* \"#utility.yul\":6749:6754   */\n      dup7\n        /* \"#utility.yul\":6745:6761   */\n      add\n        /* \"#utility.yul\":6710:6775   */\n      tag_213\n      jump\t// in\n    tag_344:\n        /* \"#utility.yul\":6800:6829   */\n      tag_345\n        /* \"#utility.yul\":6822:6828   */\n      dup2\n        /* \"#utility.yul\":6800:6829   */\n      tag_203\n      jump\t// in\n    tag_345:\n        /* \"#utility.yul\":6795:6798   */\n      dup5\n        /* \"#utility.yul\":6791:6830   */\n      add\n        /* \"#utility.yul\":6784:6830   */\n      swap2\n      pop\n        /* \"#utility.yul\":6551:6836   */\n      pop\n        /* \"#utility.yul\":6459:6836   */\n      swap3\n      swap2\n      pop\n      pop\n      jump\t// out\n        /* \"#utility.yul\":6842:6932   */\n    tag_215:\n        /* \"#utility.yul\":6876:6883   */\n      0x00\n        /* \"#utility.yul\":6919:6924   */\n      dup2\n        /* \"#utility.yul\":6912:6925   */\n      iszero\n        /* \"#utility.yul\":6905:6926   */\n      iszero\n        /* \"#utility.yul\":6894:6926   */\n      swap1\n      pop\n        /* \"#utility.yul\":6842:6932   */\n      swap2\n      swap1\n      pop\n      jump\t// out\n        /* \"#utility.yul\":6938:7047   */\n    tag_216:\n        /* \"#utility.yul\":7019:7040   */\n      tag_348\n        /* \"#utility.yul\":7034:7039   */\n      dup2\n        /* \"#utility.yul\":7019:7040   */\n      tag_215\n      jump\t// in\n    tag_348:\n        /* \"#utility.yul\":7014:7017   */\n      dup3\n        /* \"#utility.yul\":7007:7041   */\n      mstore\n        /* \"#utility.yul\":6938:7047   */\n      pop\n      pop\n      jump\t// out\n        /* \"#utility.yul\":7053:8339   */\n    tag_59:\n        /* \"#utility.yul\":7406:7410   */\n      0x00\n        /* \"#utility.yul\":7444:7447   */\n      0x0140\n        /* \"#utility.yul\":7433:7442   */\n      dup3\n        /* \"#utility.yul\":7429:7448   */\n      add\n        /* \"#utility.yul\":7421:7448   */\n      swap1\n      pop\n        /* \"#utility.yul\":7458:7529   */\n      tag_350\n        /* \"#utility.yul\":7526:7527   */\n      0x00\n        /* \"#utility.yul\":7515:7524   */\n      dup4\n        /* \"#utility.yul\":7511:7528   */\n      add\n        /* \"#utility.yul\":7502:7508   */\n      dup14\n        /* \"#utility.yul\":7458:7529   */\n      tag_200\n      jump\t// in\n    tag_350:\n        /* \"#utility.yul\":7576:7585   */\n      dup2\n        /* \"#utility.yul\":7570:7574   */\n      dup2\n        /* \"#utility.yul\":7566:7586   */\n      sub\n        /* \"#utility.yul\":7561:7563   */\n      0x20\n        /* \"#utility.yul\":7550:7559   */\n      dup4\n        /* \"#utility.yul\":7546:7564   */\n      add\n        /* \"#utility.yul\":7539:7587   */\n      mstore\n        /* \"#utility.yul\":7604:7682   */\n      tag_351\n        /* \"#utility.yul\":7677:7681   */\n      dup2\n        /* \"#utility.yul\":7668:7674   */\n      dup13\n        /* \"#utility.yul\":7604:7682   */\n      tag_214\n      jump\t// in\n    tag_351:\n        /* \"#utility.yul\":7596:7682   */\n      swap1\n      pop\n        /* \"#utility.yul\":7692:7764   */\n      tag_352\n        /* \"#utility.yul\":7760:7762   */\n      0x40\n        /* \"#utility.yul\":7749:7758   */\n      dup4\n        /* \"#utility.yul\":7745:7763   */\n      add\n        /* \"#utility.yul\":7736:7742   */\n      dup12\n        /* \"#utility.yul\":7692:7764   */\n      tag_200\n      jump\t// in\n    tag_352:\n        /* \"#utility.yul\":7774:7846   */\n      tag_353\n        /* \"#utility.yul\":7842:7844   */\n      0x60\n        /* \"#utility.yul\":7831:7840   */\n      dup4\n        /* \"#utility.yul\":7827:7845   */\n      add\n        /* \"#utility.yul\":7818:7824   */\n      dup11\n        /* \"#utility.yul\":7774:7846   */\n      tag_200\n      jump\t// in\n    tag_353:\n        /* \"#utility.yul\":7856:7929   */\n      tag_354\n        /* \"#utility.yul\":7924:7927   */\n      0x80\n        /* \"#utility.yul\":7913:7922   */\n      dup4\n        /* \"#utility.yul\":7909:7928   */\n      add\n        /* \"#utility.yul\":7900:7906   */\n      dup10\n        /* \"#utility.yul\":7856:7929   */\n      tag_200\n      jump\t// in\n    tag_354:\n        /* \"#utility.yul\":7939:8012   */\n      tag_355\n        /* \"#utility.yul\":8007:8010   */\n      0xa0\n        /* \"#utility.yul\":7996:8005   */\n      dup4\n        /* \"#utility.yul\":7992:8011   */\n      add\n        /* \"#utility.yul\":7983:7989   */\n      dup9\n        /* \"#utility.yul\":7939:8012   */\n      tag_199\n      jump\t// in\n    tag_355:\n        /* \"#utility.yul\":8022:8095   */\n      tag_356\n        /* \"#utility.yul\":8090:8093   */\n      0xc0\n        /* \"#utility.yul\":8079:8088   */\n      dup4\n        /* \"#utility.yul\":8075:8094   */\n      add\n        /* \"#utility.yul\":8066:8072   */\n      dup8\n        /* \"#utility.yul\":8022:8095   */\n      tag_199\n      jump\t// in\n    tag_356:\n        /* \"#utility.yul\":8105:8172   */\n      tag_357\n        /* \"#utility.yul\":8167:8170   */\n      0xe0\n        /* \"#utility.yul\":8156:8165   */\n      dup4\n        /* \"#utility.yul\":8152:8171   */\n      add\n        /* \"#utility.yul\":8143:8149   */\n      dup7\n        /* \"#utility.yul\":8105:8172   */\n      tag_216\n      jump\t// in\n    tag_357:\n        /* \"#utility.yul\":8182:8249   */\n      tag_358\n        /* \"#utility.yul\":8244:8247   */\n      0x0100\n        /* \"#utility.yul\":8233:8242   */\n      dup4\n        /* \"#utility.yul\":8229:8248   */\n      add\n        /* \"#utility.yul\":8220:8226   */\n      dup6\n        /* \"#utility.yul\":8182:8249   */\n      tag_216\n      jump\t// in\n    tag_358:\n        /* \"#utility.yul\":8259:8332   */\n      tag_359\n        /* \"#utility.yul\":8327:8330   */\n      0x0120\n        /* \"#utility.yul\":8316:8325   */\n      dup4\n        /* \"#utility.yul\":8312:8331   */\n      add\n        /* \"#utility.yul\":8303:8309   */\n      dup5\n        /* \"#utility.yul\":8259:8332   */\n      tag_199\n      jump\t// in\n    tag_359:\n        /* \"#utility.yul\":7053:8339   */\n      swap12\n      swap11\n      pop\n      pop\n      pop\n      pop\n      pop\n      pop\n      pop\n      pop\n      pop\n      pop\n      pop\n      jump\t// out\n        /* \"#utility.yul\":8345:8674   */\n    tag_63:\n        /* \"#utility.yul\":8404:8410   */\n      0x00\n        /* \"#utility.yul\":8453:8455   */\n      0x20\n        /* \"#utility.yul\":8441:8450   */\n      dup3\n        /* \"#utility.yul\":8432:8439   */\n      dup5\n        /* \"#utility.yul\":8428:8451   */\n      sub\n        /* \"#utility.yul\":8424:8456   */\n      slt\n        /* \"#utility.yul\":8421:8540   */\n      iszero\n      tag_361\n      jumpi\n        /* \"#utility.yul\":8459:8538   */\n      tag_362\n      tag_190\n      jump\t// in\n    tag_362:\n        /* \"#utility.yul\":8421:8540   */\n    tag_361:\n        /* \"#utility.yul\":8579:8580   */\n      0x00\n        /* \"#utility.yul\":8604:8657   */\n      tag_363\n        /* \"#utility.yul\":8649:8656   */\n      dup5\n        /* \"#utility.yul\":8640:8646   */\n      dup3\n        /* \"#utility.yul\":8629:8638   */\n      dup6\n        /* \"#utility.yul\":8625:8647   */\n      add\n        /* \"#utility.yul\":8604:8657   */\n      tag_198\n      jump\t// in\n    tag_363:\n        /* \"#utility.yul\":8594:8657   */\n      swap2\n      pop\n        /* \"#utility.yul\":8550:8667   */\n      pop\n        /* \"#utility.yul\":8345:8674   */\n      swap3\n      swap2\n      pop\n      pop\n      jump\t// out\n        /* \"#utility.yul\":8680:8903   */\n    tag_217:\n        /* \"#utility.yul\":8820:8854   */\n      0x596f7520646f6e2774206861766520617070726f76616c207065726d69737369\n        /* \"#utility.yul\":8816:8817   */\n      0x00\n        /* \"#utility.yul\":8808:8814   */\n      dup3\n        /* \"#utility.yul\":8804:8818   */\n      add\n        /* \"#utility.yul\":8797:8855   */\n      mstore\n        /* \"#utility.yul\":8889:8895   */\n      0x6f6e732e00000000000000000000000000000000000000000000000000000000\n        /* \"#utility.yul\":8884:8886   */\n      0x20\n        /* \"#utility.yul\":8876:8882   */\n      dup3\n        /* \"#utility.yul\":8872:8887   */\n      add\n        /* \"#utility.yul\":8865:8896   */\n      mstore\n        /* \"#utility.yul\":8680:8903   */\n      pop\n      jump\t// out\n        /* \"#utility.yul\":8909:9275   */\n    tag_218:\n        /* \"#utility.yul\":9051:9054   */\n      0x00\n        /* \"#utility.yul\":9072:9139   */\n      tag_366\n        /* \"#utility.yul\":9136:9138   */\n      0x24\n        /* \"#utility.yul\":9131:9134   */\n      dup4\n        /* \"#utility.yul\":9072:9139   */\n      tag_212\n      jump\t// in\n    tag_366:\n        /* \"#utility.yul\":9065:9139   */\n      swap2\n      pop\n        /* \"#utility.yul\":9148:9241   */\n      tag_367\n        /* \"#utility.yul\":9237:9240   */\n      dup3\n        /* \"#utility.yul\":9148:9241   */\n      tag_217\n      jump\t// in\n    tag_367:\n        /* \"#utility.yul\":9266:9268   */\n      0x40\n        /* \"#utility.yul\":9261:9264   */\n      dup3\n        /* \"#utility.yul\":9257:9269   */\n      add\n        /* \"#utility.yul\":9250:9269   */\n      swap1\n      pop\n        /* \"#utility.yul\":8909:9275   */\n      swap2\n      swap1\n      pop\n      jump\t// out\n        /* \"#utility.yul\":9281:9700   */\n    tag_72:\n        /* \"#utility.yul\":9447:9451   */\n      0x00\n        /* \"#utility.yul\":9485:9487   */\n      0x20\n        /* \"#utility.yul\":9474:9483   */\n      dup3\n        /* \"#utility.yul\":9470:9488   */\n      add\n        /* \"#utility.yul\":9462:9488   */\n      swap1\n      pop\n        /* \"#utility.yul\":9534:9543   */\n      dup2\n        /* \"#utility.yul\":9528:9532   */\n      dup2\n        /* \"#utility.yul\":9524:9544   */\n      sub\n        /* \"#utility.yul\":9520:9521   */\n      0x00\n        /* \"#utility.yul\":9509:9518   */\n      dup4\n        /* \"#utility.yul\":9505:9522   */\n      add\n        /* \"#utility.yul\":9498:9545   */\n      mstore\n        /* \"#utility.yul\":9562:9693   */\n      tag_369\n        /* \"#utility.yul\":9688:9692   */\n      dup2\n        /* \"#utility.yul\":9562:9693   */\n      tag_218\n      jump\t// in\n    tag_369:\n        /* \"#utility.yul\":9554:9693   */\n      swap1\n      pop\n        /* \"#utility.yul\":9281:9700   */\n      swap2\n      swap1\n      pop\n      jump\t// out\n        /* \"#utility.yul\":9706:9887   */\n    tag_219:\n        /* \"#utility.yul\":9846:9879   */\n      0x5468652070726f6772616d2068617320616c726561647920656e6465642e2000\n        /* \"#utility.yul\":9842:9843   */\n      0x00\n        /* \"#utility.yul\":9834:9840   */\n      dup3\n        /* \"#utility.yul\":9830:9844   */\n      add\n        /* \"#utility.yul\":9823:9880   */\n      mstore\n        /* \"#utility.yul\":9706:9887   */\n      pop\n      jump\t// out\n        /* \"#utility.yul\":9893:10259   */\n    tag_220:\n        /* \"#utility.yul\":10035:10038   */\n      0x00\n        /* \"#utility.yul\":10056:10123   */\n      tag_372\n        /* \"#utility.yul\":10120:10122   */\n      0x1f\n        /* \"#utility.yul\":10115:10118   */\n      dup4\n        /* \"#utility.yul\":10056:10123   */\n      tag_212\n      jump\t// in\n    tag_372:\n        /* \"#utility.yul\":10049:10123   */\n      swap2\n      pop\n        /* \"#utility.yul\":10132:10225   */\n      tag_373\n        /* \"#utility.yul\":10221:10224   */\n      dup3\n        /* \"#utility.yul\":10132:10225   */\n      tag_219\n      jump\t// in\n    tag_373:\n        /* \"#utility.yul\":10250:10252   */\n      0x20\n        /* \"#utility.yul\":10245:10248   */\n      dup3\n        /* \"#utility.yul\":10241:10253   */\n      add\n        /* \"#utility.yul\":10234:10253   */\n      swap1\n      pop\n        /* \"#utility.yul\":9893:10259   */\n      swap2\n      swap1\n      pop\n      jump\t// out\n        /* \"#utility.yul\":10265:10684   */\n    tag_75:\n        /* \"#utility.yul\":10431:10435   */\n      0x00\n        /* \"#utility.yul\":10469:10471   */\n      0x20\n        /* \"#utility.yul\":10458:10467   */\n      dup3\n        /* \"#utility.yul\":10454:10472   */\n      add\n        /* \"#utility.yul\":10446:10472   */\n      swap1\n      pop\n        /* \"#utility.yul\":10518:10527   */\n      dup2\n        /* \"#utility.yul\":10512:10516   */\n      dup2\n        /* \"#utility.yul\":10508:10528   */\n      sub\n        /* \"#utility.yul\":10504:10505   */\n      0x00\n        /* \"#utility.yul\":10493:10502   */\n      dup4\n        /* \"#utility.yul\":10489:10506   */\n      add\n        /* \"#utility.yul\":10482:10529   */\n      mstore\n        /* \"#utility.yul\":10546:10677   */\n      tag_375\n        /* \"#utility.yul\":10672:10676   */\n      dup2\n        /* \"#utility.yul\":10546:10677   */\n      tag_220\n      jump\t// in\n    tag_375:\n        /* \"#utility.yul\":10538:10677   */\n      swap1\n      pop\n        /* \"#utility.yul\":10265:10684   */\n      swap2\n      swap1\n      pop\n      jump\t// out\n        /* \"#utility.yul\":10690:10857   */\n    tag_221:\n        /* \"#utility.yul\":10830:10849   */\n      0x416c726561647920617070726f7665642e000000000000000000000000000000\n        /* \"#utility.yul\":10826:10827   */\n      0x00\n        /* \"#utility.yul\":10818:10824   */\n      dup3\n        /* \"#utility.yul\":10814:10828   */\n      add\n        /* \"#utility.yul\":10807:10850   */\n      mstore\n        /* \"#utility.yul\":10690:10857   */\n      pop\n      jump\t// out\n        /* \"#utility.yul\":10863:11229   */\n    tag_222:\n        /* \"#utility.yul\":11005:11008   */\n      0x00\n        /* \"#utility.yul\":11026:11093   */\n      tag_378\n        /* \"#utility.yul\":11090:11092   */\n      0x11\n        /* \"#utility.yul\":11085:11088   */\n      dup4\n        /* \"#utility.yul\":11026:11093   */\n      tag_212\n      jump\t// in\n    tag_378:\n        /* \"#utility.yul\":11019:11093   */\n      swap2\n      pop\n        /* \"#utility.yul\":11102:11195   */\n      tag_379\n        /* \"#utility.yul\":11191:11194   */\n      dup3\n        /* \"#utility.yul\":11102:11195   */\n      tag_221\n      jump\t// in\n    tag_379:\n        /* \"#utility.yul\":11220:11222   */\n      0x20\n        /* \"#utility.yul\":11215:11218   */\n      dup3\n        /* \"#utility.yul\":11211:11223   */\n      add\n        /* \"#utility.yul\":11204:11223   */\n      swap1\n      pop\n        /* \"#utility.yul\":10863:11229   */\n      swap2\n      swap1\n      pop\n      jump\t// out\n        /* \"#utility.yul\":11235:11654   */\n    tag_78:\n        /* \"#utility.yul\":11401:11405   */\n      0x00\n        /* \"#utility.yul\":11439:11441   */\n      0x20\n        /* \"#utility.yul\":11428:11437   */\n      dup3\n        /* \"#utility.yul\":11424:11442   */\n      add\n        /* \"#utility.yul\":11416:11442   */\n      swap1\n      pop\n        /* \"#utility.yul\":11488:11497   */\n      dup2\n        /* \"#utility.yul\":11482:11486   */\n      dup2\n        /* \"#utility.yul\":11478:11498   */\n      sub\n        /* \"#utility.yul\":11474:11475   */\n      0x00\n        /* \"#utility.yul\":11463:11472   */\n      dup4\n        /* \"#utility.yul\":11459:11476   */\n      add\n        /* \"#utility.yul\":11452:11499   */\n      mstore\n        /* \"#utility.yul\":11516:11647   */\n      tag_381\n        /* \"#utility.yul\":11642:11646   */\n      dup2\n        /* \"#utility.yul\":11516:11647   */\n      tag_222\n      jump\t// in\n    tag_381:\n        /* \"#utility.yul\":11508:11647   */\n      swap1\n      pop\n        /* \"#utility.yul\":11235:11654   */\n      swap2\n      swap1\n      pop\n      jump\t// out\n        /* \"#utility.yul\":11660:11882   */\n    tag_223:\n        /* \"#utility.yul\":11800:11834   */\n      0x4f6e6c792063726561746f72732063616e206368616e676520617070726f7665\n        /* \"#utility.yul\":11796:11797   */\n      0x00\n        /* \"#utility.yul\":11788:11794   */\n      dup3\n        /* \"#utility.yul\":11784:11798   */\n      add\n        /* \"#utility.yul\":11777:11835   */\n      mstore\n        /* \"#utility.yul\":11869:11874   */\n      0x72732e0000000000000000000000000000000000000000000000000000000000\n        /* \"#utility.yul\":11864:11866   */\n      0x20\n        /* \"#utility.yul\":11856:11862   */\n      dup3\n        /* \"#utility.yul\":11852:11867   */\n      add\n        /* \"#utility.yul\":11845:11875   */\n      mstore\n        /* \"#utility.yul\":11660:11882   */\n      pop\n      jump\t// out\n        /* \"#utility.yul\":11888:12254   */\n    tag_224:\n        /* \"#utility.yul\":12030:12033   */\n      0x00\n        /* \"#utility.yul\":12051:12118   */\n      tag_384\n        /* \"#utility.yul\":12115:12117   */\n      0x23\n        /* \"#utility.yul\":12110:12113   */\n      dup4\n        /* \"#utility.yul\":12051:12118   */\n      tag_212\n      jump\t// in\n    tag_384:\n        /* \"#utility.yul\":12044:12118   */\n      swap2\n      pop\n        /* \"#utility.yul\":12127:12220   */\n      tag_385\n        /* \"#utility.yul\":12216:12219   */\n      dup3\n        /* \"#utility.yul\":12127:12220   */\n      tag_223\n      jump\t// in\n    tag_385:\n        /* \"#utility.yul\":12245:12247   */\n      0x40\n        /* \"#utility.yul\":12240:12243   */\n      dup3\n        /* \"#utility.yul\":12236:12248   */\n      add\n        /* \"#utility.yul\":12229:12248   */\n      swap1\n      pop\n        /* \"#utility.yul\":11888:12254   */\n      swap2\n      swap1\n      pop\n      jump\t// out\n        /* \"#utility.yul\":12260:12679   */\n    tag_83:\n        /* \"#utility.yul\":12426:12430   */\n      0x00\n        /* \"#utility.yul\":12464:12466   */\n      0x20\n        /* \"#utility.yul\":12453:12462   */\n      dup3\n        /* \"#utility.yul\":12449:12467   */\n      add\n        /* \"#utility.yul\":12441:12467   */\n      swap1\n      pop\n        /* \"#utility.yul\":12513:12522   */\n      dup2\n        /* \"#utility.yul\":12507:12511   */\n      dup2\n        /* \"#utility.yul\":12503:12523   */\n      sub\n        /* \"#utility.yul\":12499:12500   */\n      0x00\n        /* \"#utility.yul\":12488:12497   */\n      dup4\n        /* \"#utility.yul\":12484:12501   */\n      add\n        /* \"#utility.yul\":12477:12524   */\n      mstore\n        /* \"#utility.yul\":12541:12672   */\n      tag_387\n        /* \"#utility.yul\":12667:12671   */\n      dup2\n        /* \"#utility.yul\":12541:12672   */\n      tag_224\n      jump\t// in\n    tag_387:\n        /* \"#utility.yul\":12533:12672   */\n      swap1\n      pop\n        /* \"#utility.yul\":12260:12679   */\n      swap2\n      swap1\n      pop\n      jump\t// out\n        /* \"#utility.yul\":12685:12863   */\n    tag_225:\n        /* \"#utility.yul\":12825:12855   */\n      0x5468652070726f6772616d206973206e6f7420617070726f7665642e00000000\n        /* \"#utility.yul\":12821:12822   */\n      0x00\n        /* \"#utility.yul\":12813:12819   */\n      dup3\n        /* \"#utility.yul\":12809:12823   */\n      add\n        /* \"#utility.yul\":12802:12856   */\n      mstore\n        /* \"#utility.yul\":12685:12863   */\n      pop\n      jump\t// out\n        /* \"#utility.yul\":12869:13235   */\n    tag_226:\n        /* \"#utility.yul\":13011:13014   */\n      0x00\n        /* \"#utility.yul\":13032:13099   */\n      tag_390\n        /* \"#utility.yul\":13096:13098   */\n      0x1c\n        /* \"#utility.yul\":13091:13094   */\n      dup4\n        /* \"#utility.yul\":13032:13099   */\n      tag_212\n      jump\t// in\n    tag_390:\n        /* \"#utility.yul\":13025:13099   */\n      swap2\n      pop\n        /* \"#utility.yul\":13108:13201   */\n      tag_391\n        /* \"#utility.yul\":13197:13200   */\n      dup3\n        /* \"#utility.yul\":13108:13201   */\n      tag_225\n      jump\t// in\n    tag_391:\n        /* \"#utility.yul\":13226:13228   */\n      0x20\n        /* \"#utility.yul\":13221:13224   */\n      dup3\n        /* \"#utility.yul\":13217:13229   */\n      add\n        /* \"#utility.yul\":13210:13229   */\n      swap1\n      pop\n        /* \"#utility.yul\":12869:13235   */\n      swap2\n      swap1\n      pop\n      jump\t// out\n        /* \"#utility.yul\":13241:13660   */\n    tag_101:\n        /* \"#utility.yul\":13407:13411   */\n      0x00\n        /* \"#utility.yul\":13445:13447   */\n      0x20\n        /* \"#utility.yul\":13434:13443   */\n      dup3\n        /* \"#utility.yul\":13430:13448   */\n      add\n        /* \"#utility.yul\":13422:13448   */\n      swap1\n      pop\n        /* \"#utility.yul\":13494:13503   */\n      dup2\n        /* \"#utility.yul\":13488:13492   */\n      dup2\n        /* \"#utility.yul\":13484:13504   */\n      sub\n        /* \"#utility.yul\":13480:13481   */\n      0x00\n        /* \"#utility.yul\":13469:13478   */\n      dup4\n        /* \"#utility.yul\":13465:13482   */\n      add\n        /* \"#utility.yul\":13458:13505   */\n      mstore\n        /* \"#utility.yul\":13522:13653   */\n      tag_393\n        /* \"#utility.yul\":13648:13652   */\n      dup2\n        /* \"#utility.yul\":13522:13653   */\n      tag_226\n      jump\t// in\n    tag_393:\n        /* \"#utility.yul\":13514:13653   */\n      swap1\n      pop\n        /* \"#utility.yul\":13241:13660   */\n      swap2\n      swap1\n      pop\n      jump\t// out\n        /* \"#utility.yul\":13666:13832   */\n    tag_227:\n        /* \"#utility.yul\":13806:13824   */\n      0x416c726561647920636c61696d65642e00000000000000000000000000000000\n        /* \"#utility.yul\":13802:13803   */\n      0x00\n        /* \"#utility.yul\":13794:13800   */\n      dup3\n        /* \"#utility.yul\":13790:13804   */\n      add\n        /* \"#utility.yul\":13783:13825   */\n      mstore\n        /* \"#utility.yul\":13666:13832   */\n      pop\n      jump\t// out\n        /* \"#utility.yul\":13838:14204   */\n    tag_228:\n        /* \"#utility.yul\":13980:13983   */\n      0x00\n        /* \"#utility.yul\":14001:14068   */\n      tag_396\n        /* \"#utility.yul\":14065:14067   */\n      0x10\n        /* \"#utility.yul\":14060:14063   */\n      dup4\n        /* \"#utility.yul\":14001:14068   */\n      tag_212\n      jump\t// in\n    tag_396:\n        /* \"#utility.yul\":13994:14068   */\n      swap2\n      pop\n        /* \"#utility.yul\":14077:14170   */\n      tag_397\n        /* \"#utility.yul\":14166:14169   */\n      dup3\n        /* \"#utility.yul\":14077:14170   */\n      tag_227\n      jump\t// in\n    tag_397:\n        /* \"#utility.yul\":14195:14197   */\n      0x20\n        /* \"#utility.yul\":14190:14193   */\n      dup3\n        /* \"#utility.yul\":14186:14198   */\n      add\n        /* \"#utility.yul\":14179:14198   */\n      swap1\n      pop\n        /* \"#utility.yul\":13838:14204   */\n      swap2\n      swap1\n      pop\n      jump\t// out\n        /* \"#utility.yul\":14210:14629   */\n    tag_104:\n        /* \"#utility.yul\":14376:14380   */\n      0x00\n        /* \"#utility.yul\":14414:14416   */\n      0x20\n        /* \"#utility.yul\":14403:14412   */\n      dup3\n        /* \"#utility.yul\":14399:14417   */\n      add\n        /* \"#utility.yul\":14391:14417   */\n      swap1\n      pop\n        /* \"#utility.yul\":14463:14472   */\n      dup2\n        /* \"#utility.yul\":14457:14461   */\n      dup2\n        /* \"#utility.yul\":14453:14473   */\n      sub\n        /* \"#utility.yul\":14449:14450   */\n      0x00\n        /* \"#utility.yul\":14438:14447   */\n      dup4\n        /* \"#utility.yul\":14434:14451   */\n      add\n        /* \"#utility.yul\":14427:14474   */\n      mstore\n        /* \"#utility.yul\":14491:14622   */\n      tag_399\n        /* \"#utility.yul\":14617:14621   */\n      dup2\n        /* \"#utility.yul\":14491:14622   */\n      tag_228\n      jump\t// in\n    tag_399:\n        /* \"#utility.yul\":14483:14622   */\n      swap1\n      pop\n        /* \"#utility.yul\":14210:14629   */\n      swap2\n      swap1\n      pop\n      jump\t// out\n        /* \"#utility.yul\":14635:14858   */\n    tag_229:\n        /* \"#utility.yul\":14775:14809   */\n      0x596f7520646f206e6f742068617665207065726d697373696f6e20746f20636c\n        /* \"#utility.yul\":14771:14772   */\n      0x00\n        /* \"#utility.yul\":14763:14769   */\n      dup3\n        /* \"#utility.yul\":14759:14773   */\n      add\n        /* \"#utility.yul\":14752:14810   */\n      mstore\n        /* \"#utility.yul\":14844:14850   */\n      0x61696d2e00000000000000000000000000000000000000000000000000000000\n        /* \"#utility.yul\":14839:14841   */\n      0x20\n        /* \"#utility.yul\":14831:14837   */\n      dup3\n        /* \"#utility.yul\":14827:14842   */\n      add\n        /* \"#utility.yul\":14820:14851   */\n      mstore\n        /* \"#utility.yul\":14635:14858   */\n      pop\n      jump\t// out\n        /* \"#utility.yul\":14864:15230   */\n    tag_230:\n        /* \"#utility.yul\":15006:15009   */\n      0x00\n        /* \"#utility.yul\":15027:15094   */\n      tag_402\n        /* \"#utility.yul\":15091:15093   */\n      0x24\n        /* \"#utility.yul\":15086:15089   */\n      dup4\n        /* \"#utility.yul\":15027:15094   */\n      tag_212\n      jump\t// in\n    tag_402:\n        /* \"#utility.yul\":15020:15094   */\n      swap2\n      pop\n        /* \"#utility.yul\":15103:15196   */\n      tag_403\n        /* \"#utility.yul\":15192:15195   */\n      dup3\n        /* \"#utility.yul\":15103:15196   */\n      tag_229\n      jump\t// in\n    tag_403:\n        /* \"#utility.yul\":15221:15223   */\n      0x40\n        /* \"#utility.yul\":15216:15219   */\n      dup3\n        /* \"#utility.yul\":15212:15224   */\n      add\n        /* \"#utility.yul\":15205:15224   */\n      swap1\n      pop\n        /* \"#utility.yul\":14864:15230   */\n      swap2\n      swap1\n      pop\n      jump\t// out\n        /* \"#utility.yul\":15236:15655   */\n    tag_107:\n        /* \"#utility.yul\":15402:15406   */\n      0x00\n        /* \"#utility.yul\":15440:15442   */\n      0x20\n        /* \"#utility.yul\":15429:15438   */\n      dup3\n        /* \"#utility.yul\":15425:15443   */\n      add\n        /* \"#utility.yul\":15417:15443   */\n      swap1\n      pop\n        /* \"#utility.yul\":15489:15498   */\n      dup2\n        /* \"#utility.yul\":15483:15487   */\n      dup2\n        /* \"#utility.yul\":15479:15499   */\n      sub\n        /* \"#utility.yul\":15475:15476   */\n      0x00\n        /* \"#utility.yul\":15464:15473   */\n      dup4\n        /* \"#utility.yul\":15460:15477   */\n      add\n        /* \"#utility.yul\":15453:15500   */\n      mstore\n        /* \"#utility.yul\":15517:15648   */\n      tag_405\n        /* \"#utility.yul\":15643:15647   */\n      dup2\n        /* \"#utility.yul\":15517:15648   */\n      tag_230\n      jump\t// in\n    tag_405:\n        /* \"#utility.yul\":15509:15648   */\n      swap1\n      pop\n        /* \"#utility.yul\":15236:15655   */\n      swap2\n      swap1\n      pop\n      jump\t// out\n        /* \"#utility.yul\":15661:15843   */\n    tag_231:\n        /* \"#utility.yul\":15801:15835   */\n      0x5468652070726f6772616d20686173206e6f742073746172746564207965742e\n        /* \"#utility.yul\":15797:15798   */\n      0x00\n        /* \"#utility.yul\":15789:15795   */\n      dup3\n        /* \"#utility.yul\":15785:15799   */\n      add\n        /* \"#utility.yul\":15778:15836   */\n      mstore\n        /* \"#utility.yul\":15661:15843   */\n      pop\n      jump\t// out\n        /* \"#utility.yul\":15849:16215   */\n    tag_232:\n        /* \"#utility.yul\":15991:15994   */\n      0x00\n        /* \"#utility.yul\":16012:16079   */\n      tag_408\n        /* \"#utility.yul\":16076:16078   */\n      0x20\n        /* \"#utility.yul\":16071:16074   */\n      dup4\n        /* \"#utility.yul\":16012:16079   */\n      tag_212\n      jump\t// in\n    tag_408:\n        /* \"#utility.yul\":16005:16079   */\n      swap2\n      pop\n        /* \"#utility.yul\":16088:16181   */\n      tag_409\n        /* \"#utility.yul\":16177:16180   */\n      dup3\n        /* \"#utility.yul\":16088:16181   */\n      tag_231\n      jump\t// in\n    tag_409:\n        /* \"#utility.yul\":16206:16208   */\n      0x20\n        /* \"#utility.yul\":16201:16204   */\n      dup3\n        /* \"#utility.yul\":16197:16209   */\n      add\n        /* \"#utility.yul\":16190:16209   */\n      swap1\n      pop\n        /* \"#utility.yul\":15849:16215   */\n      swap2\n      swap1\n      pop\n      jump\t// out\n        /* \"#utility.yul\":16221:16640   */\n    tag_110:\n        /* \"#utility.yul\":16387:16391   */\n      0x00\n        /* \"#utility.yul\":16425:16427   */\n      0x20\n        /* \"#utility.yul\":16414:16423   */\n      dup3\n        /* \"#utility.yul\":16410:16428   */\n      add\n        /* \"#utility.yul\":16402:16428   */\n      swap1\n      pop\n        /* \"#utility.yul\":16474:16483   */\n      dup2\n        /* \"#utility.yul\":16468:16472   */\n      dup2\n        /* \"#utility.yul\":16464:16484   */\n      sub\n        /* \"#utility.yul\":16460:16461   */\n      0x00\n        /* \"#utility.yul\":16449:16458   */\n      dup4\n        /* \"#utility.yul\":16445:16462   */\n      add\n        /* \"#utility.yul\":16438:16485   */\n      mstore\n        /* \"#utility.yul\":16502:16633   */\n      tag_411\n        /* \"#utility.yul\":16628:16632   */\n      dup2\n        /* \"#utility.yul\":16502:16633   */\n      tag_232\n      jump\t// in\n    tag_411:\n        /* \"#utility.yul\":16494:16633   */\n      swap1\n      pop\n        /* \"#utility.yul\":16221:16640   */\n      swap2\n      swap1\n      pop\n      jump\t// out\n        /* \"#utility.yul\":16646:16871   */\n    tag_233:\n        /* \"#utility.yul\":16786:16820   */\n      0x5468652070726f6772616d2062696c6c696e6720706572696f64206861732070\n        /* \"#utility.yul\":16782:16783   */\n      0x00\n        /* \"#utility.yul\":16774:16780   */\n      dup3\n        /* \"#utility.yul\":16770:16784   */\n      add\n        /* \"#utility.yul\":16763:16821   */\n      mstore\n        /* \"#utility.yul\":16855:16863   */\n      0x61737365642e0000000000000000000000000000000000000000000000000000\n        /* \"#utility.yul\":16850:16852   */\n      0x20\n        /* \"#utility.yul\":16842:16848   */\n      dup3\n        /* \"#utility.yul\":16838:16853   */\n      add\n        /* \"#utility.yul\":16831:16864   */\n      mstore\n        /* \"#utility.yul\":16646:16871   */\n      pop\n      jump\t// out\n        /* \"#utility.yul\":16877:17243   */\n    tag_234:\n        /* \"#utility.yul\":17019:17022   */\n      0x00\n        /* \"#utility.yul\":17040:17107   */\n      tag_414\n        /* \"#utility.yul\":17104:17106   */\n      0x26\n        /* \"#utility.yul\":17099:17102   */\n      dup4\n        /* \"#utility.yul\":17040:17107   */\n      tag_212\n      jump\t// in\n    tag_414:\n        /* \"#utility.yul\":17033:17107   */\n      swap2\n      pop\n        /* \"#utility.yul\":17116:17209   */\n      tag_415\n        /* \"#utility.yul\":17205:17208   */\n      dup3\n        /* \"#utility.yul\":17116:17209   */\n      tag_233\n      jump\t// in\n    tag_415:\n        /* \"#utility.yul\":17234:17236   */\n      0x40\n        /* \"#utility.yul\":17229:17232   */\n      dup3\n        /* \"#utility.yul\":17225:17237   */\n      add\n        /* \"#utility.yul\":17218:17237   */\n      swap1\n      pop\n        /* \"#utility.yul\":16877:17243   */\n      swap2\n      swap1\n      pop\n      jump\t// out\n        /* \"#utility.yul\":17249:17668   */\n    tag_113:\n        /* \"#utility.yul\":17415:17419   */\n      0x00\n        /* \"#utility.yul\":17453:17455   */\n      0x20\n        /* \"#utility.yul\":17442:17451   */\n      dup3\n        /* \"#utility.yul\":17438:17456   */\n      add\n        /* \"#utility.yul\":17430:17456   */\n      swap1\n      pop\n        /* \"#utility.yul\":17502:17511   */\n      dup2\n        /* \"#utility.yul\":17496:17500   */\n      dup2\n        /* \"#utility.yul\":17492:17512   */\n      sub\n        /* \"#utility.yul\":17488:17489   */\n      0x00\n        /* \"#utility.yul\":17477:17486   */\n      dup4\n        /* \"#utility.yul\":17473:17490   */\n      add\n        /* \"#utility.yul\":17466:17513   */\n      mstore\n        /* \"#utility.yul\":17530:17661   */\n      tag_417\n        /* \"#utility.yul\":17656:17660   */\n      dup2\n        /* \"#utility.yul\":17530:17661   */\n      tag_234\n      jump\t// in\n    tag_417:\n        /* \"#utility.yul\":17522:17661   */\n      swap1\n      pop\n        /* \"#utility.yul\":17249:17668   */\n      swap2\n      swap1\n      pop\n      jump\t// out\n        /* \"#utility.yul\":17674:17854   */\n    tag_235:\n        /* \"#utility.yul\":17722:17799   */\n      0x4e487b7100000000000000000000000000000000000000000000000000000000\n        /* \"#utility.yul\":17719:17720   */\n      0x00\n        /* \"#utility.yul\":17712:17800   */\n      mstore\n        /* \"#utility.yul\":17819:17823   */\n      0x11\n        /* \"#utility.yul\":17816:17817   */\n      0x04\n        /* \"#utility.yul\":17809:17824   */\n      mstore\n        /* \"#utility.yul\":17843:17847   */\n      0x24\n        /* \"#utility.yul\":17840:17841   */\n      0x00\n        /* \"#utility.yul\":17833:17848   */\n      revert\n        /* \"#utility.yul\":17860:18270   */\n    tag_116:\n        /* \"#utility.yul\":17900:17907   */\n      0x00\n        /* \"#utility.yul\":17923:17943   */\n      tag_420\n        /* \"#utility.yul\":17941:17942   */\n      dup3\n        /* \"#utility.yul\":17923:17943   */\n      tag_192\n      jump\t// in\n    tag_420:\n        /* \"#utility.yul\":17918:17943   */\n      swap2\n      pop\n        /* \"#utility.yul\":17957:17977   */\n      tag_421\n        /* \"#utility.yul\":17975:17976   */\n      dup4\n        /* \"#utility.yul\":17957:17977   */\n      tag_192\n      jump\t// in\n    tag_421:\n        /* \"#utility.yul\":17952:17977   */\n      swap3\n      pop\n        /* \"#utility.yul\":18012:18013   */\n      dup3\n        /* \"#utility.yul\":18009:18010   */\n      dup3\n        /* \"#utility.yul\":18005:18014   */\n      mul\n        /* \"#utility.yul\":18034:18064   */\n      tag_422\n        /* \"#utility.yul\":18052:18063   */\n      dup2\n        /* \"#utility.yul\":18034:18064   */\n      tag_192\n      jump\t// in\n    tag_422:\n        /* \"#utility.yul\":18023:18064   */\n      swap2\n      pop\n        /* \"#utility.yul\":18213:18214   */\n      dup3\n        /* \"#utility.yul\":18204:18211   */\n      dup3\n        /* \"#utility.yul\":18200:18215   */\n      div\n        /* \"#utility.yul\":18197:18198   */\n      dup5\n        /* \"#utility.yul\":18194:18216   */\n      eq\n        /* \"#utility.yul\":18174:18175   */\n      dup4\n        /* \"#utility.yul\":18167:18176   */\n      iszero\n        /* \"#utility.yul\":18147:18230   */\n      or\n        /* \"#utility.yul\":18124:18263   */\n      tag_423\n      jumpi\n        /* \"#utility.yul\":18243:18261   */\n      tag_424\n      tag_235\n      jump\t// in\n    tag_424:\n        /* \"#utility.yul\":18124:18263   */\n    tag_423:\n        /* \"#utility.yul\":17908:18270   */\n      pop\n        /* \"#utility.yul\":17860:18270   */\n      swap3\n      swap2\n      pop\n      pop\n      jump\t// out\n        /* \"#utility.yul\":18276:18456   */\n    tag_236:\n        /* \"#utility.yul\":18324:18401   */\n      0x4e487b7100000000000000000000000000000000000000000000000000000000\n        /* \"#utility.yul\":18321:18322   */\n      0x00\n        /* \"#utility.yul\":18314:18402   */\n      mstore\n        /* \"#utility.yul\":18421:18425   */\n      0x12\n        /* \"#utility.yul\":18418:18419   */\n      0x04\n        /* \"#utility.yul\":18411:18426   */\n      mstore\n        /* \"#utility.yul\":18445:18449   */\n      0x24\n        /* \"#utility.yul\":18442:18443   */\n      0x00\n        /* \"#utility.yul\":18435:18450   */\n      revert\n        /* \"#utility.yul\":18462:18647   */\n    tag_118:\n        /* \"#utility.yul\":18502:18503   */\n      0x00\n        /* \"#utility.yul\":18519:18539   */\n      tag_427\n        /* \"#utility.yul\":18537:18538   */\n      dup3\n        /* \"#utility.yul\":18519:18539   */\n      tag_192\n      jump\t// in\n    tag_427:\n        /* \"#utility.yul\":18514:18539   */\n      swap2\n      pop\n        /* \"#utility.yul\":18553:18573   */\n      tag_428\n        /* \"#utility.yul\":18571:18572   */\n      dup4\n        /* \"#utility.yul\":18553:18573   */\n      tag_192\n      jump\t// in\n    tag_428:\n        /* \"#utility.yul\":18548:18573   */\n      swap3\n      pop\n        /* \"#utility.yul\":18592:18593   */\n      dup3\n        /* \"#utility.yul\":18582:18617   */\n      tag_429\n      jumpi\n        /* \"#utility.yul\":18597:18615   */\n      tag_430\n      tag_236\n      jump\t// in\n    tag_430:\n        /* \"#utility.yul\":18582:18617   */\n    tag_429:\n        /* \"#utility.yul\":18639:18640   */\n      dup3\n        /* \"#utility.yul\":18636:18637   */\n      dup3\n        /* \"#utility.yul\":18632:18641   */\n      div\n        /* \"#utility.yul\":18627:18641   */\n      swap1\n      pop\n        /* \"#utility.yul\":18462:18647   */\n      swap3\n      swap2\n      pop\n      pop\n      jump\t// out\n        /* \"#utility.yul\":18653:18847   */\n    tag_120:\n        /* \"#utility.yul\":18693:18697   */\n      0x00\n        /* \"#utility.yul\":18713:18733   */\n      tag_432\n        /* \"#utility.yul\":18731:18732   */\n      dup3\n        /* \"#utility.yul\":18713:18733   */\n      tag_192\n      jump\t// in\n    tag_432:\n        /* \"#utility.yul\":18708:18733   */\n      swap2\n      pop\n        /* \"#utility.yul\":18747:18767   */\n      tag_433\n        /* \"#utility.yul\":18765:18766   */\n      dup4\n        /* \"#utility.yul\":18747:18767   */\n      tag_192\n      jump\t// in\n    tag_433:\n        /* \"#utility.yul\":18742:18767   */\n      swap3\n      pop\n        /* \"#utility.yul\":18791:18792   */\n      dup3\n        /* \"#utility.yul\":18788:18789   */\n      dup3\n        /* \"#utility.yul\":18784:18793   */\n      sub\n        /* \"#utility.yul\":18776:18793   */\n      swap1\n      pop\n        /* \"#utility.yul\":18815:18816   */\n      dup2\n        /* \"#utility.yul\":18809:18813   */\n      dup2\n        /* \"#utility.yul\":18806:18817   */\n      gt\n        /* \"#utility.yul\":18803:18840   */\n      iszero\n      tag_434\n      jumpi\n        /* \"#utility.yul\":18820:18838   */\n      tag_435\n      tag_235\n      jump\t// in\n    tag_435:\n        /* \"#utility.yul\":18803:18840   */\n    tag_434:\n        /* \"#utility.yul\":18653:18847   */\n      swap3\n      swap2\n      pop\n      pop\n      jump\t// out\n        /* \"#utility.yul\":18853:19185   */\n    tag_127:\n        /* \"#utility.yul\":18974:18978   */\n      0x00\n        /* \"#utility.yul\":19012:19014   */\n      0x40\n        /* \"#utility.yul\":19001:19010   */\n      dup3\n        /* \"#utility.yul\":18997:19015   */\n      add\n        /* \"#utility.yul\":18989:19015   */\n      swap1\n      pop\n        /* \"#utility.yul\":19025:19096   */\n      tag_437\n        /* \"#utility.yul\":19093:19094   */\n      0x00\n        /* \"#utility.yul\":19082:19091   */\n      dup4\n        /* \"#utility.yul\":19078:19095   */\n      add\n        /* \"#utility.yul\":19069:19075   */\n      dup6\n        /* \"#utility.yul\":19025:19096   */\n      tag_199\n      jump\t// in\n    tag_437:\n        /* \"#utility.yul\":19106:19178   */\n      tag_438\n        /* \"#utility.yul\":19174:19176   */\n      0x20\n        /* \"#utility.yul\":19163:19172   */\n      dup4\n        /* \"#utility.yul\":19159:19177   */\n      add\n        /* \"#utility.yul\":19150:19156   */\n      dup5\n        /* \"#utility.yul\":19106:19178   */\n      tag_200\n      jump\t// in\n    tag_438:\n        /* \"#utility.yul\":18853:19185   */\n      swap4\n      swap3\n      pop\n      pop\n      pop\n      jump\t// out\n        /* \"#utility.yul\":19191:19423   */\n    tag_237:\n        /* \"#utility.yul\":19331:19365   */\n      0x546865204554482073656e7420646f6573206e6f74206d617463682074686520\n        /* \"#utility.yul\":19327:19328   */\n      0x00\n        /* \"#utility.yul\":19319:19325   */\n      dup3\n        /* \"#utility.yul\":19315:19329   */\n      add\n        /* \"#utility.yul\":19308:19366   */\n      mstore\n        /* \"#utility.yul\":19400:19415   */\n      0x70726f6772616d20707269636500000000000000000000000000000000000000\n        /* \"#utility.yul\":19395:19397   */\n      0x20\n        /* \"#utility.yul\":19387:19393   */\n      dup3\n        /* \"#utility.yul\":19383:19398   */\n      add\n        /* \"#utility.yul\":19376:19416   */\n      mstore\n        /* \"#utility.yul\":19191:19423   */\n      pop\n      jump\t// out\n        /* \"#utility.yul\":19429:19795   */\n    tag_238:\n        /* \"#utility.yul\":19571:19574   */\n      0x00\n        /* \"#utility.yul\":19592:19659   */\n      tag_441\n        /* \"#utility.yul\":19656:19658   */\n      0x2d\n        /* \"#utility.yul\":19651:19654   */\n      dup4\n        /* \"#utility.yul\":19592:19659   */\n      tag_212\n      jump\t// in\n    tag_441:\n        /* \"#utility.yul\":19585:19659   */\n      swap2\n      pop\n        /* \"#utility.yul\":19668:19761   */\n      tag_442\n        /* \"#utility.yul\":19757:19760   */\n      dup3\n        /* \"#utility.yul\":19668:19761   */\n      tag_237\n      jump\t// in\n    tag_442:\n        /* \"#utility.yul\":19786:19788   */\n      0x40\n        /* \"#utility.yul\":19781:19784   */\n      dup3\n        /* \"#utility.yul\":19777:19789   */\n      add\n        /* \"#utility.yul\":19770:19789   */\n      swap1\n      pop\n        /* \"#utility.yul\":19429:19795   */\n      swap2\n      swap1\n      pop\n      jump\t// out\n        /* \"#utility.yul\":19801:20220   */\n    tag_134:\n        /* \"#utility.yul\":19967:19971   */\n      0x00\n        /* \"#utility.yul\":20005:20007   */\n      0x20\n        /* \"#utility.yul\":19994:20003   */\n      dup3\n        /* \"#utility.yul\":19990:20008   */\n      add\n        /* \"#utility.yul\":19982:20008   */\n      swap1\n      pop\n        /* \"#utility.yul\":20054:20063   */\n      dup2\n        /* \"#utility.yul\":20048:20052   */\n      dup2\n        /* \"#utility.yul\":20044:20064   */\n      sub\n        /* \"#utility.yul\":20040:20041   */\n      0x00\n        /* \"#utility.yul\":20029:20038   */\n      dup4\n        /* \"#utility.yul\":20025:20042   */\n      add\n        /* \"#utility.yul\":20018:20065   */\n      mstore\n        /* \"#utility.yul\":20082:20213   */\n      tag_444\n        /* \"#utility.yul\":20208:20212   */\n      dup2\n        /* \"#utility.yul\":20082:20213   */\n      tag_238\n      jump\t// in\n    tag_444:\n        /* \"#utility.yul\":20074:20213   */\n      swap1\n      pop\n        /* \"#utility.yul\":19801:20220   */\n      swap2\n      swap1\n      pop\n      jump\t// out\n        /* \"#utility.yul\":20226:20462   */\n    tag_239:\n        /* \"#utility.yul\":20366:20400   */\n      0x5468652053746172742074696d65206d757374206265206561726c6965722074\n        /* \"#utility.yul\":20362:20363   */\n      0x00\n        /* \"#utility.yul\":20354:20360   */\n      dup3\n        /* \"#utility.yul\":20350:20364   */\n      add\n        /* \"#utility.yul\":20343:20401   */\n      mstore\n        /* \"#utility.yul\":20435:20454   */\n      0x68616e2074686520656e642074696d652e000000000000000000000000000000\n        /* \"#utility.yul\":20430:20432   */\n      0x20\n        /* \"#utility.yul\":20422:20428   */\n      dup3\n        /* \"#utility.yul\":20418:20433   */\n      add\n        /* \"#utility.yul\":20411:20455   */\n      mstore\n        /* \"#utility.yul\":20226:20462   */\n      pop\n      jump\t// out\n        /* \"#utility.yul\":20468:20834   */\n    tag_240:\n        /* \"#utility.yul\":20610:20613   */\n      0x00\n        /* \"#utility.yul\":20631:20698   */\n      tag_447\n        /* \"#utility.yul\":20695:20697   */\n      0x31\n        /* \"#utility.yul\":20690:20693   */\n      dup4\n        /* \"#utility.yul\":20631:20698   */\n      tag_212\n      jump\t// in\n    tag_447:\n        /* \"#utility.yul\":20624:20698   */\n      swap2\n      pop\n        /* \"#utility.yul\":20707:20800   */\n      tag_448\n        /* \"#utility.yul\":20796:20799   */\n      dup3\n        /* \"#utility.yul\":20707:20800   */\n      tag_239\n      jump\t// in\n    tag_448:\n        /* \"#utility.yul\":20825:20827   */\n      0x40\n        /* \"#utility.yul\":20820:20823   */\n      dup3\n        /* \"#utility.yul\":20816:20828   */\n      add\n        /* \"#utility.yul\":20809:20828   */\n      swap1\n      pop\n        /* \"#utility.yul\":20468:20834   */\n      swap2\n      swap1\n      pop\n      jump\t// out\n        /* \"#utility.yul\":20840:21259   */\n    tag_137:\n        /* \"#utility.yul\":21006:21010   */\n      0x00\n        /* \"#utility.yul\":21044:21046   */\n      0x20\n        /* \"#utility.yul\":21033:21042   */\n      dup3\n        /* \"#utility.yul\":21029:21047   */\n      add\n        /* \"#utility.yul\":21021:21047   */\n      swap1\n      pop\n        /* \"#utility.yul\":21093:21102   */\n      dup2\n        /* \"#utility.yul\":21087:21091   */\n      dup2\n        /* \"#utility.yul\":21083:21103   */\n      sub\n        /* \"#utility.yul\":21079:21080   */\n      0x00\n        /* \"#utility.yul\":21068:21077   */\n      dup4\n        /* \"#utility.yul\":21064:21081   */\n      add\n        /* \"#utility.yul\":21057:21104   */\n      mstore\n        /* \"#utility.yul\":21121:21252   */\n      tag_450\n        /* \"#utility.yul\":21247:21251   */\n      dup2\n        /* \"#utility.yul\":21121:21252   */\n      tag_240\n      jump\t// in\n    tag_450:\n        /* \"#utility.yul\":21113:21252   */\n      swap1\n      pop\n        /* \"#utility.yul\":20840:21259   */\n      swap2\n      swap1\n      pop\n      jump\t// out\n        /* \"#utility.yul\":21265:21445   */\n    tag_241:\n        /* \"#utility.yul\":21313:21390   */\n      0x4e487b7100000000000000000000000000000000000000000000000000000000\n        /* \"#utility.yul\":21310:21311   */\n      0x00\n        /* \"#utility.yul\":21303:21391   */\n      mstore\n        /* \"#utility.yul\":21410:21414   */\n      0x22\n        /* \"#utility.yul\":21407:21408   */\n      0x04\n        /* \"#utility.yul\":21400:21415   */\n      mstore\n        /* \"#utility.yul\":21434:21438   */\n      0x24\n        /* \"#utility.yul\":21431:21432   */\n      0x00\n        /* \"#utility.yul\":21424:21439   */\n      revert\n        /* \"#utility.yul\":21451:21771   */\n    tag_145:\n        /* \"#utility.yul\":21495:21501   */\n      0x00\n        /* \"#utility.yul\":21532:21533   */\n      0x02\n        /* \"#utility.yul\":21526:21530   */\n      dup3\n        /* \"#utility.yul\":21522:21534   */\n      div\n        /* \"#utility.yul\":21512:21534   */\n      swap1\n      pop\n        /* \"#utility.yul\":21579:21580   */\n      0x01\n        /* \"#utility.yul\":21573:21577   */\n      dup3\n        /* \"#utility.yul\":21569:21581   */\n      and\n        /* \"#utility.yul\":21600:21618   */\n      dup1\n        /* \"#utility.yul\":21590:21671   */\n      tag_453\n      jumpi\n        /* \"#utility.yul\":21656:21660   */\n      0x7f\n        /* \"#utility.yul\":21648:21654   */\n      dup3\n        /* \"#utility.yul\":21644:21661   */\n      and\n        /* \"#utility.yul\":21634:21661   */\n      swap2\n      pop\n        /* \"#utility.yul\":21590:21671   */\n    tag_453:\n        /* \"#utility.yul\":21718:21720   */\n      0x20\n        /* \"#utility.yul\":21710:21716   */\n      dup3\n        /* \"#utility.yul\":21707:21721   */\n      lt\n        /* \"#utility.yul\":21687:21705   */\n      dup2\n        /* \"#utility.yul\":21684:21722   */\n      sub\n        /* \"#utility.yul\":21681:21765   */\n      tag_454\n      jumpi\n        /* \"#utility.yul\":21737:21755   */\n      tag_455\n      tag_241\n      jump\t// in\n    tag_455:\n        /* \"#utility.yul\":21681:21765   */\n    tag_454:\n        /* \"#utility.yul\":21502:21771   */\n      pop\n        /* \"#utility.yul\":21451:21771   */\n      swap2\n      swap1\n      pop\n      jump\t// out\n        /* \"#utility.yul\":21777:21918   */\n    tag_242:\n        /* \"#utility.yul\":21826:21830   */\n      0x00\n        /* \"#utility.yul\":21849:21852   */\n      dup2\n        /* \"#utility.yul\":21841:21852   */\n      swap1\n      pop\n        /* \"#utility.yul\":21872:21875   */\n      dup2\n        /* \"#utility.yul\":21869:21870   */\n      0x00\n        /* \"#utility.yul\":21862:21876   */\n      mstore\n        /* \"#utility.yul\":21906:21910   */\n      0x20\n        /* \"#utility.yul\":21903:21904   */\n      0x00\n        /* \"#utility.yul\":21893:21911   */\n      keccak256\n        /* \"#utility.yul\":21885:21911   */\n      swap1\n      pop\n        /* \"#utility.yul\":21777:21918   */\n      swap2\n      swap1\n      pop\n      jump\t// out\n        /* \"#utility.yul\":21924:22017   */\n    tag_243:\n        /* \"#utility.yul\":21961:21967   */\n      0x00\n        /* \"#utility.yul\":22008:22010   */\n      0x20\n        /* \"#utility.yul\":22003:22005   */\n      0x1f\n        /* \"#utility.yul\":21996:22001   */\n      dup4\n        /* \"#utility.yul\":21992:22006   */\n      add\n        /* \"#utility.yul\":21988:22011   */\n      div\n        /* \"#utility.yul\":21978:22011   */\n      swap1\n      pop\n        /* \"#utility.yul\":21924:22017   */\n      swap2\n      swap1\n      pop\n      jump\t// out\n        /* \"#utility.yul\":22023:22130   */\n    tag_244:\n        /* \"#utility.yul\":22067:22075   */\n      0x00\n        /* \"#utility.yul\":22117:22122   */\n      dup3\n        /* \"#utility.yul\":22111:22115   */\n      dup3\n        /* \"#utility.yul\":22107:22123   */\n      shl\n        /* \"#utility.yul\":22086:22123   */\n      swap1\n      pop\n        /* \"#utility.yul\":22023:22130   */\n      swap3\n      swap2\n      pop\n      pop\n      jump\t// out\n        /* \"#utility.yul\":22136:22529   */\n    tag_245:\n        /* \"#utility.yul\":22205:22211   */\n      0x00\n        /* \"#utility.yul\":22255:22256   */\n      0x08\n        /* \"#utility.yul\":22243:22253   */\n      dup4\n        /* \"#utility.yul\":22239:22257   */\n      mul\n        /* \"#utility.yul\":22278:22375   */\n      tag_460\n        /* \"#utility.yul\":22308:22374   */\n      0xffffffffffffffffffffffffffffffffffffffffffffffffffffffffffffffff\n        /* \"#utility.yul\":22297:22306   */\n      dup3\n        /* \"#utility.yul\":22278:22375   */\n      tag_244\n      jump\t// in\n    tag_460:\n        /* \"#utility.yul\":22396:22435   */\n      tag_461\n        /* \"#utility.yul\":22426:22434   */\n      dup7\n        /* \"#utility.yul\":22415:22424   */\n      dup4\n        /* \"#utility.yul\":22396:22435   */\n      tag_244\n      jump\t// in\n    tag_461:\n        /* \"#utility.yul\":22384:22435   */\n      swap6\n      pop\n        /* \"#utility.yul\":22468:22472   */\n      dup1\n        /* \"#utility.yul\":22464:22473   */\n      not\n        /* \"#utility.yul\":22457:22462   */\n      dup5\n        /* \"#utility.yul\":22453:22474   */\n      and\n        /* \"#utility.yul\":22444:22474   */\n      swap4\n      pop\n        /* \"#utility.yul\":22517:22521   */\n      dup1\n        /* \"#utility.yul\":22507:22515   */\n      dup7\n        /* \"#utility.yul\":22503:22522   */\n      and\n        /* \"#utility.yul\":22496:22501   */\n      dup5\n        /* \"#utility.yul\":22493:22523   */\n      or\n        /* \"#utility.yul\":22483:22523   */\n      swap3\n      pop\n        /* \"#utility.yul\":22212:22529   */\n      pop\n      pop\n        /* \"#utility.yul\":22136:22529   */\n      swap4\n      swap3\n      pop\n      pop\n      pop\n      jump\t// out\n        /* \"#utility.yul\":22535:22595   */\n    tag_246:\n        /* \"#utility.yul\":22563:22566   */\n      0x00\n        /* \"#utility.yul\":22584:22589   */\n      dup2\n        /* \"#utility.yul\":22577:22589   */\n      swap1\n      pop\n        /* \"#utility.yul\":22535:22595   */\n      swap2\n      swap1\n      pop\n      jump\t// out\n        /* \"#utility.yul\":22601:22743   */\n    tag_247:\n        /* \"#utility.yul\":22651:22660   */\n      0x00\n        /* \"#utility.yul\":22684:22737   */\n      tag_464\n        /* \"#utility.yul\":22702:22736   */\n      tag_465\n        /* \"#utility.yul\":22711:22735   */\n      tag_466\n        /* \"#utility.yul\":22729:22734   */\n      dup5\n        /* \"#utility.yul\":22711:22735   */\n      tag_192\n      jump\t// in\n    tag_466:\n        /* \"#utility.yul\":22702:22736   */\n      tag_246\n      jump\t// in\n    tag_465:\n        /* \"#utility.yul\":22684:22737   */\n      tag_192\n      jump\t// in\n    tag_464:\n        /* \"#utility.yul\":22671:22737   */\n      swap1\n      pop\n        /* \"#utility.yul\":22601:22743   */\n      swap2\n      swap1\n      pop\n      jump\t// out\n        /* \"#utility.yul\":22749:22824   */\n    tag_248:\n        /* \"#utility.yul\":22792:22795   */\n      0x00\n        /* \"#utility.yul\":22813:22818   */\n      dup2\n        /* \"#utility.yul\":22806:22818   */\n      swap1\n      pop\n        /* \"#utility.yul\":22749:22824   */\n      swap2\n      swap1\n      pop\n      jump\t// out\n        /* \"#utility.yul\":22830:23099   */\n    tag_249:\n        /* \"#utility.yul\":22940:22979   */\n      tag_469\n        /* \"#utility.yul\":22971:22978   */\n      dup4\n        /* \"#utility.yul\":22940:22979   */\n      tag_247\n      jump\t// in\n    tag_469:\n        /* \"#utility.yul\":23001:23092   */\n      tag_470\n        /* \"#utility.yul\":23050:23091   */\n      tag_471\n        /* \"#utility.yul\":23074:23090   */\n      dup3\n        /* \"#utility.yul\":23050:23091   */\n      tag_248\n      jump\t// in\n    tag_471:\n        /* \"#utility.yul\":23042:23048   */\n      dup5\n        /* \"#utility.yul\":23035:23039   */\n      dup5\n        /* \"#utility.yul\":23029:23040   */\n      sload\n        /* \"#utility.yul\":23001:23092   */\n      tag_245\n      jump\t// in\n    tag_470:\n        /* \"#utility.yul\":22995:22999   */\n      dup3\n        /* \"#utility.yul\":22988:23093   */\n      sstore\n        /* \"#utility.yul\":22906:23099   */\n      pop\n        /* \"#utility.yul\":22830:23099   */\n      pop\n      pop\n      pop\n      jump\t// out\n        /* \"#utility.yul\":23105:23178   */\n    tag_250:\n        /* \"#utility.yul\":23150:23153   */\n      0x00\n        /* \"#utility.yul\":23105:23178   */\n      swap1\n      jump\t// out\n        /* \"#utility.yul\":23184:23373   */\n    tag_251:\n        /* \"#utility.yul\":23261:23293   */\n      tag_474\n      tag_250\n      jump\t// in\n    tag_474:\n        /* \"#utility.yul\":23302:23367   */\n      tag_475\n        /* \"#utility.yul\":23360:23366   */\n      dup2\n        /* \"#utility.yul\":23352:23358   */\n      dup5\n        /* \"#utility.yul\":23346:23350   */\n      dup5\n        /* \"#utility.yul\":23302:23367   */\n      tag_249\n      jump\t// in\n    tag_475:\n        /* \"#utility.yul\":23237:23373   */\n      pop\n        /* \"#utility.yul\":23184:23373   */\n      pop\n      pop\n      jump\t// out\n        /* \"#utility.yul\":23379:23565   */\n    tag_252:\n        /* \"#utility.yul\":23439:23559   */\n    tag_477:\n        /* \"#utility.yul\":23456:23459   */\n      dup2\n        /* \"#utility.yul\":23449:23454   */\n      dup2\n        /* \"#utility.yul\":23446:23460   */\n      lt\n        /* \"#utility.yul\":23439:23559   */\n      iszero\n      tag_479\n      jumpi\n        /* \"#utility.yul\":23510:23549   */\n      tag_480\n        /* \"#utility.yul\":23547:23548   */\n      0x00\n        /* \"#utility.yul\":23540:23545   */\n      dup3\n        /* \"#utility.yul\":23510:23549   */\n      tag_251\n      jump\t// in\n    tag_480:\n        /* \"#utility.yul\":23483:23484   */\n      0x01\n        /* \"#utility.yul\":23476:23481   */\n      dup2\n        /* \"#utility.yul\":23472:23485   */\n      add\n        /* \"#utility.yul\":23463:23485   */\n      swap1\n      pop\n        /* \"#utility.yul\":23439:23559   */\n      jump(tag_477)\n    tag_479:\n        /* \"#utility.yul\":23379:23565   */\n      pop\n      pop\n      jump\t// out\n        /* \"#utility.yul\":23571:24114   */\n    tag_253:\n        /* \"#utility.yul\":23672:23674   */\n      0x1f\n        /* \"#utility.yul\":23667:23670   */\n      dup3\n        /* \"#utility.yul\":23664:23675   */\n      gt\n        /* \"#utility.yul\":23661:24107   */\n      iszero\n      tag_482\n      jumpi\n        /* \"#utility.yul\":23706:23744   */\n      tag_483\n        /* \"#utility.yul\":23738:23743   */\n      dup2\n        /* \"#utility.yul\":23706:23744   */\n      tag_242\n      jump\t// in\n    tag_483:\n        /* \"#utility.yul\":23790:23819   */\n      tag_484\n        /* \"#utility.yul\":23808:23818   */\n      dup5\n        /* \"#utility.yul\":23790:23819   */\n      tag_243\n      jump\t// in\n    tag_484:\n        /* \"#utility.yul\":23780:23788   */\n      dup2\n        /* \"#utility.yul\":23776:23820   */\n      add\n        /* \"#utility.yul\":23973:23975   */\n      0x20\n        /* \"#utility.yul\":23961:23971   */\n      dup6\n        /* \"#utility.yul\":23958:23976   */\n      lt\n        /* \"#utility.yul\":23955:24004   */\n      iszero\n      tag_485\n      jumpi\n        /* \"#utility.yul\":23994:24002   */\n      dup2\n        /* \"#utility.yul\":23979:24002   */\n      swap1\n      pop\n        /* \"#utility.yul\":23955:24004   */\n    tag_485:\n        /* \"#utility.yul\":24017:24097   */\n      tag_486\n        /* \"#utility.yul\":24073:24095   */\n      tag_487\n        /* \"#utility.yul\":24091:24094   */\n      dup6\n        /* \"#utility.yul\":24073:24095   */\n      tag_243\n      jump\t// in\n    tag_487:\n        /* \"#utility.yul\":24063:24071   */\n      dup4\n        /* \"#utility.yul\":24059:24096   */\n      add\n        /* \"#utility.yul\":24046:24057   */\n      dup3\n        /* \"#utility.yul\":24017:24097   */\n      tag_252\n      jump\t// in\n    tag_486:\n        /* \"#utility.yul\":23676:24107   */\n      pop\n      pop\n        /* \"#utility.yul\":23661:24107   */\n    tag_482:\n        /* \"#utility.yul\":23571:24114   */\n      pop\n      pop\n      pop\n      jump\t// out\n        /* \"#utility.yul\":24120:24237   */\n    tag_254:\n        /* \"#utility.yul\":24174:24182   */\n      0x00\n        /* \"#utility.yul\":24224:24229   */\n      dup3\n        /* \"#utility.yul\":24218:24222   */\n      dup3\n        /* \"#utility.yul\":24214:24230   */\n      shr\n        /* \"#utility.yul\":24193:24230   */\n      swap1\n      pop\n        /* \"#utility.yul\":24120:24237   */\n      swap3\n      swap2\n      pop\n      pop\n      jump\t// out\n        /* \"#utility.yul\":24243:24412   */\n    tag_255:\n        /* \"#utility.yul\":24287:24293   */\n      0x00\n        /* \"#utility.yul\":24320:24371   */\n      tag_490\n        /* \"#utility.yul\":24368:24369   */\n      0x00\n        /* \"#utility.yul\":24364:24370   */\n      not\n        /* \"#utility.yul\":24356:24361   */\n      dup5\n        /* \"#utility.yul\":24353:24354   */\n      0x08\n        /* \"#utility.yul\":24349:24362   */\n      mul\n        /* \"#utility.yul\":24320:24371   */\n      tag_254\n      jump\t// in\n    tag_490:\n        /* \"#utility.yul\":24316:24372   */\n      not\n        /* \"#utility.yul\":24401:24405   */\n      dup1\n        /* \"#utility.yul\":24395:24399   */\n      dup4\n        /* \"#utility.yul\":24391:24406   */\n      and\n        /* \"#utility.yul\":24381:24406   */\n      swap2\n      pop\n        /* \"#utility.yul\":24294:24412   */\n      pop\n        /* \"#utility.yul\":24243:24412   */\n      swap3\n      swap2\n      pop\n      pop\n      jump\t// out\n        /* \"#utility.yul\":24417:24712   */\n    tag_256:\n        /* \"#utility.yul\":24493:24497   */\n      0x00\n        /* \"#utility.yul\":24639:24668   */\n      tag_492\n        /* \"#utility.yul\":24664:24667   */\n      dup4\n        /* \"#utility.yul\":24658:24662   */\n      dup4\n        /* \"#utility.yul\":24639:24668   */\n      tag_255\n      jump\t// in\n    tag_492:\n        /* \"#utility.yul\":24631:24668   */\n      swap2\n      pop\n        /* \"#utility.yul\":24701:24704   */\n      dup3\n        /* \"#utility.yul\":24698:24699   */\n      0x02\n        /* \"#utility.yul\":24694:24705   */\n      mul\n        /* \"#utility.yul\":24688:24692   */\n      dup3\n        /* \"#utility.yul\":24685:24706   */\n      or\n        /* \"#utility.yul\":24677:24706   */\n      swap1\n      pop\n        /* \"#utility.yul\":24417:24712   */\n      swap3\n      swap2\n      pop\n      pop\n      jump\t// out\n        /* \"#utility.yul\":24717:26112   */\n    tag_139:\n        /* \"#utility.yul\":24834:24871   */\n      tag_494\n        /* \"#utility.yul\":24867:24870   */\n      dup3\n        /* \"#utility.yul\":24834:24871   */\n      tag_211\n      jump\t// in\n    tag_494:\n        /* \"#utility.yul\":24936:24954   */\n      0xffffffffffffffff\n        /* \"#utility.yul\":24928:24934   */\n      dup2\n        /* \"#utility.yul\":24925:24955   */\n      gt\n        /* \"#utility.yul\":24922:24978   */\n      iszero\n      tag_495\n      jumpi\n        /* \"#utility.yul\":24958:24976   */\n      tag_496\n      tag_204\n      jump\t// in\n    tag_496:\n        /* \"#utility.yul\":24922:24978   */\n    tag_495:\n        /* \"#utility.yul\":25002:25040   */\n      tag_497\n        /* \"#utility.yul\":25034:25038   */\n      dup3\n        /* \"#utility.yul\":25028:25039   */\n      sload\n        /* \"#utility.yul\":25002:25040   */\n      tag_145\n      jump\t// in\n    tag_497:\n        /* \"#utility.yul\":25087:25154   */\n      tag_498\n        /* \"#utility.yul\":25147:25153   */\n      dup3\n        /* \"#utility.yul\":25139:25145   */\n      dup3\n        /* \"#utility.yul\":25133:25137   */\n      dup6\n        /* \"#utility.yul\":25087:25154   */\n      tag_253\n      jump\t// in\n    tag_498:\n        /* \"#utility.yul\":25181:25182   */\n      0x00\n        /* \"#utility.yul\":25205:25209   */\n      0x20\n        /* \"#utility.yul\":25192:25209   */\n      swap1\n      pop\n        /* \"#utility.yul\":25237:25239   */\n      0x1f\n        /* \"#utility.yul\":25229:25235   */\n      dup4\n        /* \"#utility.yul\":25226:25240   */\n      gt\n        /* \"#utility.yul\":25254:25255   */\n      0x01\n        /* \"#utility.yul\":25249:25867   */\n      dup2\n      eq\n      tag_500\n      jumpi\n        /* \"#utility.yul\":25911:25912   */\n      0x00\n        /* \"#utility.yul\":25928:25934   */\n      dup5\n        /* \"#utility.yul\":25925:26002   */\n      iszero\n      tag_501\n      jumpi\n        /* \"#utility.yul\":25977:25986   */\n      dup3\n        /* \"#utility.yul\":25972:25975   */\n      dup8\n        /* \"#utility.yul\":25968:25987   */\n      add\n        /* \"#utility.yul\":25962:25988   */\n      mload\n        /* \"#utility.yul\":25953:25988   */\n      swap1\n      pop\n        /* \"#utility.yul\":25925:26002   */\n    tag_501:\n        /* \"#utility.yul\":26028:26095   */\n      tag_502\n        /* \"#utility.yul\":26088:26094   */\n      dup6\n        /* \"#utility.yul\":26081:26086   */\n      dup3\n        /* \"#utility.yul\":26028:26095   */\n      tag_256\n      jump\t// in\n    tag_502:\n        /* \"#utility.yul\":26022:26026   */\n      dup7\n        /* \"#utility.yul\":26015:26096   */\n      sstore\n        /* \"#utility.yul\":25884:26106   */\n      pop\n        /* \"#utility.yul\":25219:26106   */\n      jump(tag_499)\n        /* \"#utility.yul\":25249:25867   */\n    tag_500:\n        /* \"#utility.yul\":25301:25305   */\n      0x1f\n        /* \"#utility.yul\":25297:25306   */\n      not\n        /* \"#utility.yul\":25289:25295   */\n      dup5\n        /* \"#utility.yul\":25285:25307   */\n      and\n        /* \"#utility.yul\":25335:25372   */\n      tag_503\n        /* \"#utility.yul\":25367:25371   */\n      dup7\n        /* \"#utility.yul\":25335:25372   */\n      tag_242\n      jump\t// in\n    tag_503:\n        /* \"#utility.yul\":25394:25395   */\n      0x00\n        /* \"#utility.yul\":25408:25616   */\n    tag_504:\n        /* \"#utility.yul\":25422:25429   */\n      dup3\n        /* \"#utility.yul\":25419:25420   */\n      dup2\n        /* \"#utility.yul\":25416:25430   */\n      lt\n        /* \"#utility.yul\":25408:25616   */\n      iszero\n      tag_506\n      jumpi\n        /* \"#utility.yul\":25501:25510   */\n      dup5\n        /* \"#utility.yul\":25496:25499   */\n      dup10\n        /* \"#utility.yul\":25492:25511   */\n      add\n        /* \"#utility.yul\":25486:25512   */\n      mload\n        /* \"#utility.yul\":25478:25484   */\n      dup3\n        /* \"#utility.yul\":25471:25513   */\n      sstore\n        /* \"#utility.yul\":25552:25553   */\n      0x01\n        /* \"#utility.yul\":25544:25550   */\n      dup3\n        /* \"#utility.yul\":25540:25554   */\n      add\n        /* \"#utility.yul\":25530:25554   */\n      swap2\n      pop\n        /* \"#utility.yul\":25599:25601   */\n      0x20\n        /* \"#utility.yul\":25588:25597   */\n      dup6\n        /* \"#utility.yul\":25584:25602   */\n      add\n        /* \"#utility.yul\":25571:25602   */\n      swap5\n      pop\n        /* \"#utility.yul\":25445:25449   */\n      0x20\n        /* \"#utility.yul\":25442:25443   */\n      dup2\n        /* \"#utility.yul\":25438:25450   */\n      add\n        /* \"#utility.yul\":25433:25450   */\n      swap1\n      pop\n        /* \"#utility.yul\":25408:25616   */\n      jump(tag_504)\n    tag_506:\n        /* \"#utility.yul\":25644:25650   */\n      dup7\n        /* \"#utility.yul\":25635:25642   */\n      dup4\n        /* \"#utility.yul\":25632:25651   */\n      lt\n        /* \"#utility.yul\":25629:25808   */\n      iszero\n      tag_507\n      jumpi\n        /* \"#utility.yul\":25702:25711   */\n      dup5\n        /* \"#utility.yul\":25697:25700   */\n      dup10\n        /* \"#utility.yul\":25693:25712   */\n      add\n        /* \"#utility.yul\":25687:25713   */\n      mload\n        /* \"#utility.yul\":25745:25793   */\n      tag_508\n        /* \"#utility.yul\":25787:25791   */\n      0x1f\n        /* \"#utility.yul\":25779:25785   */\n      dup10\n        /* \"#utility.yul\":25775:25792   */\n      and\n        /* \"#utility.yul\":25764:25773   */\n      dup3\n        /* \"#utility.yul\":25745:25793   */\n      tag_255\n      jump\t// in\n    tag_508:\n        /* \"#utility.yul\":25737:25743   */\n      dup4\n        /* \"#utility.yul\":25730:25794   */\n      sstore\n        /* \"#utility.yul\":25652:25808   */\n      pop\n        /* \"#utility.yul\":25629:25808   */\n    tag_507:\n        /* \"#utility.yul\":25854:25855   */\n      0x01\n        /* \"#utility.yul\":25850:25851   */\n      0x02\n        /* \"#utility.yul\":25842:25848   */\n      dup9\n        /* \"#utility.yul\":25838:25852   */\n      mul\n        /* \"#utility.yul\":25834:25856   */\n      add\n        /* \"#utility.yul\":25828:25832   */\n      dup9\n        /* \"#utility.yul\":25821:25857   */\n      sstore\n        /* \"#utility.yul\":25256:25867   */\n      pop\n      pop\n      pop\n        /* \"#utility.yul\":25219:26106   */\n    tag_499:\n      pop\n        /* \"#utility.yul\":24809:26112   */\n      pop\n      pop\n      pop\n        /* \"#utility.yul\":24717:26112   */\n      pop\n      pop\n      jump\t// out\n        /* \"#utility.yul\":26118:26351   */\n    tag_141:\n        /* \"#utility.yul\":26157:26160   */\n      0x00\n        /* \"#utility.yul\":26180:26204   */\n      tag_510\n        /* \"#utility.yul\":26198:26203   */\n      dup3\n        /* \"#utility.yul\":26180:26204   */\n      tag_192\n      jump\t// in\n    tag_510:\n        /* \"#utility.yul\":26171:26204   */\n      swap2\n      pop\n        /* \"#utility.yul\":26226:26292   */\n      0xffffffffffffffffffffffffffffffffffffffffffffffffffffffffffffffff\n        /* \"#utility.yul\":26219:26224   */\n      dup3\n        /* \"#utility.yul\":26216:26293   */\n      sub\n        /* \"#utility.yul\":26213:26316   */\n      tag_511\n      jumpi\n        /* \"#utility.yul\":26296:26314   */\n      tag_512\n      tag_235\n      jump\t// in\n    tag_512:\n        /* \"#utility.yul\":26213:26316   */\n    tag_511:\n        /* \"#utility.yul\":26343:26344   */\n      0x01\n        /* \"#utility.yul\":26336:26341   */\n      dup3\n        /* \"#utility.yul\":26332:26345   */\n      add\n        /* \"#utility.yul\":26325:26345   */\n      swap1\n      pop\n        /* \"#utility.yul\":26118:26351   */\n      swap2\n      swap1\n      pop\n      jump\t// out\n        /* \"#utility.yul\":26357:26594   */\n    tag_257:\n        /* \"#utility.yul\":26497:26531   */\n      0x4974277320616c7265616479206265656e20617070726f76656420616e642063\n        /* \"#utility.yul\":26493:26494   */\n      0x00\n        /* \"#utility.yul\":26485:26491   */\n      dup3\n        /* \"#utility.yul\":26481:26495   */\n      add\n        /* \"#utility.yul\":26474:26532   */\n      mstore\n        /* \"#utility.yul\":26566:26586   */\n      0x616e2774206265207265636c61696d65642e0000000000000000000000000000\n        /* \"#utility.yul\":26561:26563   */\n      0x20\n        /* \"#utility.yul\":26553:26559   */\n      dup3\n        /* \"#utility.yul\":26549:26564   */\n      add\n        /* \"#utility.yul\":26542:26587   */\n      mstore\n        /* \"#utility.yul\":26357:26594   */\n      pop\n      jump\t// out\n        /* \"#utility.yul\":26600:26966   */\n    tag_258:\n        /* \"#utility.yul\":26742:26745   */\n      0x00\n        /* \"#utility.yul\":26763:26830   */\n      tag_515\n        /* \"#utility.yul\":26827:26829   */\n      0x32\n        /* \"#utility.yul\":26822:26825   */\n      dup4\n        /* \"#utility.yul\":26763:26830   */\n      tag_212\n      jump\t// in\n    tag_515:\n        /* \"#utility.yul\":26756:26830   */\n      swap2\n      pop\n        /* \"#utility.yul\":26839:26932   */\n      tag_516\n        /* \"#utility.yul\":26928:26931   */\n      dup3\n        /* \"#utility.yul\":26839:26932   */\n      tag_257\n      jump\t// in\n    tag_516:\n        /* \"#utility.yul\":26957:26959   */\n      0x40\n        /* \"#utility.yul\":26952:26955   */\n      dup3\n        /* \"#utility.yul\":26948:26960   */\n      add\n        /* \"#utility.yul\":26941:26960   */\n      swap1\n      pop\n        /* \"#utility.yul\":26600:26966   */\n      swap2\n      swap1\n      pop\n      jump\t// out\n        /* \"#utility.yul\":26972:27391   */\n    tag_161:\n        /* \"#utility.yul\":27138:27142   */\n      0x00\n        /* \"#utility.yul\":27176:27178   */\n      0x20\n        /* \"#utility.yul\":27165:27174   */\n      dup3\n        /* \"#utility.yul\":27161:27179   */\n      add\n        /* \"#utility.yul\":27153:27179   */\n      swap1\n      pop\n        /* \"#utility.yul\":27225:27234   */\n      dup2\n        /* \"#utility.yul\":27219:27223   */\n      dup2\n        /* \"#utility.yul\":27215:27235   */\n      sub\n        /* \"#utility.yul\":27211:27212   */\n      0x00\n        /* \"#utility.yul\":27200:27209   */\n      dup4\n        /* \"#utility.yul\":27196:27213   */\n      add\n        /* \"#utility.yul\":27189:27236   */\n      mstore\n        /* \"#utility.yul\":27253:27384   */\n      tag_518\n        /* \"#utility.yul\":27379:27383   */\n      dup2\n        /* \"#utility.yul\":27253:27384   */\n      tag_258\n      jump\t// in\n    tag_518:\n        /* \"#utility.yul\":27245:27384   */\n      swap1\n      pop\n        /* \"#utility.yul\":26972:27391   */\n      swap2\n      swap1\n      pop\n      jump\t// out\n        /* \"#utility.yul\":27397:27569   */\n    tag_259:\n        /* \"#utility.yul\":27537:27561   */\n      0x416c72656164792074616b656e2063617265206f662e00000000000000000000\n        /* \"#utility.yul\":27533:27534   */\n      0x00\n        /* \"#utility.yul\":27525:27531   */\n      dup3\n        /* \"#utility.yul\":27521:27535   */\n      add\n        /* \"#utility.yul\":27514:27562   */\n      mstore\n        /* \"#utility.yul\":27397:27569   */\n      pop\n      jump\t// out\n        /* \"#utility.yul\":27575:27941   */\n    tag_260:\n        /* \"#utility.yul\":27717:27720   */\n      0x00\n        /* \"#utility.yul\":27738:27805   */\n      tag_521\n        /* \"#utility.yul\":27802:27804   */\n      0x16\n        /* \"#utility.yul\":27797:27800   */\n      dup4\n        /* \"#utility.yul\":27738:27805   */\n      tag_212\n      jump\t// in\n    tag_521:\n        /* \"#utility.yul\":27731:27805   */\n      swap2\n      pop\n        /* \"#utility.yul\":27814:27907   */\n      tag_522\n        /* \"#utility.yul\":27903:27906   */\n      dup3\n        /* \"#utility.yul\":27814:27907   */\n      tag_259\n      jump\t// in\n    tag_522:\n        /* \"#utility.yul\":27932:27934   */\n      0x20\n        /* \"#utility.yul\":27927:27930   */\n      dup3\n        /* \"#utility.yul\":27923:27935   */\n      add\n        /* \"#utility.yul\":27916:27935   */\n      swap1\n      pop\n        /* \"#utility.yul\":27575:27941   */\n      swap2\n      swap1\n      pop\n      jump\t// out\n        /* \"#utility.yul\":27947:28366   */\n    tag_164:\n        /* \"#utility.yul\":28113:28117   */\n      0x00\n        /* \"#utility.yul\":28151:28153   */\n      0x20\n        /* \"#utility.yul\":28140:28149   */\n      dup3\n        /* \"#utility.yul\":28136:28154   */\n      add\n        /* \"#utility.yul\":28128:28154   */\n      swap1\n      pop\n        /* \"#utility.yul\":28200:28209   */\n      dup2\n        /* \"#utility.yul\":28194:28198   */\n      dup2\n        /* \"#utility.yul\":28190:28210   */\n      sub\n        /* \"#utility.yul\":28186:28187   */\n      0x00\n        /* \"#utility.yul\":28175:28184   */\n      dup4\n        /* \"#utility.yul\":28171:28188   */\n      add\n        /* \"#utility.yul\":28164:28211   */\n      mstore\n        /* \"#utility.yul\":28228:28359   */\n      tag_524\n        /* \"#utility.yul\":28354:28358   */\n      dup2\n        /* \"#utility.yul\":28228:28359   */\n      tag_260\n      jump\t// in\n    tag_524:\n        /* \"#utility.yul\":28220:28359   */\n      swap1\n      pop\n        /* \"#utility.yul\":27947:28366   */\n      swap2\n      swap1\n      pop\n      jump\t// out\n        /* \"#utility.yul\":28372:28551   */\n    tag_261:\n        /* \"#utility.yul\":28512:28543   */\n      0x5468652070726f6772616d206861736e277420656e646564207965742e000000\n        /* \"#utility.yul\":28508:28509   */\n      0x00\n        /* \"#utility.yul\":28500:28506   */\n      dup3\n        /* \"#utility.yul\":28496:28510   */\n      add\n        /* \"#utility.yul\":28489:28544   */\n      mstore\n        /* \"#utility.yul\":28372:28551   */\n      pop\n      jump\t// out\n        /* \"#utility.yul\":28557:28923   */\n    tag_262:\n        /* \"#utility.yul\":28699:28702   */\n      0x00\n        /* \"#utility.yul\":28720:28787   */\n      tag_527\n        /* \"#utility.yul\":28784:28786   */\n      0x1d\n        /* \"#utility.yul\":28779:28782   */\n      dup4\n        /* \"#utility.yul\":28720:28787   */\n      tag_212\n      jump\t// in\n    tag_527:\n        /* \"#utility.yul\":28713:28787   */\n      swap2\n      pop\n        /* \"#utility.yul\":28796:28889   */\n      tag_528\n        /* \"#utility.yul\":28885:28888   */\n      dup3\n        /* \"#utility.yul\":28796:28889   */\n      tag_261\n      jump\t// in\n    tag_528:\n        /* \"#utility.yul\":28914:28916   */\n      0x20\n        /* \"#utility.yul\":28909:28912   */\n      dup3\n        /* \"#utility.yul\":28905:28917   */\n      add\n        /* \"#utility.yul\":28898:28917   */\n      swap1\n      pop\n        /* \"#utility.yul\":28557:28923   */\n      swap2\n      swap1\n      pop\n      jump\t// out\n        /* \"#utility.yul\":28929:29348   */\n    tag_167:\n        /* \"#utility.yul\":29095:29099   */\n      0x00\n        /* \"#utility.yul\":29133:29135   */\n      0x20\n        /* \"#utility.yul\":29122:29131   */\n      dup3\n        /* \"#utility.yul\":29118:29136   */\n      add\n        /* \"#utility.yul\":29110:29136   */\n      swap1\n      pop\n        /* \"#utility.yul\":29182:29191   */\n      dup2\n        /* \"#utility.yul\":29176:29180   */\n      dup2\n        /* \"#utility.yul\":29172:29192   */\n      sub\n        /* \"#utility.yul\":29168:29169   */\n      0x00\n        /* \"#utility.yul\":29157:29166   */\n      dup4\n        /* \"#utility.yul\":29153:29170   */\n      add\n        /* \"#utility.yul\":29146:29193   */\n      mstore\n        /* \"#utility.yul\":29210:29341   */\n      tag_530\n        /* \"#utility.yul\":29336:29340   */\n      dup2\n        /* \"#utility.yul\":29210:29341   */\n      tag_262\n      jump\t// in\n    tag_530:\n        /* \"#utility.yul\":29202:29341   */\n      swap1\n      pop\n        /* \"#utility.yul\":28929:29348   */\n      swap2\n      swap1\n      pop\n      jump\t// out\n        /* \"#utility.yul\":29354:29575   */\n    tag_263:\n        /* \"#utility.yul\":29494:29528   */\n      0x596f7520646f6e27742068617665207265636c616d6174696f6e207269676874\n        /* \"#utility.yul\":29490:29491   */\n      0x00\n        /* \"#utility.yul\":29482:29488   */\n      dup3\n        /* \"#utility.yul\":29478:29492   */\n      add\n        /* \"#utility.yul\":29471:29529   */\n      mstore\n        /* \"#utility.yul\":29563:29567   */\n      0x732e000000000000000000000000000000000000000000000000000000000000\n        /* \"#utility.yul\":29558:29560   */\n      0x20\n        /* \"#utility.yul\":29550:29556   */\n      dup3\n        /* \"#utility.yul\":29546:29561   */\n      add\n        /* \"#utility.yul\":29539:29568   */\n      mstore\n        /* \"#utility.yul\":29354:29575   */\n      pop\n      jump\t// out\n        /* \"#utility.yul\":29581:29947   */\n    tag_264:\n        /* \"#utility.yul\":29723:29726   */\n      0x00\n        /* \"#utility.yul\":29744:29811   */\n      tag_533\n        /* \"#utility.yul\":29808:29810   */\n      0x22\n        /* \"#utility.yul\":29803:29806   */\n      dup4\n        /* \"#utility.yul\":29744:29811   */\n      tag_212\n      jump\t// in\n    tag_533:\n        /* \"#utility.yul\":29737:29811   */\n      swap2\n      pop\n        /* \"#utility.yul\":29820:29913   */\n      tag_534\n        /* \"#utility.yul\":29909:29912   */\n      dup3\n        /* \"#utility.yul\":29820:29913   */\n      tag_263\n      jump\t// in\n    tag_534:\n        /* \"#utility.yul\":29938:29940   */\n      0x40\n        /* \"#utility.yul\":29933:29936   */\n      dup3\n        /* \"#utility.yul\":29929:29941   */\n      add\n        /* \"#utility.yul\":29922:29941   */\n      swap1\n      pop\n        /* \"#utility.yul\":29581:29947   */\n      swap2\n      swap1\n      pop\n      jump\t// out\n        /* \"#utility.yul\":29953:30372   */\n    tag_170:\n        /* \"#utility.yul\":30119:30123   */\n      0x00\n        /* \"#utility.yul\":30157:30159   */\n      0x20\n        /* \"#utility.yul\":30146:30155   */\n      dup3\n        /* \"#utility.yul\":30142:30160   */\n      add\n        /* \"#utility.yul\":30134:30160   */\n      swap1\n      pop\n        /* \"#utility.yul\":30206:30215   */\n      dup2\n        /* \"#utility.yul\":30200:30204   */\n      dup2\n        /* \"#utility.yul\":30196:30216   */\n      sub\n        /* \"#utility.yul\":30192:30193   */\n      0x00\n        /* \"#utility.yul\":30181:30190   */\n      dup4\n        /* \"#utility.yul\":30177:30194   */\n      add\n        /* \"#utility.yul\":30170:30217   */\n      mstore\n        /* \"#utility.yul\":30234:30365   */\n      tag_536\n        /* \"#utility.yul\":30360:30364   */\n      dup2\n        /* \"#utility.yul\":30234:30365   */\n      tag_264\n      jump\t// in\n    tag_536:\n        /* \"#utility.yul\":30226:30365   */\n      swap1\n      pop\n        /* \"#utility.yul\":29953:30372   */\n      swap2\n      swap1\n      pop\n      jump\t// out\n        /* \"#utility.yul\":30378:30559   */\n    tag_265:\n        /* \"#utility.yul\":30518:30551   */\n      0x5265656e7472616e637947756172643a207265656e7472616e742063616c6c00\n        /* \"#utility.yul\":30514:30515   */\n      0x00\n        /* \"#utility.yul\":30506:30512   */\n      dup3\n        /* \"#utility.yul\":30502:30516   */\n      add\n        /* \"#utility.yul\":30495:30552   */\n      mstore\n        /* \"#utility.yul\":30378:30559   */\n      pop\n      jump\t// out\n        /* \"#utility.yul\":30565:30931   */\n    tag_266:\n        /* \"#utility.yul\":30707:30710   */\n      0x00\n        /* \"#utility.yul\":30728:30795   */\n      tag_539\n        /* \"#utility.yul\":30792:30794   */\n      0x1f\n        /* \"#utility.yul\":30787:30790   */\n      dup4\n        /* \"#utility.yul\":30728:30795   */\n      tag_212\n      jump\t// in\n    tag_539:\n        /* \"#utility.yul\":30721:30795   */\n      swap2\n      pop\n        /* \"#utility.yul\":30804:30897   */\n      tag_540\n        /* \"#utility.yul\":30893:30896   */\n      dup3\n        /* \"#utility.yul\":30804:30897   */\n      tag_265\n      jump\t// in\n    tag_540:\n        /* \"#utility.yul\":30922:30924   */\n      0x20\n        /* \"#utility.yul\":30917:30920   */\n      dup3\n        /* \"#utility.yul\":30913:30925   */\n      add\n        /* \"#utility.yul\":30906:30925   */\n      swap1\n      pop\n        /* \"#utility.yul\":30565:30931   */\n      swap2\n      swap1\n      pop\n      jump\t// out\n        /* \"#utility.yul\":30937:31356   */\n    tag_186:\n        /* \"#utility.yul\":31103:31107   */\n      0x00\n        /* \"#utility.yul\":31141:31143   */\n      0x20\n        /* \"#utility.yul\":31130:31139   */\n      dup3\n        /* \"#utility.yul\":31126:31144   */\n      add\n        /* \"#utility.yul\":31118:31144   */\n      swap1\n      pop\n        /* \"#utility.yul\":31190:31199   */\n      dup2\n        /* \"#utility.yul\":31184:31188   */\n      dup2\n        /* \"#utility.yul\":31180:31200   */\n      sub\n        /* \"#utility.yul\":31176:31177   */\n      0x00\n        /* \"#utility.yul\":31165:31174   */\n      dup4\n        /* \"#utility.yul\":31161:31178   */\n      add\n        /* \"#utility.yul\":31154:31201   */\n      mstore\n        /* \"#utility.yul\":31218:31349   */\n      tag_542\n        /* \"#utility.yul\":31344:31348   */\n      dup2\n        /* \"#utility.yul\":31218:31349   */\n      tag_266\n      jump\t// in\n    tag_542:\n        /* \"#utility.yul\":31210:31349   */\n      swap1\n      pop\n        /* \"#utility.yul\":30937:31356   */\n      swap2\n      swap1\n      pop\n      jump\t// out\n\n    auxdata: 0xa26469706673582212204fcfec86cc6eb48944af09465a70c9569d83cbce02fbc73176355664ccb3e7c264736f6c634300081a0033\n}\n",
				"bytecode": {
					"linkReferences": {},
					"object": "608060405234801561000f575f80fd5b5060405161253e38038061253e833981810160405281019061003191906101de565b805f73ffffffffffffffffffffffffffffffffffffffff168173ffffffffffffffffffffffffffffffffffffffff16036100a2575f6040517f1e4fbdf70000000000000000000000000000000000000000000000000000000081526004016100999190610218565b60405180910390fd5b6100b1816100bf60201b60201c565b506001808190555050610231565b5f805f9054906101000a900473ffffffffffffffffffffffffffffffffffffffff169050815f806101000a81548173ffffffffffffffffffffffffffffffffffffffff021916908373ffffffffffffffffffffffffffffffffffffffff1602179055508173ffffffffffffffffffffffffffffffffffffffff168173ffffffffffffffffffffffffffffffffffffffff167f8be0079c531659141344cd1fd0a4f28419497f9722a3daafe3b4186f6b6457e060405160405180910390a35050565b5f80fd5b5f73ffffffffffffffffffffffffffffffffffffffff82169050919050565b5f6101ad82610184565b9050919050565b6101bd816101a3565b81146101c7575f80fd5b50565b5f815190506101d8816101b4565b92915050565b5f602082840312156101f3576101f2610180565b5b5f610200848285016101ca565b91505092915050565b610212816101a3565b82525050565b5f60208201905061022b5f830184610209565b92915050565b6123008061023e5f395ff3fe6080604052600436106100a6575f3560e01c8063ba71b33011610063578063ba71b3301461018a578063bf9d6337146101b4578063ced72f87146101d0578063d613fd24146101fa578063f2fde38b1461023f578063f9f161a814610267576100a6565b80633db3ca89146100aa5780635a27cbcb146100d257806369fe0e2d146100fa578063715018a61461012257806386e0d85a146101385780638da5cb5b14610160575b5f80fd5b3480156100b5575f80fd5b506100d060048036038101906100cb9190611317565b61028f565b005b3480156100dd575f80fd5b506100f860048036038101906100f39190611317565b610469565b005b348015610105575f80fd5b50610120600480360381019061011b9190611355565b61058d565b005b34801561012d575f80fd5b506101366105d6565b005b348015610143575f80fd5b5061015e60048036038101906101599190611355565b6105e9565b005b34801561016b575f80fd5b50610174610940565b604051610181919061138f565b60405180910390f35b348015610195575f80fd5b5061019e610967565b6040516101ab91906113b7565b60405180910390f35b6101ce60048036038101906101c9919061150c565b61096d565b005b3480156101db575f80fd5b506101e4610c6c565b6040516101f191906113b7565b60405180910390f35b348015610205575f80fd5b50610220600480360381019061021b9190611355565b610c75565b6040516102369a99989796959493929190611619565b60405180910390f35b34801561024a575f80fd5b50610265600480360381019061026091906116ba565b610dc2565b005b348015610272575f80fd5b5061028d60048036038101906102889190611355565b610e46565b005b5f60025f8481526020019081526020015f209050806006015f9054906101000a900473ffffffffffffffffffffffffffffffffffffffff1673ffffffffffffffffffffffffffffffffffffffff163373ffffffffffffffffffffffffffffffffffffffff1614610334576040517f08c379a000000000000000000000000000000000000000000000000000000000815260040161032b90611755565b60405180910390fd5b806004015442111561037b576040517f08c379a0000000000000000000000000000000000000000000000000000000008152600401610372906117bd565b60405180910390fd5b8060060160149054906101000a900460ff16156103cd576040517f08c379a00000000000000000000000000000000000000000000000000000000081526004016103c490611825565b60405180910390fd5b60018160060160146101000a81548160ff02191690831515021790555081816007015f6101000a81548173ffffffffffffffffffffffffffffffffffffffff021916908373ffffffffffffffffffffffffffffffffffffffff160217905550827f16bb9e8931574f3f4aa3b7bef9f5b8221823f5f803167e8ac21f9f7c8f9315108360405161045c919061138f565b60405180910390a2505050565b5f60025f8481526020019081526020015f209050806005015f9054906101000a900473ffffffffffffffffffffffffffffffffffffffff1673ffffffffffffffffffffffffffffffffffffffff163373ffffffffffffffffffffffffffffffffffffffff161461050e576040517f08c379a0000000000000000000000000000000000000000000000000000000008152600401610505906118b3565b60405180910390fd5b81816006015f6101000a81548173ffffffffffffffffffffffffffffffffffffffff021916908373ffffffffffffffffffffffffffffffffffffffff160217905550827f10ad6d1a971b78bb9a3a6d20d7d6e9afe165f4d8b812ffb74200382052343db183604051610580919061138f565b60405180910390a2505050565b6105956110d2565b806004819055507f8c4d35e54a3f2ef1134138fd8ea3daee6a3c89e10d2665996babdf70261e2c76816040516105cb91906113b7565b60405180910390a150565b6105de6110d2565b6105e75f611159565b565b6105f161121a565b5f60025f8381526020019081526020015f2090508060060160149054906101000a900460ff16610656576040517f08c379a000000000000000000000000000000000000000000000000000000000815260040161064d9061191b565b60405180910390fd5b8060060160159054906101000a900460ff16156106a8576040517f08c379a000000000000000000000000000000000000000000000000000000000815260040161069f90611983565b60405180910390fd5b806007015f9054906101000a900473ffffffffffffffffffffffffffffffffffffffff1673ffffffffffffffffffffffffffffffffffffffff163373ffffffffffffffffffffffffffffffffffffffff1614610739576040517f08c379a000000000000000000000000000000000000000000000000000000000815260040161073090611a11565b60405180910390fd5b8060030154421015610780576040517f08c379a000000000000000000000000000000000000000000000000000000000815260040161077790611a79565b60405180910390fd5b80600401544211156107c7576040517f08c379a00000000000000000000000000000000000000000000000000000000081526004016107be90611b07565b60405180910390fd5b60018160060160156101000a81548160ff0219169083151502179055505f816002015490505f600454111561086f575f612710600454836108089190611b52565b6108129190611bc0565b905080826108209190611bf0565b915061082a610940565b73ffffffffffffffffffffffffffffffffffffffff166108fc8290811502906040515f60405180830381858888f1935050505015801561086c573d5f803e3d5ffd5b50505b816007015f9054906101000a900473ffffffffffffffffffffffffffffffffffffffff1673ffffffffffffffffffffffffffffffffffffffff166108fc8290811502906040515f60405180830381858888f193505050501580156108d5573d5f803e3d5ffd5b50827f7099040ff4abf6b015bd1004cbf11ec796c3d4abcaec3514db1c93599297d39f836007015f9054906101000a900473ffffffffffffffffffffffffffffffffffffffff168360405161092b929190611c23565b60405180910390a2505061093d611269565b50565b5f805f9054906101000a900473ffffffffffffffffffffffffffffffffffffffff16905090565b60035481565b8334146109af576040517f08c379a00000000000000000000000000000000000000000000000000000000081526004016109a690611cba565b60405180910390fd5b8183106109f1576040517f08c379a00000000000000000000000000000000000000000000000000000000081526004016109e890611d48565b60405180910390fd5b5f60035490506040518061014001604052808281526020018781526020018681526020018581526020018481526020013373ffffffffffffffffffffffffffffffffffffffff1681526020018373ffffffffffffffffffffffffffffffffffffffff1681526020015f151581526020015f151581526020015f73ffffffffffffffffffffffffffffffffffffffff1681525060025f8381526020019081526020015f205f820151815f01556020820151816001019081610ab19190611f60565b5060408201518160020155606082015181600301556080820151816004015560a0820151816005015f6101000a81548173ffffffffffffffffffffffffffffffffffffffff021916908373ffffffffffffffffffffffffffffffffffffffff16021790555060c0820151816006015f6101000a81548173ffffffffffffffffffffffffffffffffffffffff021916908373ffffffffffffffffffffffffffffffffffffffff16021790555060e08201518160060160146101000a81548160ff0219169083151502179055506101008201518160060160156101000a81548160ff021916908315150217905550610120820151816007015f6101000a81548173ffffffffffffffffffffffffffffffffffffffff021916908373ffffffffffffffffffffffffffffffffffffffff16021790555090505060035f815480929190610bf99061202f565b91905055508173ffffffffffffffffffffffffffffffffffffffff163373ffffffffffffffffffffffffffffffffffffffff16827f808c887919683a350ed55b3499f97ed7f4093ecc5e131fadb8b075a85457af3a88604051610c5c91906113b7565b60405180910390a4505050505050565b5f600454905090565b6002602052805f5260405f205f91509050805f015490806001018054610c9a90611d93565b80601f0160208091040260200160405190810160405280929190818152602001828054610cc690611d93565b8015610d115780601f10610ce857610100808354040283529160200191610d11565b820191905f5260205f20905b815481529060010190602001808311610cf457829003601f168201915b505050505090806002015490806003015490806004015490806005015f9054906101000a900473ffffffffffffffffffffffffffffffffffffffff1690806006015f9054906101000a900473ffffffffffffffffffffffffffffffffffffffff16908060060160149054906101000a900460ff16908060060160159054906101000a900460ff1690806007015f9054906101000a900473ffffffffffffffffffffffffffffffffffffffff1690508a565b610dca6110d2565b5f73ffffffffffffffffffffffffffffffffffffffff168173ffffffffffffffffffffffffffffffffffffffff1603610e3a575f6040517f1e4fbdf7000000000000000000000000000000000000000000000000000000008152600401610e31919061138f565b60405180910390fd5b610e4381611159565b50565b610e4e61121a565b5f60025f8381526020019081526020015f2090508060060160149054906101000a900460ff1615610eb4576040517f08c379a0000000000000000000000000000000000000000000000000000000008152600401610eab906120e6565b60405180910390fd5b8060060160159054906101000a900460ff1615610f06576040517f08c379a0000000000000000000000000000000000000000000000000000000008152600401610efd9061214e565b60405180910390fd5b80600401544211610f4c576040517f08c379a0000000000000000000000000000000000000000000000000000000008152600401610f43906121b6565b60405180910390fd5b806005015f9054906101000a900473ffffffffffffffffffffffffffffffffffffffff1673ffffffffffffffffffffffffffffffffffffffff163373ffffffffffffffffffffffffffffffffffffffff1614610fdd576040517f08c379a0000000000000000000000000000000000000000000000000000000008152600401610fd490612244565b60405180910390fd5b60018160060160156101000a81548160ff021916908315150217905550806005015f9054906101000a900473ffffffffffffffffffffffffffffffffffffffff1673ffffffffffffffffffffffffffffffffffffffff166108fc826002015490811502906040515f60405180830381858888f19350505050158015611064573d5f803e3d5ffd5b50817fd37c0b9c7560299a7c963d03165111d712663805228e5ffca03d540c5d6e410e826005015f9054906101000a900473ffffffffffffffffffffffffffffffffffffffff1683600201546040516110be929190611c23565b60405180910390a2506110cf611269565b50565b6110da611272565b73ffffffffffffffffffffffffffffffffffffffff166110f8610940565b73ffffffffffffffffffffffffffffffffffffffff16146111575761111b611272565b6040517f118cdaa700000000000000000000000000000000000000000000000000000000815260040161114e919061138f565b60405180910390fd5b565b5f805f9054906101000a900473ffffffffffffffffffffffffffffffffffffffff169050815f806101000a81548173ffffffffffffffffffffffffffffffffffffffff021916908373ffffffffffffffffffffffffffffffffffffffff1602179055508173ffffffffffffffffffffffffffffffffffffffff168173ffffffffffffffffffffffffffffffffffffffff167f8be0079c531659141344cd1fd0a4f28419497f9722a3daafe3b4186f6b6457e060405160405180910390a35050565b60026001540361125f576040517f08c379a0000000000000000000000000000000000000000000000000000000008152600401611256906122ac565b60405180910390fd5b6002600181905550565b60018081905550565b5f33905090565b5f604051905090565b5f80fd5b5f80fd5b5f819050919050565b61129c8161128a565b81146112a6575f80fd5b50565b5f813590506112b781611293565b92915050565b5f73ffffffffffffffffffffffffffffffffffffffff82169050919050565b5f6112e6826112bd565b9050919050565b6112f6816112dc565b8114611300575f80fd5b50565b5f81359050611311816112ed565b92915050565b5f806040838503121561132d5761132c611282565b5b5f61133a858286016112a9565b925050602061134b85828601611303565b9150509250929050565b5f6020828403121561136a57611369611282565b5b5f611377848285016112a9565b91505092915050565b611389816112dc565b82525050565b5f6020820190506113a25f830184611380565b92915050565b6113b18161128a565b82525050565b5f6020820190506113ca5f8301846113a8565b92915050565b5f80fd5b5f80fd5b5f601f19601f8301169050919050565b7f4e487b71000000000000000000000000000000000000000000000000000000005f52604160045260245ffd5b61141e826113d8565b810181811067ffffffffffffffff8211171561143d5761143c6113e8565b5b80604052505050565b5f61144f611279565b905061145b8282611415565b919050565b5f67ffffffffffffffff82111561147a576114796113e8565b5b611483826113d8565b9050602081019050919050565b828183375f83830152505050565b5f6114b06114ab84611460565b611446565b9050828152602081018484840111156114cc576114cb6113d4565b5b6114d7848285611490565b509392505050565b5f82601f8301126114f3576114f26113d0565b5b813561150384826020860161149e565b91505092915050565b5f805f805f60a0868803121561152557611524611282565b5b5f86013567ffffffffffffffff81111561154257611541611286565b5b61154e888289016114df565b955050602061155f888289016112a9565b9450506040611570888289016112a9565b9350506060611581888289016112a9565b925050608061159288828901611303565b9150509295509295909350565b5f81519050919050565b5f82825260208201905092915050565b8281835e5f83830152505050565b5f6115d18261159f565b6115db81856115a9565b93506115eb8185602086016115b9565b6115f4816113d8565b840191505092915050565b5f8115159050919050565b611613816115ff565b82525050565b5f6101408201905061162d5f83018d6113a8565b818103602083015261163f818c6115c7565b905061164e604083018b6113a8565b61165b606083018a6113a8565b61166860808301896113a8565b61167560a0830188611380565b61168260c0830187611380565b61168f60e083018661160a565b61169d61010083018561160a565b6116ab610120830184611380565b9b9a5050505050505050505050565b5f602082840312156116cf576116ce611282565b5b5f6116dc84828501611303565b91505092915050565b7f596f7520646f6e2774206861766520617070726f76616c207065726d697373695f8201527f6f6e732e00000000000000000000000000000000000000000000000000000000602082015250565b5f61173f6024836115a9565b915061174a826116e5565b604082019050919050565b5f6020820190508181035f83015261176c81611733565b9050919050565b7f5468652070726f6772616d2068617320616c726561647920656e6465642e20005f82015250565b5f6117a7601f836115a9565b91506117b282611773565b602082019050919050565b5f6020820190508181035f8301526117d48161179b565b9050919050565b7f416c726561647920617070726f7665642e0000000000000000000000000000005f82015250565b5f61180f6011836115a9565b915061181a826117db565b602082019050919050565b5f6020820190508181035f83015261183c81611803565b9050919050565b7f4f6e6c792063726561746f72732063616e206368616e676520617070726f76655f8201527f72732e0000000000000000000000000000000000000000000000000000000000602082015250565b5f61189d6023836115a9565b91506118a882611843565b604082019050919050565b5f6020820190508181035f8301526118ca81611891565b9050919050565b7f5468652070726f6772616d206973206e6f7420617070726f7665642e000000005f82015250565b5f611905601c836115a9565b9150611910826118d1565b602082019050919050565b5f6020820190508181035f830152611932816118f9565b9050919050565b7f416c726561647920636c61696d65642e000000000000000000000000000000005f82015250565b5f61196d6010836115a9565b915061197882611939565b602082019050919050565b5f6020820190508181035f83015261199a81611961565b9050919050565b7f596f7520646f206e6f742068617665207065726d697373696f6e20746f20636c5f8201527f61696d2e00000000000000000000000000000000000000000000000000000000602082015250565b5f6119fb6024836115a9565b9150611a06826119a1565b604082019050919050565b5f6020820190508181035f830152611a28816119ef565b9050919050565b7f5468652070726f6772616d20686173206e6f742073746172746564207965742e5f82015250565b5f611a636020836115a9565b9150611a6e82611a2f565b602082019050919050565b5f6020820190508181035f830152611a9081611a57565b9050919050565b7f5468652070726f6772616d2062696c6c696e6720706572696f642068617320705f8201527f61737365642e0000000000000000000000000000000000000000000000000000602082015250565b5f611af16026836115a9565b9150611afc82611a97565b604082019050919050565b5f6020820190508181035f830152611b1e81611ae5565b9050919050565b7f4e487b71000000000000000000000000000000000000000000000000000000005f52601160045260245ffd5b5f611b5c8261128a565b9150611b678361128a565b9250828202611b758161128a565b91508282048414831517611b8c57611b8b611b25565b5b5092915050565b7f4e487b71000000000000000000000000000000000000000000000000000000005f52601260045260245ffd5b5f611bca8261128a565b9150611bd58361128a565b925082611be557611be4611b93565b5b828204905092915050565b5f611bfa8261128a565b9150611c058361128a565b9250828203905081811115611c1d57611c1c611b25565b5b92915050565b5f604082019050611c365f830185611380565b611c4360208301846113a8565b9392505050565b7f546865204554482073656e7420646f6573206e6f74206d6174636820746865205f8201527f70726f6772616d20707269636500000000000000000000000000000000000000602082015250565b5f611ca4602d836115a9565b9150611caf82611c4a565b604082019050919050565b5f6020820190508181035f830152611cd181611c98565b9050919050565b7f5468652053746172742074696d65206d757374206265206561726c69657220745f8201527f68616e2074686520656e642074696d652e000000000000000000000000000000602082015250565b5f611d326031836115a9565b9150611d3d82611cd8565b604082019050919050565b5f6020820190508181035f830152611d5f81611d26565b9050919050565b7f4e487b71000000000000000000000000000000000000000000000000000000005f52602260045260245ffd5b5f6002820490506001821680611daa57607f821691505b602082108103611dbd57611dbc611d66565b5b50919050565b5f819050815f5260205f209050919050565b5f6020601f8301049050919050565b5f82821b905092915050565b5f60088302611e1f7fffffffffffffffffffffffffffffffffffffffffffffffffffffffffffffffff82611de4565b611e298683611de4565b95508019841693508086168417925050509392505050565b5f819050919050565b5f611e64611e5f611e5a8461128a565b611e41565b61128a565b9050919050565b5f819050919050565b611e7d83611e4a565b611e91611e8982611e6b565b848454611df0565b825550505050565b5f90565b611ea5611e99565b611eb0818484611e74565b505050565b5b81811015611ed357611ec85f82611e9d565b600181019050611eb6565b5050565b601f821115611f1857611ee981611dc3565b611ef284611dd5565b81016020851015611f01578190505b611f15611f0d85611dd5565b830182611eb5565b50505b505050565b5f82821c905092915050565b5f611f385f1984600802611f1d565b1980831691505092915050565b5f611f508383611f29565b9150826002028217905092915050565b611f698261159f565b67ffffffffffffffff811115611f8257611f816113e8565b5b611f8c8254611d93565b611f97828285611ed7565b5f60209050601f831160018114611fc8575f8415611fb6578287015190505b611fc08582611f45565b865550612027565b601f198416611fd686611dc3565b5f5b82811015611ffd57848901518255600182019150602085019450602081019050611fd8565b8683101561201a5784890151612016601f891682611f29565b8355505b6001600288020188555050505b505050505050565b5f6120398261128a565b91507fffffffffffffffffffffffffffffffffffffffffffffffffffffffffffffffff820361206b5761206a611b25565b5b600182019050919050565b7f4974277320616c7265616479206265656e20617070726f76656420616e6420635f8201527f616e2774206265207265636c61696d65642e0000000000000000000000000000602082015250565b5f6120d06032836115a9565b91506120db82612076565b604082019050919050565b5f6020820190508181035f8301526120fd816120c4565b9050919050565b7f416c72656164792074616b656e2063617265206f662e000000000000000000005f82015250565b5f6121386016836115a9565b915061214382612104565b602082019050919050565b5f6020820190508181035f8301526121658161212c565b9050919050565b7f5468652070726f6772616d206861736e277420656e646564207965742e0000005f82015250565b5f6121a0601d836115a9565b91506121ab8261216c565b602082019050919050565b5f6020820190508181035f8301526121cd81612194565b9050919050565b7f596f7520646f6e27742068617665207265636c616d6174696f6e2072696768745f8201527f732e000000000000000000000000000000000000000000000000000000000000602082015250565b5f61222e6022836115a9565b9150612239826121d4565b604082019050919050565b5f6020820190508181035f83015261225b81612222565b9050919050565b7f5265656e7472616e637947756172643a207265656e7472616e742063616c6c005f82015250565b5f612296601f836115a9565b91506122a182612262565b602082019050919050565b5f6020820190508181035f8301526122c38161228a565b905091905056fea26469706673582212204fcfec86cc6eb48944af09465a70c9569d83cbce02fbc73176355664ccb3e7c264736f6c634300081a0033",
					"opcodes": "PUSH1 0x80 PUSH1 0x40 MSTORE CALLVALUE DUP1 ISZERO PUSH2 0xF JUMPI PUSH0 DUP1 REVERT JUMPDEST POP PUSH1 0x40 MLOAD PUSH2 0x253E CODESIZE SUB DUP1 PUSH2 0x253E DUP4 CODECOPY DUP2 DUP2 ADD PUSH1 0x40 MSTORE DUP2 ADD SWAP1 PUSH2 0x31 SWAP2 SWAP1 PUSH2 0x1DE JUMP JUMPDEST DUP1 PUSH0 PUSH20 0xFFFFFFFFFFFFFFFFFFFFFFFFFFFFFFFFFFFFFFFF AND DUP2 PUSH20 0xFFFFFFFFFFFFFFFFFFFFFFFFFFFFFFFFFFFFFFFF AND SUB PUSH2 0xA2 JUMPI PUSH0 PUSH1 0x40 MLOAD PUSH32 0x1E4FBDF700000000000000000000000000000000000000000000000000000000 DUP2 MSTORE PUSH1 0x4 ADD PUSH2 0x99 SWAP2 SWAP1 PUSH2 0x218 JUMP JUMPDEST PUSH1 0x40 MLOAD DUP1 SWAP2 SUB SWAP1 REVERT JUMPDEST PUSH2 0xB1 DUP2 PUSH2 0xBF PUSH1 0x20 SHL PUSH1 0x20 SHR JUMP JUMPDEST POP PUSH1 0x1 DUP1 DUP2 SWAP1 SSTORE POP POP PUSH2 0x231 JUMP JUMPDEST PUSH0 DUP1 PUSH0 SWAP1 SLOAD SWAP1 PUSH2 0x100 EXP SWAP1 DIV PUSH20 0xFFFFFFFFFFFFFFFFFFFFFFFFFFFFFFFFFFFFFFFF AND SWAP1 POP DUP2 PUSH0 DUP1 PUSH2 0x100 EXP DUP2 SLOAD DUP2 PUSH20 0xFFFFFFFFFFFFFFFFFFFFFFFFFFFFFFFFFFFFFFFF MUL NOT AND SWAP1 DUP4 PUSH20 0xFFFFFFFFFFFFFFFFFFFFFFFFFFFFFFFFFFFFFFFF AND MUL OR SWAP1 SSTORE POP DUP2 PUSH20 0xFFFFFFFFFFFFFFFFFFFFFFFFFFFFFFFFFFFFFFFF AND DUP2 PUSH20 0xFFFFFFFFFFFFFFFFFFFFFFFFFFFFFFFFFFFFFFFF AND PUSH32 0x8BE0079C531659141344CD1FD0A4F28419497F9722A3DAAFE3B4186F6B6457E0 PUSH1 0x40 MLOAD PUSH1 0x40 MLOAD DUP1 SWAP2 SUB SWAP1 LOG3 POP POP JUMP JUMPDEST PUSH0 DUP1 REVERT JUMPDEST PUSH0 PUSH20 0xFFFFFFFFFFFFFFFFFFFFFFFFFFFFFFFFFFFFFFFF DUP3 AND SWAP1 POP SWAP2 SWAP1 POP JUMP JUMPDEST PUSH0 PUSH2 0x1AD DUP3 PUSH2 0x184 JUMP JUMPDEST SWAP1 POP SWAP2 SWAP1 POP JUMP JUMPDEST PUSH2 0x1BD DUP2 PUSH2 0x1A3 JUMP JUMPDEST DUP2 EQ PUSH2 0x1C7 JUMPI PUSH0 DUP1 REVERT JUMPDEST POP JUMP JUMPDEST PUSH0 DUP2 MLOAD SWAP1 POP PUSH2 0x1D8 DUP2 PUSH2 0x1B4 JUMP JUMPDEST SWAP3 SWAP2 POP POP JUMP JUMPDEST PUSH0 PUSH1 0x20 DUP3 DUP5 SUB SLT ISZERO PUSH2 0x1F3 JUMPI PUSH2 0x1F2 PUSH2 0x180 JUMP JUMPDEST JUMPDEST PUSH0 PUSH2 0x200 DUP5 DUP3 DUP6 ADD PUSH2 0x1CA JUMP JUMPDEST SWAP2 POP POP SWAP3 SWAP2 POP POP JUMP JUMPDEST PUSH2 0x212 DUP2 PUSH2 0x1A3 JUMP JUMPDEST DUP3 MSTORE POP POP JUMP JUMPDEST PUSH0 PUSH1 0x20 DUP3 ADD SWAP1 POP PUSH2 0x22B PUSH0 DUP4 ADD DUP5 PUSH2 0x209 JUMP JUMPDEST SWAP3 SWAP2 POP POP JUMP JUMPDEST PUSH2 0x2300 DUP1 PUSH2 0x23E PUSH0 CODECOPY PUSH0 RETURN INVALID PUSH1 0x80 PUSH1 0x40 MSTORE PUSH1 0x4 CALLDATASIZE LT PUSH2 0xA6 JUMPI PUSH0 CALLDATALOAD PUSH1 0xE0 SHR DUP1 PUSH4 0xBA71B330 GT PUSH2 0x63 JUMPI DUP1 PUSH4 0xBA71B330 EQ PUSH2 0x18A JUMPI DUP1 PUSH4 0xBF9D6337 EQ PUSH2 0x1B4 JUMPI DUP1 PUSH4 0xCED72F87 EQ PUSH2 0x1D0 JUMPI DUP1 PUSH4 0xD613FD24 EQ PUSH2 0x1FA JUMPI DUP1 PUSH4 0xF2FDE38B EQ PUSH2 0x23F JUMPI DUP1 PUSH4 0xF9F161A8 EQ PUSH2 0x267 JUMPI PUSH2 0xA6 JUMP JUMPDEST DUP1 PUSH4 0x3DB3CA89 EQ PUSH2 0xAA JUMPI DUP1 PUSH4 0x5A27CBCB EQ PUSH2 0xD2 JUMPI DUP1 PUSH4 0x69FE0E2D EQ PUSH2 0xFA JUMPI DUP1 PUSH4 0x715018A6 EQ PUSH2 0x122 JUMPI DUP1 PUSH4 0x86E0D85A EQ PUSH2 0x138 JUMPI DUP1 PUSH4 0x8DA5CB5B EQ PUSH2 0x160 JUMPI JUMPDEST PUSH0 DUP1 REVERT JUMPDEST CALLVALUE DUP1 ISZERO PUSH2 0xB5 JUMPI PUSH0 DUP1 REVERT JUMPDEST POP PUSH2 0xD0 PUSH1 0x4 DUP1 CALLDATASIZE SUB DUP2 ADD SWAP1 PUSH2 0xCB SWAP2 SWAP1 PUSH2 0x1317 JUMP JUMPDEST PUSH2 0x28F JUMP JUMPDEST STOP JUMPDEST CALLVALUE DUP1 ISZERO PUSH2 0xDD JUMPI PUSH0 DUP1 REVERT JUMPDEST POP PUSH2 0xF8 PUSH1 0x4 DUP1 CALLDATASIZE SUB DUP2 ADD SWAP1 PUSH2 0xF3 SWAP2 SWAP1 PUSH2 0x1317 JUMP JUMPDEST PUSH2 0x469 JUMP JUMPDEST STOP JUMPDEST CALLVALUE DUP1 ISZERO PUSH2 0x105 JUMPI PUSH0 DUP1 REVERT JUMPDEST POP PUSH2 0x120 PUSH1 0x4 DUP1 CALLDATASIZE SUB DUP2 ADD SWAP1 PUSH2 0x11B SWAP2 SWAP1 PUSH2 0x1355 JUMP JUMPDEST PUSH2 0x58D JUMP JUMPDEST STOP JUMPDEST CALLVALUE DUP1 ISZERO PUSH2 0x12D JUMPI PUSH0 DUP1 REVERT JUMPDEST POP PUSH2 0x136 PUSH2 0x5D6 JUMP JUMPDEST STOP JUMPDEST CALLVALUE DUP1 ISZERO PUSH2 0x143 JUMPI PUSH0 DUP1 REVERT JUMPDEST POP PUSH2 0x15E PUSH1 0x4 DUP1 CALLDATASIZE SUB DUP2 ADD SWAP1 PUSH2 0x159 SWAP2 SWAP1 PUSH2 0x1355 JUMP JUMPDEST PUSH2 0x5E9 JUMP JUMPDEST STOP JUMPDEST CALLVALUE DUP1 ISZERO PUSH2 0x16B JUMPI PUSH0 DUP1 REVERT JUMPDEST POP PUSH2 0x174 PUSH2 0x940 JUMP JUMPDEST PUSH1 0x40 MLOAD PUSH2 0x181 SWAP2 SWAP1 PUSH2 0x138F JUMP JUMPDEST PUSH1 0x40 MLOAD DUP1 SWAP2 SUB SWAP1 RETURN JUMPDEST CALLVALUE DUP1 ISZERO PUSH2 0x195 JUMPI PUSH0 DUP1 REVERT JUMPDEST POP PUSH2 0x19E PUSH2 0x967 JUMP JUMPDEST PUSH1 0x40 MLOAD PUSH2 0x1AB SWAP2 SWAP1 PUSH2 0x13B7 JUMP JUMPDEST PUSH1 0x40 MLOAD DUP1 SWAP2 SUB SWAP1 RETURN JUMPDEST PUSH2 0x1CE PUSH1 0x4 DUP1 CALLDATASIZE SUB DUP2 ADD SWAP1 PUSH2 0x1C9 SWAP2 SWAP1 PUSH2 0x150C JUMP JUMPDEST PUSH2 0x96D JUMP JUMPDEST STOP JUMPDEST CALLVALUE DUP1 ISZERO PUSH2 0x1DB JUMPI PUSH0 DUP1 REVERT JUMPDEST POP PUSH2 0x1E4 PUSH2 0xC6C JUMP JUMPDEST PUSH1 0x40 MLOAD PUSH2 0x1F1 SWAP2 SWAP1 PUSH2 0x13B7 JUMP JUMPDEST PUSH1 0x40 MLOAD DUP1 SWAP2 SUB SWAP1 RETURN JUMPDEST CALLVALUE DUP1 ISZERO PUSH2 0x205 JUMPI PUSH0 DUP1 REVERT JUMPDEST POP PUSH2 0x220 PUSH1 0x4 DUP1 CALLDATASIZE SUB DUP2 ADD SWAP1 PUSH2 0x21B SWAP2 SWAP1 PUSH2 0x1355 JUMP JUMPDEST PUSH2 0xC75 JUMP JUMPDEST PUSH1 0x40 MLOAD PUSH2 0x236 SWAP11 SWAP10 SWAP9 SWAP8 SWAP7 SWAP6 SWAP5 SWAP4 SWAP3 SWAP2 SWAP1 PUSH2 0x1619 JUMP JUMPDEST PUSH1 0x40 MLOAD DUP1 SWAP2 SUB SWAP1 RETURN JUMPDEST CALLVALUE DUP1 ISZERO PUSH2 0x24A JUMPI PUSH0 DUP1 REVERT JUMPDEST POP PUSH2 0x265 PUSH1 0x4 DUP1 CALLDATASIZE SUB DUP2 ADD SWAP1 PUSH2 0x260 SWAP2 SWAP1 PUSH2 0x16BA JUMP JUMPDEST PUSH2 0xDC2 JUMP JUMPDEST STOP JUMPDEST CALLVALUE DUP1 ISZERO PUSH2 0x272 JUMPI PUSH0 DUP1 REVERT JUMPDEST POP PUSH2 0x28D PUSH1 0x4 DUP1 CALLDATASIZE SUB DUP2 ADD SWAP1 PUSH2 0x288 SWAP2 SWAP1 PUSH2 0x1355 JUMP JUMPDEST PUSH2 0xE46 JUMP JUMPDEST STOP JUMPDEST PUSH0 PUSH1 0x2 PUSH0 DUP5 DUP2 MSTORE PUSH1 0x20 ADD SWAP1 DUP2 MSTORE PUSH1 0x20 ADD PUSH0 KECCAK256 SWAP1 POP DUP1 PUSH1 0x6 ADD PUSH0 SWAP1 SLOAD SWAP1 PUSH2 0x100 EXP SWAP1 DIV PUSH20 0xFFFFFFFFFFFFFFFFFFFFFFFFFFFFFFFFFFFFFFFF AND PUSH20 0xFFFFFFFFFFFFFFFFFFFFFFFFFFFFFFFFFFFFFFFF AND CALLER PUSH20 0xFFFFFFFFFFFFFFFFFFFFFFFFFFFFFFFFFFFFFFFF AND EQ PUSH2 0x334 JUMPI PUSH1 0x40 MLOAD PUSH32 0x8C379A000000000000000000000000000000000000000000000000000000000 DUP2 MSTORE PUSH1 0x4 ADD PUSH2 0x32B SWAP1 PUSH2 0x1755 JUMP JUMPDEST PUSH1 0x40 MLOAD DUP1 SWAP2 SUB SWAP1 REVERT JUMPDEST DUP1 PUSH1 0x4 ADD SLOAD TIMESTAMP GT ISZERO PUSH2 0x37B JUMPI PUSH1 0x40 MLOAD PUSH32 0x8C379A000000000000000000000000000000000000000000000000000000000 DUP2 MSTORE PUSH1 0x4 ADD PUSH2 0x372 SWAP1 PUSH2 0x17BD JUMP JUMPDEST PUSH1 0x40 MLOAD DUP1 SWAP2 SUB SWAP1 REVERT JUMPDEST DUP1 PUSH1 0x6 ADD PUSH1 0x14 SWAP1 SLOAD SWAP1 PUSH2 0x100 EXP SWAP1 DIV PUSH1 0xFF AND ISZERO PUSH2 0x3CD JUMPI PUSH1 0x40 MLOAD PUSH32 0x8C379A000000000000000000000000000000000000000000000000000000000 DUP2 MSTORE PUSH1 0x4 ADD PUSH2 0x3C4 SWAP1 PUSH2 0x1825 JUMP JUMPDEST PUSH1 0x40 MLOAD DUP1 SWAP2 SUB SWAP1 REVERT JUMPDEST PUSH1 0x1 DUP2 PUSH1 0x6 ADD PUSH1 0x14 PUSH2 0x100 EXP DUP2 SLOAD DUP2 PUSH1 0xFF MUL NOT AND SWAP1 DUP4 ISZERO ISZERO MUL OR SWAP1 SSTORE POP DUP2 DUP2 PUSH1 0x7 ADD PUSH0 PUSH2 0x100 EXP DUP2 SLOAD DUP2 PUSH20 0xFFFFFFFFFFFFFFFFFFFFFFFFFFFFFFFFFFFFFFFF MUL NOT AND SWAP1 DUP4 PUSH20 0xFFFFFFFFFFFFFFFFFFFFFFFFFFFFFFFFFFFFFFFF AND MUL OR SWAP1 SSTORE POP DUP3 PUSH32 0x16BB9E8931574F3F4AA3B7BEF9F5B8221823F5F803167E8AC21F9F7C8F931510 DUP4 PUSH1 0x40 MLOAD PUSH2 0x45C SWAP2 SWAP1 PUSH2 0x138F JUMP JUMPDEST PUSH1 0x40 MLOAD DUP1 SWAP2 SUB SWAP1 LOG2 POP POP POP JUMP JUMPDEST PUSH0 PUSH1 0x2 PUSH0 DUP5 DUP2 MSTORE PUSH1 0x20 ADD SWAP1 DUP2 MSTORE PUSH1 0x20 ADD PUSH0 KECCAK256 SWAP1 POP DUP1 PUSH1 0x5 ADD PUSH0 SWAP1 SLOAD SWAP1 PUSH2 0x100 EXP SWAP1 DIV PUSH20 0xFFFFFFFFFFFFFFFFFFFFFFFFFFFFFFFFFFFFFFFF AND PUSH20 0xFFFFFFFFFFFFFFFFFFFFFFFFFFFFFFFFFFFFFFFF AND CALLER PUSH20 0xFFFFFFFFFFFFFFFFFFFFFFFFFFFFFFFFFFFFFFFF AND EQ PUSH2 0x50E JUMPI PUSH1 0x40 MLOAD PUSH32 0x8C379A000000000000000000000000000000000000000000000000000000000 DUP2 MSTORE PUSH1 0x4 ADD PUSH2 0x505 SWAP1 PUSH2 0x18B3 JUMP JUMPDEST PUSH1 0x40 MLOAD DUP1 SWAP2 SUB SWAP1 REVERT JUMPDEST DUP2 DUP2 PUSH1 0x6 ADD PUSH0 PUSH2 0x100 EXP DUP2 SLOAD DUP2 PUSH20 0xFFFFFFFFFFFFFFFFFFFFFFFFFFFFFFFFFFFFFFFF MUL NOT AND SWAP1 DUP4 PUSH20 0xFFFFFFFFFFFFFFFFFFFFFFFFFFFFFFFFFFFFFFFF AND MUL OR SWAP1 SSTORE POP DUP3 PUSH32 0x10AD6D1A971B78BB9A3A6D20D7D6E9AFE165F4D8B812FFB74200382052343DB1 DUP4 PUSH1 0x40 MLOAD PUSH2 0x580 SWAP2 SWAP1 PUSH2 0x138F JUMP JUMPDEST PUSH1 0x40 MLOAD DUP1 SWAP2 SUB SWAP1 LOG2 POP POP POP JUMP JUMPDEST PUSH2 0x595 PUSH2 0x10D2 JUMP JUMPDEST DUP1 PUSH1 0x4 DUP2 SWAP1 SSTORE POP PUSH32 0x8C4D35E54A3F2EF1134138FD8EA3DAEE6A3C89E10D2665996BABDF70261E2C76 DUP2 PUSH1 0x40 MLOAD PUSH2 0x5CB SWAP2 SWAP1 PUSH2 0x13B7 JUMP JUMPDEST PUSH1 0x40 MLOAD DUP1 SWAP2 SUB SWAP1 LOG1 POP JUMP JUMPDEST PUSH2 0x5DE PUSH2 0x10D2 JUMP JUMPDEST PUSH2 0x5E7 PUSH0 PUSH2 0x1159 JUMP JUMPDEST JUMP JUMPDEST PUSH2 0x5F1 PUSH2 0x121A JUMP JUMPDEST PUSH0 PUSH1 0x2 PUSH0 DUP4 DUP2 MSTORE PUSH1 0x20 ADD SWAP1 DUP2 MSTORE PUSH1 0x20 ADD PUSH0 KECCAK256 SWAP1 POP DUP1 PUSH1 0x6 ADD PUSH1 0x14 SWAP1 SLOAD SWAP1 PUSH2 0x100 EXP SWAP1 DIV PUSH1 0xFF AND PUSH2 0x656 JUMPI PUSH1 0x40 MLOAD PUSH32 0x8C379A000000000000000000000000000000000000000000000000000000000 DUP2 MSTORE PUSH1 0x4 ADD PUSH2 0x64D SWAP1 PUSH2 0x191B JUMP JUMPDEST PUSH1 0x40 MLOAD DUP1 SWAP2 SUB SWAP1 REVERT JUMPDEST DUP1 PUSH1 0x6 ADD PUSH1 0x15 SWAP1 SLOAD SWAP1 PUSH2 0x100 EXP SWAP1 DIV PUSH1 0xFF AND ISZERO PUSH2 0x6A8 JUMPI PUSH1 0x40 MLOAD PUSH32 0x8C379A000000000000000000000000000000000000000000000000000000000 DUP2 MSTORE PUSH1 0x4 ADD PUSH2 0x69F SWAP1 PUSH2 0x1983 JUMP JUMPDEST PUSH1 0x40 MLOAD DUP1 SWAP2 SUB SWAP1 REVERT JUMPDEST DUP1 PUSH1 0x7 ADD PUSH0 SWAP1 SLOAD SWAP1 PUSH2 0x100 EXP SWAP1 DIV PUSH20 0xFFFFFFFFFFFFFFFFFFFFFFFFFFFFFFFFFFFFFFFF AND PUSH20 0xFFFFFFFFFFFFFFFFFFFFFFFFFFFFFFFFFFFFFFFF AND CALLER PUSH20 0xFFFFFFFFFFFFFFFFFFFFFFFFFFFFFFFFFFFFFFFF AND EQ PUSH2 0x739 JUMPI PUSH1 0x40 MLOAD PUSH32 0x8C379A000000000000000000000000000000000000000000000000000000000 DUP2 MSTORE PUSH1 0x4 ADD PUSH2 0x730 SWAP1 PUSH2 0x1A11 JUMP JUMPDEST PUSH1 0x40 MLOAD DUP1 SWAP2 SUB SWAP1 REVERT JUMPDEST DUP1 PUSH1 0x3 ADD SLOAD TIMESTAMP LT ISZERO PUSH2 0x780 JUMPI PUSH1 0x40 MLOAD PUSH32 0x8C379A000000000000000000000000000000000000000000000000000000000 DUP2 MSTORE PUSH1 0x4 ADD PUSH2 0x777 SWAP1 PUSH2 0x1A79 JUMP JUMPDEST PUSH1 0x40 MLOAD DUP1 SWAP2 SUB SWAP1 REVERT JUMPDEST DUP1 PUSH1 0x4 ADD SLOAD TIMESTAMP GT ISZERO PUSH2 0x7C7 JUMPI PUSH1 0x40 MLOAD PUSH32 0x8C379A000000000000000000000000000000000000000000000000000000000 DUP2 MSTORE PUSH1 0x4 ADD PUSH2 0x7BE SWAP1 PUSH2 0x1B07 JUMP JUMPDEST PUSH1 0x40 MLOAD DUP1 SWAP2 SUB SWAP1 REVERT JUMPDEST PUSH1 0x1 DUP2 PUSH1 0x6 ADD PUSH1 0x15 PUSH2 0x100 EXP DUP2 SLOAD DUP2 PUSH1 0xFF MUL NOT AND SWAP1 DUP4 ISZERO ISZERO MUL OR SWAP1 SSTORE POP PUSH0 DUP2 PUSH1 0x2 ADD SLOAD SWAP1 POP PUSH0 PUSH1 0x4 SLOAD GT ISZERO PUSH2 0x86F JUMPI PUSH0 PUSH2 0x2710 PUSH1 0x4 SLOAD DUP4 PUSH2 0x808 SWAP2 SWAP1 PUSH2 0x1B52 JUMP JUMPDEST PUSH2 0x812 SWAP2 SWAP1 PUSH2 0x1BC0 JUMP JUMPDEST SWAP1 POP DUP1 DUP3 PUSH2 0x820 SWAP2 SWAP1 PUSH2 0x1BF0 JUMP JUMPDEST SWAP2 POP PUSH2 0x82A PUSH2 0x940 JUMP JUMPDEST PUSH20 0xFFFFFFFFFFFFFFFFFFFFFFFFFFFFFFFFFFFFFFFF AND PUSH2 0x8FC DUP3 SWAP1 DUP2 ISZERO MUL SWAP1 PUSH1 0x40 MLOAD PUSH0 PUSH1 0x40 MLOAD DUP1 DUP4 SUB DUP2 DUP6 DUP9 DUP9 CALL SWAP4 POP POP POP POP ISZERO DUP1 ISZERO PUSH2 0x86C JUMPI RETURNDATASIZE PUSH0 DUP1 RETURNDATACOPY RETURNDATASIZE PUSH0 REVERT JUMPDEST POP POP JUMPDEST DUP2 PUSH1 0x7 ADD PUSH0 SWAP1 SLOAD SWAP1 PUSH2 0x100 EXP SWAP1 DIV PUSH20 0xFFFFFFFFFFFFFFFFFFFFFFFFFFFFFFFFFFFFFFFF AND PUSH20 0xFFFFFFFFFFFFFFFFFFFFFFFFFFFFFFFFFFFFFFFF AND PUSH2 0x8FC DUP3 SWAP1 DUP2 ISZERO MUL SWAP1 PUSH1 0x40 MLOAD PUSH0 PUSH1 0x40 MLOAD DUP1 DUP4 SUB DUP2 DUP6 DUP9 DUP9 CALL SWAP4 POP POP POP POP ISZERO DUP1 ISZERO PUSH2 0x8D5 JUMPI RETURNDATASIZE PUSH0 DUP1 RETURNDATACOPY RETURNDATASIZE PUSH0 REVERT JUMPDEST POP DUP3 PUSH32 0x7099040FF4ABF6B015BD1004CBF11EC796C3D4ABCAEC3514DB1C93599297D39F DUP4 PUSH1 0x7 ADD PUSH0 SWAP1 SLOAD SWAP1 PUSH2 0x100 EXP SWAP1 DIV PUSH20 0xFFFFFFFFFFFFFFFFFFFFFFFFFFFFFFFFFFFFFFFF AND DUP4 PUSH1 0x40 MLOAD PUSH2 0x92B SWAP3 SWAP2 SWAP1 PUSH2 0x1C23 JUMP JUMPDEST PUSH1 0x40 MLOAD DUP1 SWAP2 SUB SWAP1 LOG2 POP POP PUSH2 0x93D PUSH2 0x1269 JUMP JUMPDEST POP JUMP JUMPDEST PUSH0 DUP1 PUSH0 SWAP1 SLOAD SWAP1 PUSH2 0x100 EXP SWAP1 DIV PUSH20 0xFFFFFFFFFFFFFFFFFFFFFFFFFFFFFFFFFFFFFFFF AND SWAP1 POP SWAP1 JUMP JUMPDEST PUSH1 0x3 SLOAD DUP2 JUMP JUMPDEST DUP4 CALLVALUE EQ PUSH2 0x9AF JUMPI PUSH1 0x40 MLOAD PUSH32 0x8C379A000000000000000000000000000000000000000000000000000000000 DUP2 MSTORE PUSH1 0x4 ADD PUSH2 0x9A6 SWAP1 PUSH2 0x1CBA JUMP JUMPDEST PUSH1 0x40 MLOAD DUP1 SWAP2 SUB SWAP1 REVERT JUMPDEST DUP2 DUP4 LT PUSH2 0x9F1 JUMPI PUSH1 0x40 MLOAD PUSH32 0x8C379A000000000000000000000000000000000000000000000000000000000 DUP2 MSTORE PUSH1 0x4 ADD PUSH2 0x9E8 SWAP1 PUSH2 0x1D48 JUMP JUMPDEST PUSH1 0x40 MLOAD DUP1 SWAP2 SUB SWAP1 REVERT JUMPDEST PUSH0 PUSH1 0x3 SLOAD SWAP1 POP PUSH1 0x40 MLOAD DUP1 PUSH2 0x140 ADD PUSH1 0x40 MSTORE DUP1 DUP3 DUP2 MSTORE PUSH1 0x20 ADD DUP8 DUP2 MSTORE PUSH1 0x20 ADD DUP7 DUP2 MSTORE PUSH1 0x20 ADD DUP6 DUP2 MSTORE PUSH1 0x20 ADD DUP5 DUP2 MSTORE PUSH1 0x20 ADD CALLER PUSH20 0xFFFFFFFFFFFFFFFFFFFFFFFFFFFFFFFFFFFFFFFF AND DUP2 MSTORE PUSH1 0x20 ADD DUP4 PUSH20 0xFFFFFFFFFFFFFFFFFFFFFFFFFFFFFFFFFFFFFFFF AND DUP2 MSTORE PUSH1 0x20 ADD PUSH0 ISZERO ISZERO DUP2 MSTORE PUSH1 0x20 ADD PUSH0 ISZERO ISZERO DUP2 MSTORE PUSH1 0x20 ADD PUSH0 PUSH20 0xFFFFFFFFFFFFFFFFFFFFFFFFFFFFFFFFFFFFFFFF AND DUP2 MSTORE POP PUSH1 0x2 PUSH0 DUP4 DUP2 MSTORE PUSH1 0x20 ADD SWAP1 DUP2 MSTORE PUSH1 0x20 ADD PUSH0 KECCAK256 PUSH0 DUP3 ADD MLOAD DUP2 PUSH0 ADD SSTORE PUSH1 0x20 DUP3 ADD MLOAD DUP2 PUSH1 0x1 ADD SWAP1 DUP2 PUSH2 0xAB1 SWAP2 SWAP1 PUSH2 0x1F60 JUMP JUMPDEST POP PUSH1 0x40 DUP3 ADD MLOAD DUP2 PUSH1 0x2 ADD SSTORE PUSH1 0x60 DUP3 ADD MLOAD DUP2 PUSH1 0x3 ADD SSTORE PUSH1 0x80 DUP3 ADD MLOAD DUP2 PUSH1 0x4 ADD SSTORE PUSH1 0xA0 DUP3 ADD MLOAD DUP2 PUSH1 0x5 ADD PUSH0 PUSH2 0x100 EXP DUP2 SLOAD DUP2 PUSH20 0xFFFFFFFFFFFFFFFFFFFFFFFFFFFFFFFFFFFFFFFF MUL NOT AND SWAP1 DUP4 PUSH20 0xFFFFFFFFFFFFFFFFFFFFFFFFFFFFFFFFFFFFFFFF AND MUL OR SWAP1 SSTORE POP PUSH1 0xC0 DUP3 ADD MLOAD DUP2 PUSH1 0x6 ADD PUSH0 PUSH2 0x100 EXP DUP2 SLOAD DUP2 PUSH20 0xFFFFFFFFFFFFFFFFFFFFFFFFFFFFFFFFFFFFFFFF MUL NOT AND SWAP1 DUP4 PUSH20 0xFFFFFFFFFFFFFFFFFFFFFFFFFFFFFFFFFFFFFFFF AND MUL OR SWAP1 SSTORE POP PUSH1 0xE0 DUP3 ADD MLOAD DUP2 PUSH1 0x6 ADD PUSH1 0x14 PUSH2 0x100 EXP DUP2 SLOAD DUP2 PUSH1 0xFF MUL NOT AND SWAP1 DUP4 ISZERO ISZERO MUL OR SWAP1 SSTORE POP PUSH2 0x100 DUP3 ADD MLOAD DUP2 PUSH1 0x6 ADD PUSH1 0x15 PUSH2 0x100 EXP DUP2 SLOAD DUP2 PUSH1 0xFF MUL NOT AND SWAP1 DUP4 ISZERO ISZERO MUL OR SWAP1 SSTORE POP PUSH2 0x120 DUP3 ADD MLOAD DUP2 PUSH1 0x7 ADD PUSH0 PUSH2 0x100 EXP DUP2 SLOAD DUP2 PUSH20 0xFFFFFFFFFFFFFFFFFFFFFFFFFFFFFFFFFFFFFFFF MUL NOT AND SWAP1 DUP4 PUSH20 0xFFFFFFFFFFFFFFFFFFFFFFFFFFFFFFFFFFFFFFFF AND MUL OR SWAP1 SSTORE POP SWAP1 POP POP PUSH1 0x3 PUSH0 DUP2 SLOAD DUP1 SWAP3 SWAP2 SWAP1 PUSH2 0xBF9 SWAP1 PUSH2 0x202F JUMP JUMPDEST SWAP2 SWAP1 POP SSTORE POP DUP2 PUSH20 0xFFFFFFFFFFFFFFFFFFFFFFFFFFFFFFFFFFFFFFFF AND CALLER PUSH20 0xFFFFFFFFFFFFFFFFFFFFFFFFFFFFFFFFFFFFFFFF AND DUP3 PUSH32 0x808C887919683A350ED55B3499F97ED7F4093ECC5E131FADB8B075A85457AF3A DUP9 PUSH1 0x40 MLOAD PUSH2 0xC5C SWAP2 SWAP1 PUSH2 0x13B7 JUMP JUMPDEST PUSH1 0x40 MLOAD DUP1 SWAP2 SUB SWAP1 LOG4 POP POP POP POP POP POP JUMP JUMPDEST PUSH0 PUSH1 0x4 SLOAD SWAP1 POP SWAP1 JUMP JUMPDEST PUSH1 0x2 PUSH1 0x20 MSTORE DUP1 PUSH0 MSTORE PUSH1 0x40 PUSH0 KECCAK256 PUSH0 SWAP2 POP SWAP1 POP DUP1 PUSH0 ADD SLOAD SWAP1 DUP1 PUSH1 0x1 ADD DUP1 SLOAD PUSH2 0xC9A SWAP1 PUSH2 0x1D93 JUMP JUMPDEST DUP1 PUSH1 0x1F ADD PUSH1 0x20 DUP1 SWAP2 DIV MUL PUSH1 0x20 ADD PUSH1 0x40 MLOAD SWAP1 DUP2 ADD PUSH1 0x40 MSTORE DUP1 SWAP3 SWAP2 SWAP1 DUP2 DUP2 MSTORE PUSH1 0x20 ADD DUP3 DUP1 SLOAD PUSH2 0xCC6 SWAP1 PUSH2 0x1D93 JUMP JUMPDEST DUP1 ISZERO PUSH2 0xD11 JUMPI DUP1 PUSH1 0x1F LT PUSH2 0xCE8 JUMPI PUSH2 0x100 DUP1 DUP4 SLOAD DIV MUL DUP4 MSTORE SWAP2 PUSH1 0x20 ADD SWAP2 PUSH2 0xD11 JUMP JUMPDEST DUP3 ADD SWAP2 SWAP1 PUSH0 MSTORE PUSH1 0x20 PUSH0 KECCAK256 SWAP1 JUMPDEST DUP2 SLOAD DUP2 MSTORE SWAP1 PUSH1 0x1 ADD SWAP1 PUSH1 0x20 ADD DUP1 DUP4 GT PUSH2 0xCF4 JUMPI DUP3 SWAP1 SUB PUSH1 0x1F AND DUP3 ADD SWAP2 JUMPDEST POP POP POP POP POP SWAP1 DUP1 PUSH1 0x2 ADD SLOAD SWAP1 DUP1 PUSH1 0x3 ADD SLOAD SWAP1 DUP1 PUSH1 0x4 ADD SLOAD SWAP1 DUP1 PUSH1 0x5 ADD PUSH0 SWAP1 SLOAD SWAP1 PUSH2 0x100 EXP SWAP1 DIV PUSH20 0xFFFFFFFFFFFFFFFFFFFFFFFFFFFFFFFFFFFFFFFF AND SWAP1 DUP1 PUSH1 0x6 ADD PUSH0 SWAP1 SLOAD SWAP1 PUSH2 0x100 EXP SWAP1 DIV PUSH20 0xFFFFFFFFFFFFFFFFFFFFFFFFFFFFFFFFFFFFFFFF AND SWAP1 DUP1 PUSH1 0x6 ADD PUSH1 0x14 SWAP1 SLOAD SWAP1 PUSH2 0x100 EXP SWAP1 DIV PUSH1 0xFF AND SWAP1 DUP1 PUSH1 0x6 ADD PUSH1 0x15 SWAP1 SLOAD SWAP1 PUSH2 0x100 EXP SWAP1 DIV PUSH1 0xFF AND SWAP1 DUP1 PUSH1 0x7 ADD PUSH0 SWAP1 SLOAD SWAP1 PUSH2 0x100 EXP SWAP1 DIV PUSH20 0xFFFFFFFFFFFFFFFFFFFFFFFFFFFFFFFFFFFFFFFF AND SWAP1 POP DUP11 JUMP JUMPDEST PUSH2 0xDCA PUSH2 0x10D2 JUMP JUMPDEST PUSH0 PUSH20 0xFFFFFFFFFFFFFFFFFFFFFFFFFFFFFFFFFFFFFFFF AND DUP2 PUSH20 0xFFFFFFFFFFFFFFFFFFFFFFFFFFFFFFFFFFFFFFFF AND SUB PUSH2 0xE3A JUMPI PUSH0 PUSH1 0x40 MLOAD PUSH32 0x1E4FBDF700000000000000000000000000000000000000000000000000000000 DUP2 MSTORE PUSH1 0x4 ADD PUSH2 0xE31 SWAP2 SWAP1 PUSH2 0x138F JUMP JUMPDEST PUSH1 0x40 MLOAD DUP1 SWAP2 SUB SWAP1 REVERT JUMPDEST PUSH2 0xE43 DUP2 PUSH2 0x1159 JUMP JUMPDEST POP JUMP JUMPDEST PUSH2 0xE4E PUSH2 0x121A JUMP JUMPDEST PUSH0 PUSH1 0x2 PUSH0 DUP4 DUP2 MSTORE PUSH1 0x20 ADD SWAP1 DUP2 MSTORE PUSH1 0x20 ADD PUSH0 KECCAK256 SWAP1 POP DUP1 PUSH1 0x6 ADD PUSH1 0x14 SWAP1 SLOAD SWAP1 PUSH2 0x100 EXP SWAP1 DIV PUSH1 0xFF AND ISZERO PUSH2 0xEB4 JUMPI PUSH1 0x40 MLOAD PUSH32 0x8C379A000000000000000000000000000000000000000000000000000000000 DUP2 MSTORE PUSH1 0x4 ADD PUSH2 0xEAB SWAP1 PUSH2 0x20E6 JUMP JUMPDEST PUSH1 0x40 MLOAD DUP1 SWAP2 SUB SWAP1 REVERT JUMPDEST DUP1 PUSH1 0x6 ADD PUSH1 0x15 SWAP1 SLOAD SWAP1 PUSH2 0x100 EXP SWAP1 DIV PUSH1 0xFF AND ISZERO PUSH2 0xF06 JUMPI PUSH1 0x40 MLOAD PUSH32 0x8C379A000000000000000000000000000000000000000000000000000000000 DUP2 MSTORE PUSH1 0x4 ADD PUSH2 0xEFD SWAP1 PUSH2 0x214E JUMP JUMPDEST PUSH1 0x40 MLOAD DUP1 SWAP2 SUB SWAP1 REVERT JUMPDEST DUP1 PUSH1 0x4 ADD SLOAD TIMESTAMP GT PUSH2 0xF4C JUMPI PUSH1 0x40 MLOAD PUSH32 0x8C379A000000000000000000000000000000000000000000000000000000000 DUP2 MSTORE PUSH1 0x4 ADD PUSH2 0xF43 SWAP1 PUSH2 0x21B6 JUMP JUMPDEST PUSH1 0x40 MLOAD DUP1 SWAP2 SUB SWAP1 REVERT JUMPDEST DUP1 PUSH1 0x5 ADD PUSH0 SWAP1 SLOAD SWAP1 PUSH2 0x100 EXP SWAP1 DIV PUSH20 0xFFFFFFFFFFFFFFFFFFFFFFFFFFFFFFFFFFFFFFFF AND PUSH20 0xFFFFFFFFFFFFFFFFFFFFFFFFFFFFFFFFFFFFFFFF AND CALLER PUSH20 0xFFFFFFFFFFFFFFFFFFFFFFFFFFFFFFFFFFFFFFFF AND EQ PUSH2 0xFDD JUMPI PUSH1 0x40 MLOAD PUSH32 0x8C379A000000000000000000000000000000000000000000000000000000000 DUP2 MSTORE PUSH1 0x4 ADD PUSH2 0xFD4 SWAP1 PUSH2 0x2244 JUMP JUMPDEST PUSH1 0x40 MLOAD DUP1 SWAP2 SUB SWAP1 REVERT JUMPDEST PUSH1 0x1 DUP2 PUSH1 0x6 ADD PUSH1 0x15 PUSH2 0x100 EXP DUP2 SLOAD DUP2 PUSH1 0xFF MUL NOT AND SWAP1 DUP4 ISZERO ISZERO MUL OR SWAP1 SSTORE POP DUP1 PUSH1 0x5 ADD PUSH0 SWAP1 SLOAD SWAP1 PUSH2 0x100 EXP SWAP1 DIV PUSH20 0xFFFFFFFFFFFFFFFFFFFFFFFFFFFFFFFFFFFFFFFF AND PUSH20 0xFFFFFFFFFFFFFFFFFFFFFFFFFFFFFFFFFFFFFFFF AND PUSH2 0x8FC DUP3 PUSH1 0x2 ADD SLOAD SWAP1 DUP2 ISZERO MUL SWAP1 PUSH1 0x40 MLOAD PUSH0 PUSH1 0x40 MLOAD DUP1 DUP4 SUB DUP2 DUP6 DUP9 DUP9 CALL SWAP4 POP POP POP POP ISZERO DUP1 ISZERO PUSH2 0x1064 JUMPI RETURNDATASIZE PUSH0 DUP1 RETURNDATACOPY RETURNDATASIZE PUSH0 REVERT JUMPDEST POP DUP2 PUSH32 0xD37C0B9C7560299A7C963D03165111D712663805228E5FFCA03D540C5D6E410E DUP3 PUSH1 0x5 ADD PUSH0 SWAP1 SLOAD SWAP1 PUSH2 0x100 EXP SWAP1 DIV PUSH20 0xFFFFFFFFFFFFFFFFFFFFFFFFFFFFFFFFFFFFFFFF AND DUP4 PUSH1 0x2 ADD SLOAD PUSH1 0x40 MLOAD PUSH2 0x10BE SWAP3 SWAP2 SWAP1 PUSH2 0x1C23 JUMP JUMPDEST PUSH1 0x40 MLOAD DUP1 SWAP2 SUB SWAP1 LOG2 POP PUSH2 0x10CF PUSH2 0x1269 JUMP JUMPDEST POP JUMP JUMPDEST PUSH2 0x10DA PUSH2 0x1272 JUMP JUMPDEST PUSH20 0xFFFFFFFFFFFFFFFFFFFFFFFFFFFFFFFFFFFFFFFF AND PUSH2 0x10F8 PUSH2 0x940 JUMP JUMPDEST PUSH20 0xFFFFFFFFFFFFFFFFFFFFFFFFFFFFFFFFFFFFFFFF AND EQ PUSH2 0x1157 JUMPI PUSH2 0x111B PUSH2 0x1272 JUMP JUMPDEST PUSH1 0x40 MLOAD PUSH32 0x118CDAA700000000000000000000000000000000000000000000000000000000 DUP2 MSTORE PUSH1 0x4 ADD PUSH2 0x114E SWAP2 SWAP1 PUSH2 0x138F JUMP JUMPDEST PUSH1 0x40 MLOAD DUP1 SWAP2 SUB SWAP1 REVERT JUMPDEST JUMP JUMPDEST PUSH0 DUP1 PUSH0 SWAP1 SLOAD SWAP1 PUSH2 0x100 EXP SWAP1 DIV PUSH20 0xFFFFFFFFFFFFFFFFFFFFFFFFFFFFFFFFFFFFFFFF AND SWAP1 POP DUP2 PUSH0 DUP1 PUSH2 0x100 EXP DUP2 SLOAD DUP2 PUSH20 0xFFFFFFFFFFFFFFFFFFFFFFFFFFFFFFFFFFFFFFFF MUL NOT AND SWAP1 DUP4 PUSH20 0xFFFFFFFFFFFFFFFFFFFFFFFFFFFFFFFFFFFFFFFF AND MUL OR SWAP1 SSTORE POP DUP2 PUSH20 0xFFFFFFFFFFFFFFFFFFFFFFFFFFFFFFFFFFFFFFFF AND DUP2 PUSH20 0xFFFFFFFFFFFFFFFFFFFFFFFFFFFFFFFFFFFFFFFF AND PUSH32 0x8BE0079C531659141344CD1FD0A4F28419497F9722A3DAAFE3B4186F6B6457E0 PUSH1 0x40 MLOAD PUSH1 0x40 MLOAD DUP1 SWAP2 SUB SWAP1 LOG3 POP POP JUMP JUMPDEST PUSH1 0x2 PUSH1 0x1 SLOAD SUB PUSH2 0x125F JUMPI PUSH1 0x40 MLOAD PUSH32 0x8C379A000000000000000000000000000000000000000000000000000000000 DUP2 MSTORE PUSH1 0x4 ADD PUSH2 0x1256 SWAP1 PUSH2 0x22AC JUMP JUMPDEST PUSH1 0x40 MLOAD DUP1 SWAP2 SUB SWAP1 REVERT JUMPDEST PUSH1 0x2 PUSH1 0x1 DUP2 SWAP1 SSTORE POP JUMP JUMPDEST PUSH1 0x1 DUP1 DUP2 SWAP1 SSTORE POP JUMP JUMPDEST PUSH0 CALLER SWAP1 POP SWAP1 JUMP JUMPDEST PUSH0 PUSH1 0x40 MLOAD SWAP1 POP SWAP1 JUMP JUMPDEST PUSH0 DUP1 REVERT JUMPDEST PUSH0 DUP1 REVERT JUMPDEST PUSH0 DUP2 SWAP1 POP SWAP2 SWAP1 POP JUMP JUMPDEST PUSH2 0x129C DUP2 PUSH2 0x128A JUMP JUMPDEST DUP2 EQ PUSH2 0x12A6 JUMPI PUSH0 DUP1 REVERT JUMPDEST POP JUMP JUMPDEST PUSH0 DUP2 CALLDATALOAD SWAP1 POP PUSH2 0x12B7 DUP2 PUSH2 0x1293 JUMP JUMPDEST SWAP3 SWAP2 POP POP JUMP JUMPDEST PUSH0 PUSH20 0xFFFFFFFFFFFFFFFFFFFFFFFFFFFFFFFFFFFFFFFF DUP3 AND SWAP1 POP SWAP2 SWAP1 POP JUMP JUMPDEST PUSH0 PUSH2 0x12E6 DUP3 PUSH2 0x12BD JUMP JUMPDEST SWAP1 POP SWAP2 SWAP1 POP JUMP JUMPDEST PUSH2 0x12F6 DUP2 PUSH2 0x12DC JUMP JUMPDEST DUP2 EQ PUSH2 0x1300 JUMPI PUSH0 DUP1 REVERT JUMPDEST POP JUMP JUMPDEST PUSH0 DUP2 CALLDATALOAD SWAP1 POP PUSH2 0x1311 DUP2 PUSH2 0x12ED JUMP JUMPDEST SWAP3 SWAP2 POP POP JUMP JUMPDEST PUSH0 DUP1 PUSH1 0x40 DUP4 DUP6 SUB SLT ISZERO PUSH2 0x132D JUMPI PUSH2 0x132C PUSH2 0x1282 JUMP JUMPDEST JUMPDEST PUSH0 PUSH2 0x133A DUP6 DUP3 DUP7 ADD PUSH2 0x12A9 JUMP JUMPDEST SWAP3 POP POP PUSH1 0x20 PUSH2 0x134B DUP6 DUP3 DUP7 ADD PUSH2 0x1303 JUMP JUMPDEST SWAP2 POP POP SWAP3 POP SWAP3 SWAP1 POP JUMP JUMPDEST PUSH0 PUSH1 0x20 DUP3 DUP5 SUB SLT ISZERO PUSH2 0x136A JUMPI PUSH2 0x1369 PUSH2 0x1282 JUMP JUMPDEST JUMPDEST PUSH0 PUSH2 0x1377 DUP5 DUP3 DUP6 ADD PUSH2 0x12A9 JUMP JUMPDEST SWAP2 POP POP SWAP3 SWAP2 POP POP JUMP JUMPDEST PUSH2 0x1389 DUP2 PUSH2 0x12DC JUMP JUMPDEST DUP3 MSTORE POP POP JUMP JUMPDEST PUSH0 PUSH1 0x20 DUP3 ADD SWAP1 POP PUSH2 0x13A2 PUSH0 DUP4 ADD DUP5 PUSH2 0x1380 JUMP JUMPDEST SWAP3 SWAP2 POP POP JUMP JUMPDEST PUSH2 0x13B1 DUP2 PUSH2 0x128A JUMP JUMPDEST DUP3 MSTORE POP POP JUMP JUMPDEST PUSH0 PUSH1 0x20 DUP3 ADD SWAP1 POP PUSH2 0x13CA PUSH0 DUP4 ADD DUP5 PUSH2 0x13A8 JUMP JUMPDEST SWAP3 SWAP2 POP POP JUMP JUMPDEST PUSH0 DUP1 REVERT JUMPDEST PUSH0 DUP1 REVERT JUMPDEST PUSH0 PUSH1 0x1F NOT PUSH1 0x1F DUP4 ADD AND SWAP1 POP SWAP2 SWAP1 POP JUMP JUMPDEST PUSH32 0x4E487B7100000000000000000000000000000000000000000000000000000000 PUSH0 MSTORE PUSH1 0x41 PUSH1 0x4 MSTORE PUSH1 0x24 PUSH0 REVERT JUMPDEST PUSH2 0x141E DUP3 PUSH2 0x13D8 JUMP JUMPDEST DUP2 ADD DUP2 DUP2 LT PUSH8 0xFFFFFFFFFFFFFFFF DUP3 GT OR ISZERO PUSH2 0x143D JUMPI PUSH2 0x143C PUSH2 0x13E8 JUMP JUMPDEST JUMPDEST DUP1 PUSH1 0x40 MSTORE POP POP POP JUMP JUMPDEST PUSH0 PUSH2 0x144F PUSH2 0x1279 JUMP JUMPDEST SWAP1 POP PUSH2 0x145B DUP3 DUP3 PUSH2 0x1415 JUMP JUMPDEST SWAP2 SWAP1 POP JUMP JUMPDEST PUSH0 PUSH8 0xFFFFFFFFFFFFFFFF DUP3 GT ISZERO PUSH2 0x147A JUMPI PUSH2 0x1479 PUSH2 0x13E8 JUMP JUMPDEST JUMPDEST PUSH2 0x1483 DUP3 PUSH2 0x13D8 JUMP JUMPDEST SWAP1 POP PUSH1 0x20 DUP2 ADD SWAP1 POP SWAP2 SWAP1 POP JUMP JUMPDEST DUP3 DUP2 DUP4 CALLDATACOPY PUSH0 DUP4 DUP4 ADD MSTORE POP POP POP JUMP JUMPDEST PUSH0 PUSH2 0x14B0 PUSH2 0x14AB DUP5 PUSH2 0x1460 JUMP JUMPDEST PUSH2 0x1446 JUMP JUMPDEST SWAP1 POP DUP3 DUP2 MSTORE PUSH1 0x20 DUP2 ADD DUP5 DUP5 DUP5 ADD GT ISZERO PUSH2 0x14CC JUMPI PUSH2 0x14CB PUSH2 0x13D4 JUMP JUMPDEST JUMPDEST PUSH2 0x14D7 DUP5 DUP3 DUP6 PUSH2 0x1490 JUMP JUMPDEST POP SWAP4 SWAP3 POP POP POP JUMP JUMPDEST PUSH0 DUP3 PUSH1 0x1F DUP4 ADD SLT PUSH2 0x14F3 JUMPI PUSH2 0x14F2 PUSH2 0x13D0 JUMP JUMPDEST JUMPDEST DUP2 CALLDATALOAD PUSH2 0x1503 DUP5 DUP3 PUSH1 0x20 DUP7 ADD PUSH2 0x149E JUMP JUMPDEST SWAP2 POP POP SWAP3 SWAP2 POP POP JUMP JUMPDEST PUSH0 DUP1 PUSH0 DUP1 PUSH0 PUSH1 0xA0 DUP7 DUP9 SUB SLT ISZERO PUSH2 0x1525 JUMPI PUSH2 0x1524 PUSH2 0x1282 JUMP JUMPDEST JUMPDEST PUSH0 DUP7 ADD CALLDATALOAD PUSH8 0xFFFFFFFFFFFFFFFF DUP2 GT ISZERO PUSH2 0x1542 JUMPI PUSH2 0x1541 PUSH2 0x1286 JUMP JUMPDEST JUMPDEST PUSH2 0x154E DUP9 DUP3 DUP10 ADD PUSH2 0x14DF JUMP JUMPDEST SWAP6 POP POP PUSH1 0x20 PUSH2 0x155F DUP9 DUP3 DUP10 ADD PUSH2 0x12A9 JUMP JUMPDEST SWAP5 POP POP PUSH1 0x40 PUSH2 0x1570 DUP9 DUP3 DUP10 ADD PUSH2 0x12A9 JUMP JUMPDEST SWAP4 POP POP PUSH1 0x60 PUSH2 0x1581 DUP9 DUP3 DUP10 ADD PUSH2 0x12A9 JUMP JUMPDEST SWAP3 POP POP PUSH1 0x80 PUSH2 0x1592 DUP9 DUP3 DUP10 ADD PUSH2 0x1303 JUMP JUMPDEST SWAP2 POP POP SWAP3 SWAP6 POP SWAP3 SWAP6 SWAP1 SWAP4 POP JUMP JUMPDEST PUSH0 DUP2 MLOAD SWAP1 POP SWAP2 SWAP1 POP JUMP JUMPDEST PUSH0 DUP3 DUP3 MSTORE PUSH1 0x20 DUP3 ADD SWAP1 POP SWAP3 SWAP2 POP POP JUMP JUMPDEST DUP3 DUP2 DUP4 MCOPY PUSH0 DUP4 DUP4 ADD MSTORE POP POP POP JUMP JUMPDEST PUSH0 PUSH2 0x15D1 DUP3 PUSH2 0x159F JUMP JUMPDEST PUSH2 0x15DB DUP2 DUP6 PUSH2 0x15A9 JUMP JUMPDEST SWAP4 POP PUSH2 0x15EB DUP2 DUP6 PUSH1 0x20 DUP7 ADD PUSH2 0x15B9 JUMP JUMPDEST PUSH2 0x15F4 DUP2 PUSH2 0x13D8 JUMP JUMPDEST DUP5 ADD SWAP2 POP POP SWAP3 SWAP2 POP POP JUMP JUMPDEST PUSH0 DUP2 ISZERO ISZERO SWAP1 POP SWAP2 SWAP1 POP JUMP JUMPDEST PUSH2 0x1613 DUP2 PUSH2 0x15FF JUMP JUMPDEST DUP3 MSTORE POP POP JUMP JUMPDEST PUSH0 PUSH2 0x140 DUP3 ADD SWAP1 POP PUSH2 0x162D PUSH0 DUP4 ADD DUP14 PUSH2 0x13A8 JUMP JUMPDEST DUP2 DUP2 SUB PUSH1 0x20 DUP4 ADD MSTORE PUSH2 0x163F DUP2 DUP13 PUSH2 0x15C7 JUMP JUMPDEST SWAP1 POP PUSH2 0x164E PUSH1 0x40 DUP4 ADD DUP12 PUSH2 0x13A8 JUMP JUMPDEST PUSH2 0x165B PUSH1 0x60 DUP4 ADD DUP11 PUSH2 0x13A8 JUMP JUMPDEST PUSH2 0x1668 PUSH1 0x80 DUP4 ADD DUP10 PUSH2 0x13A8 JUMP JUMPDEST PUSH2 0x1675 PUSH1 0xA0 DUP4 ADD DUP9 PUSH2 0x1380 JUMP JUMPDEST PUSH2 0x1682 PUSH1 0xC0 DUP4 ADD DUP8 PUSH2 0x1380 JUMP JUMPDEST PUSH2 0x168F PUSH1 0xE0 DUP4 ADD DUP7 PUSH2 0x160A JUMP JUMPDEST PUSH2 0x169D PUSH2 0x100 DUP4 ADD DUP6 PUSH2 0x160A JUMP JUMPDEST PUSH2 0x16AB PUSH2 0x120 DUP4 ADD DUP5 PUSH2 0x1380 JUMP JUMPDEST SWAP12 SWAP11 POP POP POP POP POP POP POP POP POP POP POP JUMP JUMPDEST PUSH0 PUSH1 0x20 DUP3 DUP5 SUB SLT ISZERO PUSH2 0x16CF JUMPI PUSH2 0x16CE PUSH2 0x1282 JUMP JUMPDEST JUMPDEST PUSH0 PUSH2 0x16DC DUP5 DUP3 DUP6 ADD PUSH2 0x1303 JUMP JUMPDEST SWAP2 POP POP SWAP3 SWAP2 POP POP JUMP JUMPDEST PUSH32 0x596F7520646F6E2774206861766520617070726F76616C207065726D69737369 PUSH0 DUP3 ADD MSTORE PUSH32 0x6F6E732E00000000000000000000000000000000000000000000000000000000 PUSH1 0x20 DUP3 ADD MSTORE POP JUMP JUMPDEST PUSH0 PUSH2 0x173F PUSH1 0x24 DUP4 PUSH2 0x15A9 JUMP JUMPDEST SWAP2 POP PUSH2 0x174A DUP3 PUSH2 0x16E5 JUMP JUMPDEST PUSH1 0x40 DUP3 ADD SWAP1 POP SWAP2 SWAP1 POP JUMP JUMPDEST PUSH0 PUSH1 0x20 DUP3 ADD SWAP1 POP DUP2 DUP2 SUB PUSH0 DUP4 ADD MSTORE PUSH2 0x176C DUP2 PUSH2 0x1733 JUMP JUMPDEST SWAP1 POP SWAP2 SWAP1 POP JUMP JUMPDEST PUSH32 0x5468652070726F6772616D2068617320616C726561647920656E6465642E2000 PUSH0 DUP3 ADD MSTORE POP JUMP JUMPDEST PUSH0 PUSH2 0x17A7 PUSH1 0x1F DUP4 PUSH2 0x15A9 JUMP JUMPDEST SWAP2 POP PUSH2 0x17B2 DUP3 PUSH2 0x1773 JUMP JUMPDEST PUSH1 0x20 DUP3 ADD SWAP1 POP SWAP2 SWAP1 POP JUMP JUMPDEST PUSH0 PUSH1 0x20 DUP3 ADD SWAP1 POP DUP2 DUP2 SUB PUSH0 DUP4 ADD MSTORE PUSH2 0x17D4 DUP2 PUSH2 0x179B JUMP JUMPDEST SWAP1 POP SWAP2 SWAP1 POP JUMP JUMPDEST PUSH32 0x416C726561647920617070726F7665642E000000000000000000000000000000 PUSH0 DUP3 ADD MSTORE POP JUMP JUMPDEST PUSH0 PUSH2 0x180F PUSH1 0x11 DUP4 PUSH2 0x15A9 JUMP JUMPDEST SWAP2 POP PUSH2 0x181A DUP3 PUSH2 0x17DB JUMP JUMPDEST PUSH1 0x20 DUP3 ADD SWAP1 POP SWAP2 SWAP1 POP JUMP JUMPDEST PUSH0 PUSH1 0x20 DUP3 ADD SWAP1 POP DUP2 DUP2 SUB PUSH0 DUP4 ADD MSTORE PUSH2 0x183C DUP2 PUSH2 0x1803 JUMP JUMPDEST SWAP1 POP SWAP2 SWAP1 POP JUMP JUMPDEST PUSH32 0x4F6E6C792063726561746F72732063616E206368616E676520617070726F7665 PUSH0 DUP3 ADD MSTORE PUSH32 0x72732E0000000000000000000000000000000000000000000000000000000000 PUSH1 0x20 DUP3 ADD MSTORE POP JUMP JUMPDEST PUSH0 PUSH2 0x189D PUSH1 0x23 DUP4 PUSH2 0x15A9 JUMP JUMPDEST SWAP2 POP PUSH2 0x18A8 DUP3 PUSH2 0x1843 JUMP JUMPDEST PUSH1 0x40 DUP3 ADD SWAP1 POP SWAP2 SWAP1 POP JUMP JUMPDEST PUSH0 PUSH1 0x20 DUP3 ADD SWAP1 POP DUP2 DUP2 SUB PUSH0 DUP4 ADD MSTORE PUSH2 0x18CA DUP2 PUSH2 0x1891 JUMP JUMPDEST SWAP1 POP SWAP2 SWAP1 POP JUMP JUMPDEST PUSH32 0x5468652070726F6772616D206973206E6F7420617070726F7665642E00000000 PUSH0 DUP3 ADD MSTORE POP JUMP JUMPDEST PUSH0 PUSH2 0x1905 PUSH1 0x1C DUP4 PUSH2 0x15A9 JUMP JUMPDEST SWAP2 POP PUSH2 0x1910 DUP3 PUSH2 0x18D1 JUMP JUMPDEST PUSH1 0x20 DUP3 ADD SWAP1 POP SWAP2 SWAP1 POP JUMP JUMPDEST PUSH0 PUSH1 0x20 DUP3 ADD SWAP1 POP DUP2 DUP2 SUB PUSH0 DUP4 ADD MSTORE PUSH2 0x1932 DUP2 PUSH2 0x18F9 JUMP JUMPDEST SWAP1 POP SWAP2 SWAP1 POP JUMP JUMPDEST PUSH32 0x416C726561647920636C61696D65642E00000000000000000000000000000000 PUSH0 DUP3 ADD MSTORE POP JUMP JUMPDEST PUSH0 PUSH2 0x196D PUSH1 0x10 DUP4 PUSH2 0x15A9 JUMP JUMPDEST SWAP2 POP PUSH2 0x1978 DUP3 PUSH2 0x1939 JUMP JUMPDEST PUSH1 0x20 DUP3 ADD SWAP1 POP SWAP2 SWAP1 POP JUMP JUMPDEST PUSH0 PUSH1 0x20 DUP3 ADD SWAP1 POP DUP2 DUP2 SUB PUSH0 DUP4 ADD MSTORE PUSH2 0x199A DUP2 PUSH2 0x1961 JUMP JUMPDEST SWAP1 POP SWAP2 SWAP1 POP JUMP JUMPDEST PUSH32 0x596F7520646F206E6F742068617665207065726D697373696F6E20746F20636C PUSH0 DUP3 ADD MSTORE PUSH32 0x61696D2E00000000000000000000000000000000000000000000000000000000 PUSH1 0x20 DUP3 ADD MSTORE POP JUMP JUMPDEST PUSH0 PUSH2 0x19FB PUSH1 0x24 DUP4 PUSH2 0x15A9 JUMP JUMPDEST SWAP2 POP PUSH2 0x1A06 DUP3 PUSH2 0x19A1 JUMP JUMPDEST PUSH1 0x40 DUP3 ADD SWAP1 POP SWAP2 SWAP1 POP JUMP JUMPDEST PUSH0 PUSH1 0x20 DUP3 ADD SWAP1 POP DUP2 DUP2 SUB PUSH0 DUP4 ADD MSTORE PUSH2 0x1A28 DUP2 PUSH2 0x19EF JUMP JUMPDEST SWAP1 POP SWAP2 SWAP1 POP JUMP JUMPDEST PUSH32 0x5468652070726F6772616D20686173206E6F742073746172746564207965742E PUSH0 DUP3 ADD MSTORE POP JUMP JUMPDEST PUSH0 PUSH2 0x1A63 PUSH1 0x20 DUP4 PUSH2 0x15A9 JUMP JUMPDEST SWAP2 POP PUSH2 0x1A6E DUP3 PUSH2 0x1A2F JUMP JUMPDEST PUSH1 0x20 DUP3 ADD SWAP1 POP SWAP2 SWAP1 POP JUMP JUMPDEST PUSH0 PUSH1 0x20 DUP3 ADD SWAP1 POP DUP2 DUP2 SUB PUSH0 DUP4 ADD MSTORE PUSH2 0x1A90 DUP2 PUSH2 0x1A57 JUMP JUMPDEST SWAP1 POP SWAP2 SWAP1 POP JUMP JUMPDEST PUSH32 0x5468652070726F6772616D2062696C6C696E6720706572696F64206861732070 PUSH0 DUP3 ADD MSTORE PUSH32 0x61737365642E0000000000000000000000000000000000000000000000000000 PUSH1 0x20 DUP3 ADD MSTORE POP JUMP JUMPDEST PUSH0 PUSH2 0x1AF1 PUSH1 0x26 DUP4 PUSH2 0x15A9 JUMP JUMPDEST SWAP2 POP PUSH2 0x1AFC DUP3 PUSH2 0x1A97 JUMP JUMPDEST PUSH1 0x40 DUP3 ADD SWAP1 POP SWAP2 SWAP1 POP JUMP JUMPDEST PUSH0 PUSH1 0x20 DUP3 ADD SWAP1 POP DUP2 DUP2 SUB PUSH0 DUP4 ADD MSTORE PUSH2 0x1B1E DUP2 PUSH2 0x1AE5 JUMP JUMPDEST SWAP1 POP SWAP2 SWAP1 POP JUMP JUMPDEST PUSH32 0x4E487B7100000000000000000000000000000000000000000000000000000000 PUSH0 MSTORE PUSH1 0x11 PUSH1 0x4 MSTORE PUSH1 0x24 PUSH0 REVERT JUMPDEST PUSH0 PUSH2 0x1B5C DUP3 PUSH2 0x128A JUMP JUMPDEST SWAP2 POP PUSH2 0x1B67 DUP4 PUSH2 0x128A JUMP JUMPDEST SWAP3 POP DUP3 DUP3 MUL PUSH2 0x1B75 DUP2 PUSH2 0x128A JUMP JUMPDEST SWAP2 POP DUP3 DUP3 DIV DUP5 EQ DUP4 ISZERO OR PUSH2 0x1B8C JUMPI PUSH2 0x1B8B PUSH2 0x1B25 JUMP JUMPDEST JUMPDEST POP SWAP3 SWAP2 POP POP JUMP JUMPDEST PUSH32 0x4E487B7100000000000000000000000000000000000000000000000000000000 PUSH0 MSTORE PUSH1 0x12 PUSH1 0x4 MSTORE PUSH1 0x24 PUSH0 REVERT JUMPDEST PUSH0 PUSH2 0x1BCA DUP3 PUSH2 0x128A JUMP JUMPDEST SWAP2 POP PUSH2 0x1BD5 DUP4 PUSH2 0x128A JUMP JUMPDEST SWAP3 POP DUP3 PUSH2 0x1BE5 JUMPI PUSH2 0x1BE4 PUSH2 0x1B93 JUMP JUMPDEST JUMPDEST DUP3 DUP3 DIV SWAP1 POP SWAP3 SWAP2 POP POP JUMP JUMPDEST PUSH0 PUSH2 0x1BFA DUP3 PUSH2 0x128A JUMP JUMPDEST SWAP2 POP PUSH2 0x1C05 DUP4 PUSH2 0x128A JUMP JUMPDEST SWAP3 POP DUP3 DUP3 SUB SWAP1 POP DUP2 DUP2 GT ISZERO PUSH2 0x1C1D JUMPI PUSH2 0x1C1C PUSH2 0x1B25 JUMP JUMPDEST JUMPDEST SWAP3 SWAP2 POP POP JUMP JUMPDEST PUSH0 PUSH1 0x40 DUP3 ADD SWAP1 POP PUSH2 0x1C36 PUSH0 DUP4 ADD DUP6 PUSH2 0x1380 JUMP JUMPDEST PUSH2 0x1C43 PUSH1 0x20 DUP4 ADD DUP5 PUSH2 0x13A8 JUMP JUMPDEST SWAP4 SWAP3 POP POP POP JUMP JUMPDEST PUSH32 0x546865204554482073656E7420646F6573206E6F74206D617463682074686520 PUSH0 DUP3 ADD MSTORE PUSH32 0x70726F6772616D20707269636500000000000000000000000000000000000000 PUSH1 0x20 DUP3 ADD MSTORE POP JUMP JUMPDEST PUSH0 PUSH2 0x1CA4 PUSH1 0x2D DUP4 PUSH2 0x15A9 JUMP JUMPDEST SWAP2 POP PUSH2 0x1CAF DUP3 PUSH2 0x1C4A JUMP JUMPDEST PUSH1 0x40 DUP3 ADD SWAP1 POP SWAP2 SWAP1 POP JUMP JUMPDEST PUSH0 PUSH1 0x20 DUP3 ADD SWAP1 POP DUP2 DUP2 SUB PUSH0 DUP4 ADD MSTORE PUSH2 0x1CD1 DUP2 PUSH2 0x1C98 JUMP JUMPDEST SWAP1 POP SWAP2 SWAP1 POP JUMP JUMPDEST PUSH32 0x5468652053746172742074696D65206D757374206265206561726C6965722074 PUSH0 DUP3 ADD MSTORE PUSH32 0x68616E2074686520656E642074696D652E000000000000000000000000000000 PUSH1 0x20 DUP3 ADD MSTORE POP JUMP JUMPDEST PUSH0 PUSH2 0x1D32 PUSH1 0x31 DUP4 PUSH2 0x15A9 JUMP JUMPDEST SWAP2 POP PUSH2 0x1D3D DUP3 PUSH2 0x1CD8 JUMP JUMPDEST PUSH1 0x40 DUP3 ADD SWAP1 POP SWAP2 SWAP1 POP JUMP JUMPDEST PUSH0 PUSH1 0x20 DUP3 ADD SWAP1 POP DUP2 DUP2 SUB PUSH0 DUP4 ADD MSTORE PUSH2 0x1D5F DUP2 PUSH2 0x1D26 JUMP JUMPDEST SWAP1 POP SWAP2 SWAP1 POP JUMP JUMPDEST PUSH32 0x4E487B7100000000000000000000000000000000000000000000000000000000 PUSH0 MSTORE PUSH1 0x22 PUSH1 0x4 MSTORE PUSH1 0x24 PUSH0 REVERT JUMPDEST PUSH0 PUSH1 0x2 DUP3 DIV SWAP1 POP PUSH1 0x1 DUP3 AND DUP1 PUSH2 0x1DAA JUMPI PUSH1 0x7F DUP3 AND SWAP2 POP JUMPDEST PUSH1 0x20 DUP3 LT DUP2 SUB PUSH2 0x1DBD JUMPI PUSH2 0x1DBC PUSH2 0x1D66 JUMP JUMPDEST JUMPDEST POP SWAP2 SWAP1 POP JUMP JUMPDEST PUSH0 DUP2 SWAP1 POP DUP2 PUSH0 MSTORE PUSH1 0x20 PUSH0 KECCAK256 SWAP1 POP SWAP2 SWAP1 POP JUMP JUMPDEST PUSH0 PUSH1 0x20 PUSH1 0x1F DUP4 ADD DIV SWAP1 POP SWAP2 SWAP1 POP JUMP JUMPDEST PUSH0 DUP3 DUP3 SHL SWAP1 POP SWAP3 SWAP2 POP POP JUMP JUMPDEST PUSH0 PUSH1 0x8 DUP4 MUL PUSH2 0x1E1F PUSH32 0xFFFFFFFFFFFFFFFFFFFFFFFFFFFFFFFFFFFFFFFFFFFFFFFFFFFFFFFFFFFFFFFF DUP3 PUSH2 0x1DE4 JUMP JUMPDEST PUSH2 0x1E29 DUP7 DUP4 PUSH2 0x1DE4 JUMP JUMPDEST SWAP6 POP DUP1 NOT DUP5 AND SWAP4 POP DUP1 DUP7 AND DUP5 OR SWAP3 POP POP POP SWAP4 SWAP3 POP POP POP JUMP JUMPDEST PUSH0 DUP2 SWAP1 POP SWAP2 SWAP1 POP JUMP JUMPDEST PUSH0 PUSH2 0x1E64 PUSH2 0x1E5F PUSH2 0x1E5A DUP5 PUSH2 0x128A JUMP JUMPDEST PUSH2 0x1E41 JUMP JUMPDEST PUSH2 0x128A JUMP JUMPDEST SWAP1 POP SWAP2 SWAP1 POP JUMP JUMPDEST PUSH0 DUP2 SWAP1 POP SWAP2 SWAP1 POP JUMP JUMPDEST PUSH2 0x1E7D DUP4 PUSH2 0x1E4A JUMP JUMPDEST PUSH2 0x1E91 PUSH2 0x1E89 DUP3 PUSH2 0x1E6B JUMP JUMPDEST DUP5 DUP5 SLOAD PUSH2 0x1DF0 JUMP JUMPDEST DUP3 SSTORE POP POP POP POP JUMP JUMPDEST PUSH0 SWAP1 JUMP JUMPDEST PUSH2 0x1EA5 PUSH2 0x1E99 JUMP JUMPDEST PUSH2 0x1EB0 DUP2 DUP5 DUP5 PUSH2 0x1E74 JUMP JUMPDEST POP POP POP JUMP JUMPDEST JUMPDEST DUP2 DUP2 LT ISZERO PUSH2 0x1ED3 JUMPI PUSH2 0x1EC8 PUSH0 DUP3 PUSH2 0x1E9D JUMP JUMPDEST PUSH1 0x1 DUP2 ADD SWAP1 POP PUSH2 0x1EB6 JUMP JUMPDEST POP POP JUMP JUMPDEST PUSH1 0x1F DUP3 GT ISZERO PUSH2 0x1F18 JUMPI PUSH2 0x1EE9 DUP2 PUSH2 0x1DC3 JUMP JUMPDEST PUSH2 0x1EF2 DUP5 PUSH2 0x1DD5 JUMP JUMPDEST DUP2 ADD PUSH1 0x20 DUP6 LT ISZERO PUSH2 0x1F01 JUMPI DUP2 SWAP1 POP JUMPDEST PUSH2 0x1F15 PUSH2 0x1F0D DUP6 PUSH2 0x1DD5 JUMP JUMPDEST DUP4 ADD DUP3 PUSH2 0x1EB5 JUMP JUMPDEST POP POP JUMPDEST POP POP POP JUMP JUMPDEST PUSH0 DUP3 DUP3 SHR SWAP1 POP SWAP3 SWAP2 POP POP JUMP JUMPDEST PUSH0 PUSH2 0x1F38 PUSH0 NOT DUP5 PUSH1 0x8 MUL PUSH2 0x1F1D JUMP JUMPDEST NOT DUP1 DUP4 AND SWAP2 POP POP SWAP3 SWAP2 POP POP JUMP JUMPDEST PUSH0 PUSH2 0x1F50 DUP4 DUP4 PUSH2 0x1F29 JUMP JUMPDEST SWAP2 POP DUP3 PUSH1 0x2 MUL DUP3 OR SWAP1 POP SWAP3 SWAP2 POP POP JUMP JUMPDEST PUSH2 0x1F69 DUP3 PUSH2 0x159F JUMP JUMPDEST PUSH8 0xFFFFFFFFFFFFFFFF DUP2 GT ISZERO PUSH2 0x1F82 JUMPI PUSH2 0x1F81 PUSH2 0x13E8 JUMP JUMPDEST JUMPDEST PUSH2 0x1F8C DUP3 SLOAD PUSH2 0x1D93 JUMP JUMPDEST PUSH2 0x1F97 DUP3 DUP3 DUP6 PUSH2 0x1ED7 JUMP JUMPDEST PUSH0 PUSH1 0x20 SWAP1 POP PUSH1 0x1F DUP4 GT PUSH1 0x1 DUP2 EQ PUSH2 0x1FC8 JUMPI PUSH0 DUP5 ISZERO PUSH2 0x1FB6 JUMPI DUP3 DUP8 ADD MLOAD SWAP1 POP JUMPDEST PUSH2 0x1FC0 DUP6 DUP3 PUSH2 0x1F45 JUMP JUMPDEST DUP7 SSTORE POP PUSH2 0x2027 JUMP JUMPDEST PUSH1 0x1F NOT DUP5 AND PUSH2 0x1FD6 DUP7 PUSH2 0x1DC3 JUMP JUMPDEST PUSH0 JUMPDEST DUP3 DUP2 LT ISZERO PUSH2 0x1FFD JUMPI DUP5 DUP10 ADD MLOAD DUP3 SSTORE PUSH1 0x1 DUP3 ADD SWAP2 POP PUSH1 0x20 DUP6 ADD SWAP5 POP PUSH1 0x20 DUP2 ADD SWAP1 POP PUSH2 0x1FD8 JUMP JUMPDEST DUP7 DUP4 LT ISZERO PUSH2 0x201A JUMPI DUP5 DUP10 ADD MLOAD PUSH2 0x2016 PUSH1 0x1F DUP10 AND DUP3 PUSH2 0x1F29 JUMP JUMPDEST DUP4 SSTORE POP JUMPDEST PUSH1 0x1 PUSH1 0x2 DUP9 MUL ADD DUP9 SSTORE POP POP POP JUMPDEST POP POP POP POP POP POP JUMP JUMPDEST PUSH0 PUSH2 0x2039 DUP3 PUSH2 0x128A JUMP JUMPDEST SWAP2 POP PUSH32 0xFFFFFFFFFFFFFFFFFFFFFFFFFFFFFFFFFFFFFFFFFFFFFFFFFFFFFFFFFFFFFFFF DUP3 SUB PUSH2 0x206B JUMPI PUSH2 0x206A PUSH2 0x1B25 JUMP JUMPDEST JUMPDEST PUSH1 0x1 DUP3 ADD SWAP1 POP SWAP2 SWAP1 POP JUMP JUMPDEST PUSH32 0x4974277320616C7265616479206265656E20617070726F76656420616E642063 PUSH0 DUP3 ADD MSTORE PUSH32 0x616E2774206265207265636C61696D65642E0000000000000000000000000000 PUSH1 0x20 DUP3 ADD MSTORE POP JUMP JUMPDEST PUSH0 PUSH2 0x20D0 PUSH1 0x32 DUP4 PUSH2 0x15A9 JUMP JUMPDEST SWAP2 POP PUSH2 0x20DB DUP3 PUSH2 0x2076 JUMP JUMPDEST PUSH1 0x40 DUP3 ADD SWAP1 POP SWAP2 SWAP1 POP JUMP JUMPDEST PUSH0 PUSH1 0x20 DUP3 ADD SWAP1 POP DUP2 DUP2 SUB PUSH0 DUP4 ADD MSTORE PUSH2 0x20FD DUP2 PUSH2 0x20C4 JUMP JUMPDEST SWAP1 POP SWAP2 SWAP1 POP JUMP JUMPDEST PUSH32 0x416C72656164792074616B656E2063617265206F662E00000000000000000000 PUSH0 DUP3 ADD MSTORE POP JUMP JUMPDEST PUSH0 PUSH2 0x2138 PUSH1 0x16 DUP4 PUSH2 0x15A9 JUMP JUMPDEST SWAP2 POP PUSH2 0x2143 DUP3 PUSH2 0x2104 JUMP JUMPDEST PUSH1 0x20 DUP3 ADD SWAP1 POP SWAP2 SWAP1 POP JUMP JUMPDEST PUSH0 PUSH1 0x20 DUP3 ADD SWAP1 POP DUP2 DUP2 SUB PUSH0 DUP4 ADD MSTORE PUSH2 0x2165 DUP2 PUSH2 0x212C JUMP JUMPDEST SWAP1 POP SWAP2 SWAP1 POP JUMP JUMPDEST PUSH32 0x5468652070726F6772616D206861736E277420656E646564207965742E000000 PUSH0 DUP3 ADD MSTORE POP JUMP JUMPDEST PUSH0 PUSH2 0x21A0 PUSH1 0x1D DUP4 PUSH2 0x15A9 JUMP JUMPDEST SWAP2 POP PUSH2 0x21AB DUP3 PUSH2 0x216C JUMP JUMPDEST PUSH1 0x20 DUP3 ADD SWAP1 POP SWAP2 SWAP1 POP JUMP JUMPDEST PUSH0 PUSH1 0x20 DUP3 ADD SWAP1 POP DUP2 DUP2 SUB PUSH0 DUP4 ADD MSTORE PUSH2 0x21CD DUP2 PUSH2 0x2194 JUMP JUMPDEST SWAP1 POP SWAP2 SWAP1 POP JUMP JUMPDEST PUSH32 0x596F7520646F6E27742068617665207265636C616D6174696F6E207269676874 PUSH0 DUP3 ADD MSTORE PUSH32 0x732E000000000000000000000000000000000000000000000000000000000000 PUSH1 0x20 DUP3 ADD MSTORE POP JUMP JUMPDEST PUSH0 PUSH2 0x222E PUSH1 0x22 DUP4 PUSH2 0x15A9 JUMP JUMPDEST SWAP2 POP PUSH2 0x2239 DUP3 PUSH2 0x21D4 JUMP JUMPDEST PUSH1 0x40 DUP3 ADD SWAP1 POP SWAP2 SWAP1 POP JUMP JUMPDEST PUSH0 PUSH1 0x20 DUP3 ADD SWAP1 POP DUP2 DUP2 SUB PUSH0 DUP4 ADD MSTORE PUSH2 0x225B DUP2 PUSH2 0x2222 JUMP JUMPDEST SWAP1 POP SWAP2 SWAP1 POP JUMP JUMPDEST PUSH32 0x5265656E7472616E637947756172643A207265656E7472616E742063616C6C00 PUSH0 DUP3 ADD MSTORE POP JUMP JUMPDEST PUSH0 PUSH2 0x2296 PUSH1 0x1F DUP4 PUSH2 0x15A9 JUMP JUMPDEST SWAP2 POP PUSH2 0x22A1 DUP3 PUSH2 0x2262 JUMP JUMPDEST PUSH1 0x20 DUP3 ADD SWAP1 POP SWAP2 SWAP1 POP JUMP JUMPDEST PUSH0 PUSH1 0x20 DUP3 ADD SWAP1 POP DUP2 DUP2 SUB PUSH0 DUP4 ADD MSTORE PUSH2 0x22C3 DUP2 PUSH2 0x228A JUMP JUMPDEST SWAP1 POP SWAP2 SWAP1 POP JUMP INVALID LOG2 PUSH5 0x6970667358 0x22 SLT KECCAK256 0x4F 0xCF 0xEC DUP7 0xCC PUSH15 0xB48944AF09465A70C9569D83CBCE02 0xFB 0xC7 BALANCE PUSH23 0x355664CCB3E7C264736F6C634300081A00330000000000 "
				},
				"gasEstimates": {
					"creation": {
						"codeDepositCost": "1792000",
						"executionCost": "infinite",
						"totalCost": "infinite"
					},
					"external": {
						"approveProgram(uint256,address)": "infinite",
						"claimGrants(uint256)": "infinite",
						"createEduProgram(string,uint256,uint256,uint256,address)": "infinite",
						"eduPrograms(uint256)": "infinite",
						"getFee()": "2476",
						"nextProgramId()": "2425",
						"owner()": "2626",
						"reclaimFunds(uint256)": "infinite",
						"renounceOwnership()": "infinite",
						"setFee(uint256)": "infinite",
						"transferOwnership(address)": "infinite",
						"updateValidator(uint256,address)": "infinite"
					}
				},
				"methodIdentifiers": {
					"approveProgram(uint256,address)": "3db3ca89",
					"claimGrants(uint256)": "86e0d85a",
					"createEduProgram(string,uint256,uint256,uint256,address)": "bf9d6337",
					"eduPrograms(uint256)": "d613fd24",
					"getFee()": "ced72f87",
					"nextProgramId()": "ba71b330",
					"owner()": "8da5cb5b",
					"reclaimFunds(uint256)": "f9f161a8",
					"renounceOwnership()": "715018a6",
					"setFee(uint256)": "69fe0e2d",
					"transferOwnership(address)": "f2fde38b",
					"updateValidator(uint256,address)": "5a27cbcb"
				}
			},
			"storageLayout": {
				"storage": [
					{
						"astId": 8,
						"contract": "LdEduProgram.sol:LdEduProgram",
						"label": "_owner",
						"offset": 0,
						"slot": "0",
						"type": "t_address"
					},
					{
						"astId": 158,
						"contract": "LdEduProgram.sol:LdEduProgram",
						"label": "_status",
						"offset": 0,
						"slot": "1",
						"type": "t_uint256"
					},
					{
						"astId": 325,
						"contract": "LdEduProgram.sol:LdEduProgram",
						"label": "eduPrograms",
						"offset": 0,
						"slot": "2",
						"type": "t_mapping(t_uint256,t_struct(EduProgram)315_storage)"
					},
					{
						"astId": 327,
						"contract": "LdEduProgram.sol:LdEduProgram",
						"label": "nextProgramId",
						"offset": 0,
						"slot": "3",
						"type": "t_uint256"
					},
					{
						"astId": 329,
						"contract": "LdEduProgram.sol:LdEduProgram",
						"label": "fee",
						"offset": 0,
						"slot": "4",
						"type": "t_uint256"
					}
				],
				"types": {
					"t_address": {
						"encoding": "inplace",
						"label": "address",
						"numberOfBytes": "20"
					},
					"t_bool": {
						"encoding": "inplace",
						"label": "bool",
						"numberOfBytes": "1"
					},
					"t_mapping(t_uint256,t_struct(EduProgram)315_storage)": {
						"encoding": "mapping",
						"key": "t_uint256",
						"label": "mapping(uint256 => struct LdEduProgram.EduProgram)",
						"numberOfBytes": "32",
						"value": "t_struct(EduProgram)315_storage"
					},
					"t_string_storage": {
						"encoding": "bytes",
						"label": "string",
						"numberOfBytes": "32"
					},
					"t_struct(EduProgram)315_storage": {
						"encoding": "inplace",
						"label": "struct LdEduProgram.EduProgram",
						"members": [
							{
								"astId": 296,
								"contract": "LdEduProgram.sol:LdEduProgram",
								"label": "id",
								"offset": 0,
								"slot": "0",
								"type": "t_uint256"
							},
							{
								"astId": 298,
								"contract": "LdEduProgram.sol:LdEduProgram",
								"label": "name",
								"offset": 0,
								"slot": "1",
								"type": "t_string_storage"
							},
							{
								"astId": 300,
								"contract": "LdEduProgram.sol:LdEduProgram",
								"label": "price",
								"offset": 0,
								"slot": "2",
								"type": "t_uint256"
							},
							{
								"astId": 302,
								"contract": "LdEduProgram.sol:LdEduProgram",
								"label": "startTime",
								"offset": 0,
								"slot": "3",
								"type": "t_uint256"
							},
							{
								"astId": 304,
								"contract": "LdEduProgram.sol:LdEduProgram",
								"label": "endTime",
								"offset": 0,
								"slot": "4",
								"type": "t_uint256"
							},
							{
								"astId": 306,
								"contract": "LdEduProgram.sol:LdEduProgram",
								"label": "maker",
								"offset": 0,
								"slot": "5",
								"type": "t_address"
							},
							{
								"astId": 308,
								"contract": "LdEduProgram.sol:LdEduProgram",
								"label": "validator",
								"offset": 0,
								"slot": "6",
								"type": "t_address"
							},
							{
								"astId": 310,
								"contract": "LdEduProgram.sol:LdEduProgram",
								"label": "approve",
								"offset": 20,
								"slot": "6",
								"type": "t_bool"
							},
							{
								"astId": 312,
								"contract": "LdEduProgram.sol:LdEduProgram",
								"label": "claimed",
								"offset": 21,
								"slot": "6",
								"type": "t_bool"
							},
							{
								"astId": 314,
								"contract": "LdEduProgram.sol:LdEduProgram",
								"label": "builder",
								"offset": 0,
								"slot": "7",
								"type": "t_address"
							}
						],
						"numberOfBytes": "256"
					},
					"t_uint256": {
						"encoding": "inplace",
						"label": "uint256",
						"numberOfBytes": "32"
					}
				}
			},
			"userdoc": {
				"kind": "user",
				"methods": {
					"approveProgram(uint256,address)": {
						"notice": "벨리데이터가 프로그램을 승인하는 함수"
					},
					"claimGrants(uint256)": {
						"notice": "승인된 빌더가 그랜츠를 청구하는 함수"
					},
					"createEduProgram(string,uint256,uint256,uint256,address)": {
						"notice": "프로그램 생성 함수"
					},
					"getFee()": {
						"notice": "현재 설정된 수수료를 반환하는 함수"
					},
					"reclaimFunds(uint256)": {
						"notice": "프로그램 기간 만료 후, 아직 승인되지 않은 경우 제작자가 예치금을 회수하는 함수"
					},
					"setFee(uint256)": {
						"notice": "계약 소유자가 수수료를 설정하는 함수 (basis point 단위)"
					},
					"updateValidator(uint256,address)": {
						"notice": "제작자가 승인 벨리데이터를 변경하는 함수"
					}
				},
				"version": 1
			}
		}
	}
}